:0400000007EF00F016
:0A0008006C82D3ED0CF0D8EF14F079
:10100000003738392F3435362A3132332D43303DCD
:051010002B2569000022
:10101600000E4B6E000E4C6E000E4D6E000E4E6EA8
:1010260029EF0AF0AC98AC94B8964850D96EDA6AB3
:10103600DECF11F0DECF12F0DECF13F0DECF14F0EC
:10104600000E8BEC10F011C023F012C024F013C078
:1010560025F014C026F0000E1F6E240E206EF40E2E
:10106600216E4A0E226EBEEC0EF01FC04FF020C05D
:1010760050F021C051F022C052F0000E236E000E37
:10108600246E800E256E420E266E4FC01FF050C095
:1010960020F051C021F052C022F0BEEC0EF01FC06D
:1010A60038F020C039F021C03AF022C03BF0000EE3
:1010B6003C6E000E3D6E800E3E6EBF0E3F6E73ECB4
:1010C6000AF038C04BF039C04CF03AC04DF03BC086
:1010D6004EF053EF0AF0AC98AC84B8964850D96EEF
:1010E600DA6ADECF11F0DECF12F0DECF13F0DECFFC
:1010F60014F0000E8BEC10F011C023F012C024F097
:1011060013C025F014C026F0000E1F6E240E206EAC
:10111600F40E216E4A0E226EBEEC0EF01FC04FF08A
:1011260020C050F021C051F022C052F0000E236EB4
:10113600000E246E800E256E410E266E4FC01FF0E7
:1011460050C020F051C021F052C022F0BEEC0EF08B
:101156001FC038F020C039F021C03AF022C03BF061
:10116600000E3C6E000E3D6E800E3E6EBF0E3F6E54
:1011760073EC0AF038C04BF039C04CF03AC04DF071
:101186003BC04EF053EF0AF0AC98AC94B88648508A
:10119600D96EDA6ADECF11F0DECF12F0DECF13F0B1
:1011A600DECF14F0000E8BEC10F011C023F012C04D
:1011B60024F013C025F014C026F0000E1F6E240E76
:1011C600206EF40E216E4A0E226EBEEC0EF01FC08B
:1011D6004FF020C050F021C051F022C052F0000E56
:1011E600236E000E246E800E256E410E266E4FC0B5
:1011F6001FF050C020F051C021F052C022F0BEECCA
:101206000EF01FC038F020C039F021C03AF022C0DD
:101216003BF0000E3C6E000E3D6E800E3E6EBF0E25
:101226003F6E73EC0AF038C04BF039C04CF03AC050
:101236004DF03BC04EF053EF0AF0AC98AC84B88644
:101246004850D96EDA6ADECF11F0DECF12F0DECF6B
:1012560013F0DECF14F0000E8BEC10F011C023F06B
:1012660012C024F013C025F014C026F0000E1F6E25
:10127600240E206EF40E216E4A0E226EBEEC0EF087
:101286001FC04FF020C050F021C051F022C052F0D4
:10129600000E236E000E246E800E256E400E266E06
:1012A6004FC01FF050C020F051C021F052C022F0B4
:1012B600BEEC0EF01FC038F020C039F021C03AF065
:1012C60022C03BF0000E3C6E000E3D6E800E3E6E60
:1012D600BF0E3F6E73EC0AF038C04BF039C04CF0CD
:1012E6003AC04DF03BC04EF053EF0AF0AC88B896CA
:1012F6004850D96EDA6ADECF11F0DECF12F0DECFBB
:1013060013F0DECF14F0000E8BEC10F011C023F0BA
:1013160012C024F013C025F014C026F0000E1F6E74
:10132600240E206EF40E216E4A0E226EBEEC0EF0D6
:101336001FC04FF020C050F021C051F022C052F023
:10134600000E236E000E246E800E256E400E266E55
:101356004FC01FF050C020F051C021F052C022F003
:10136600BEEC0EF01FC038F020C039F021C03AF0B4
:1013760022C03BF0000E3C6E000E3D6E800E3E6EAF
:10138600BF0E3F6E73EC0AF038C04BF039C04CF01C
:101396003AC04DF03BC04EF053EF0AF0AC88B88629
:1013A6004850D96EDA6ADECF11F0DECF12F0DECF0A
:1013B60013F0DECF14F0000E8BEC10F011C023F00A
:1013C60012C024F013C025F014C026F0000E1F6EC4
:1013D600240E206EF40E216E4A0E226EBEEC0EF026
:1013E6001FC04FF020C050F021C051F022C052F073
:1013F600000E236E000E246E800E256E400E266EA5
:101406004FC01FF050C020F051C021F052C022F052
:10141600BEEC0EF01FC038F020C039F021C03AF003
:1014260022C03BF0000E3C6E000E3D6E800E3E6EFE
:10143600BF0E3F6E73EC0AF038C04BF039C04CF06B
:101446003AC04DF03BC04EF053EF0AF04850D96E0B
:10145600DA6A040ED926DF50496E4A6A4A50000AF3
:10146600D8B438EF0AF053EF0AF04950000AD8B45E
:1014760015EF08F0010AD8B46EEF08F0030AD8B4E5
:10148600C7EF08F0010AD8B420EF09F0070AD8B46C
:1014960079EF09F0010AD8B4D1EF09F053EF0AF059
:1014A6004BC011F04CC012F04DC013F04EC014F0FA
:1014B60076EC12F01150AF6E4BC011F04CC012F02A
:1014C6004DC013F04EC014F076EC12F012C011F0BD
:1014D60013C012F014C013F0146A1150B06E12004B
:1014E6003B50800B446E3B503B24466E3AAE7EEF3B
:1014F6000AF080EF0AF081EF0AF046804650D8B431
:1015060087EF0AF089EF0AF09EEF0AF04628D8A482
:101516008FEF0AF091EF0AF099EF0AF0000E386E9D
:10152600000E396E000E3A6E000E3B6E3A8E000EBD
:101536003B6EA6EF0AF0000E386E000E396E000EF6
:101546003A6E000E3B6E3F50800B456E4450451878
:10155600D8B4B0EF0AF0B2EF0AF0B3EF0AF0448C59
:101566003F503F24456E3EAEBBEF0AF0BDEF0AF09A
:10157600BEEF0AF045804550D8B4C4EF0AF0C6EF76
:101586000AF0DBEF0AF04528D8A4CCEF0AF0CEEF3C
:101596000AF0D6EF0AF0000E3C6E000E3D6E000E0D
:1015A6003E6E000E3F6E3E8E000E3F6EE3EF0AF07B
:1015B600000E3C6E000E3D6E000E3E6E000E3F6E3F
:1015C6004650455CD8B0EAEF0AF0ECEF0AF013EFAC
:1015D6000BF044ACF1EF0AF0F3EF0AF0F5EF0AF086
:1015E600800E441A46C047F045C046F047C045F055
:1015F60038C047F03CC038F047C03CF039C047F02F
:101606003DC039F047C03DF03AC047F03EC03AF021
:1016160047C03EF03BC047F03FC03BF047C03FF0FD
:10162600000E476E465045C040F0416A405E000ECF
:10163600415A41BE28EF0BF0415009E11A0E405CB9
:10164600D8A028EF0BF02AEF0BF061EF0BF0385023
:1016560039103A103B10D8A433EF0BF036EF0BF0ED
:10166600010E37EF0BF0000E476E000E386E000EBF
:10167600396E000E3A6E000E3B6E45C046F06AEFBC
:101686000BF047A049EF0BF04BEF0BF051EF0BF0CF
:10169600D89047300109476E53EF0BF0D890473288
:1016A60038A058EF0BF05AEF0BF05BEF0BF0478EBC
:1016B6003B343B323A3239323832462A4550465C60
:1016C600D8A068EF0BF06AEF0BF044EF0BF044BCC8
:1016D6006FEF0BF071EF0BF0B1EF0BF04650D8A4A3
:1016E60077EF0BF079EF0BF083EF0BF0000E386E0F
:1016F600000E396E000E3A6E000E3B6ED2EF0CF005
:101706003C5038263D5039223E503A223F503B222B
:101716003BA090EF0BF092EF0BF03EEF0CF047A0E2
:1017260097EF0BF099EF0BF09FEF0BF0D890473047
:101736000109476EA1EF0BF0D890473238A0A6EF0B
:101746000BF0A8EF0BF0A9EF0BF0478E3B343B32C2
:101756003A3239323832462A3EEF0CF03C50385C89
:101766003D5039583E503A583B50800A406E3F50E3
:10177600800A4058D8B0C2EF0BF0C4EF0BF0EFEF81
:101786000BF038503C5C406E39503D58416E3A5033
:101796003E58426E3B503F58436EFF0E4024386E13
:1017A600FF0E4120396EFF0E42203A6EFF0E432097
:1017B6003B6E800E441A476C4750D8A4E5EF0BF0F9
:1017C600E7EF0BF0F7EF0BF0010E3826000E39228B
:1017D6003A223B22F7EF0BF03C50385E3D50395A27
:1017E6003E503A5A3F503B5A385039103A103B1047
:1017F600D8A400EF0CF002EF0CF037EF0CF04750D6
:10180600D8A408EF0CF00AEF0CF037EF0CF0000E3E
:10181600386E000E396E000E3A6E000E3B6ED2EF39
:101826000CF0D890383639363A363B3647AE1EEF8E
:101836000CF020EF0CF021EF0CF0388047A026EFDB
:101846000CF028EF0CF02CEF0CF0D88047362EEF7A
:101856000CF0D89047364650D8B434EF0CF036EF3B
:101866000CF037EF0CF046063AAE3CEF0CF03EEFCC
:101876000CF014EF0CF0000E456E47AE45EF0CF081
:1018860047EF0CF05FEF0CF047C040F07F0E4016BC
:10189600D8B450EF0CF052EF0CF056EF0CF0010EEE
:1018A600456E5FEF0CF038A05BEF0CF05DEF0CF0CF
:1018B6005FEF0CF052EF0CF04550D8B465EF0CF02A
:1018C60067EF0CF092EF0CF0010E3826000E39226D
:1018D6003A223B223BA072EF0CF074EF0CF092EF31
:1018E6000CF038C040F039C041F03AC042F03BC07D
:1018F60043F04334433242324132403240C038F042
:1019060041C039F042C03AF043C03BF04628D8B453
:101916008FEF0CF091EF0CF092EF0CF0462A462870
:10192600D8B498EF0CF09AEF0CF0A2EF0CF04650FA
:10193600D8A4A0EF0CF0A2EF0CF0B4EF0CF0000E60
:10194600386E000E396E000E3A6E000E3B6E465033
:10195600D8A4B0EF0CF0B2EF0CF0B4EF0CF0000E20
:10196600446E46A0B9EF0CF0BBEF0CF0BEEF0CF0E6
:101976003A8EBFEF0CF03A9ED89046303B6E44AE9E
:10198600C7EF0CF0C9EF0CF0CAEF0CF03B8E38C075
:1019960038F039C039F03AC03AF03BC03BF012009B
:1019A6000600FACF0BF0FBCF0CF0D9CF0DF0DACF53
:1019B6000EF0F3CF0FF0F4CF10F0F2A8E5EF0CF035
:1019C600E7EF0CF0F0EF0CF0F2A2ECEF0CF0EEEF1C
:1019D6000CF0F0EF0CF05CEC16F0F0A6F5EF0CF066
:1019E600F7EF0CF000EF0DF0F0A0FCEF0CF0FEEFBF
:1019F6000CF000EF0DF05AEC16F0F0A805EF0DF024
:101A060007EF0DF010EF0DF0F0A20CEF0DF00EEF5A
:101A16000DF010EF0DF058EC16F0F2A615EF0DF0E4
:101A260017EF0DF032EF0DF0F2A01CEF0DF01EEFE8
:101A36000DF032EF0DF081A823EF0DF025EF0DF03C
:101A460032EF0DF06A04D8A42BEF0DF02DEF0DF058
:101A560032EF0DF0000E6A6E010E15EC16F0F2A6CE
:101A660037EF0DF039EF0DF054EF0DF0F2A03EEF29
:101A76000DF040EF0DF054EF0DF081B845EF0DF08D
:101A860047EF0DF054EF0DF06A50D8A44DEF0DF06E
:101A96004FEF0DF054EF0DF0010E6A6E000E15ECCF
:101AA60016F0F2A659EF0DF05BEF0DF076EF0DF0A4
:101AB600F2A060EF0DF062EF0DF076EF0DF081AA67
:101AC60067EF0DF069EF0DF076EF0DF06904D8A41D
:101AD6006FEF0DF071EF0DF076EF0DF0000E696E01
:101AE600010E08EC16F0F2A67BEF0DF07DEF0DF07F
:101AF60098EF0DF0F2A082EF0DF084EF0DF098EF65
:101B06000DF081BA89EF0DF08BEF0DF098EF0DF027
:101B16006950D8A491EF0DF093EF0DF098EF0DF00A
:101B2600010E696E000E08EC16F0F2A69DEF0DF0A0
:101B36009FEF0DF0BAEF0DF0F2A0A4EF0DF0A6EFB7
:101B46000DF0BAEF0DF081ACABEF0DF0ADEF0DF08F
:101B5600BAEF0DF06804D8A4B3EF0DF0B5EF0DF0B1
:101B6600BAEF0DF0000E686E010EFBEC15F0F2A652
:101B7600BFEF0DF0C1EF0DF0DCEF0DF0F2A0C6EFF8
:101B86000DF0C8EF0DF0DCEF0DF081BCCDEF0DF0E0
:101B9600CFEF0DF0DCEF0DF06850D8A4D5EF0DF0C7
:101BA600D7EF0DF0DCEF0DF0010E686E000EFBECCA
:101BB60015F0F2A6E1EF0DF0E3EF0DF0FEEF0DF0FC
:101BC600F2A0E8EF0DF0EAEF0DF0FEEF0DF081AEBA
:101BD600EFEF0DF0F1EF0DF0FEEF0DF06704D8A476
:101BE600F7EF0DF0F9EF0DF0FEEF0DF0000E676E5A
:101BF600010EEEEC15F0F2A603EF0EF005EF0EF077
:101C060020EF0EF0F2A00AEF0EF00CEF0EF020EF30
:101C16000EF081BE11EF0EF013EF0EF020EF0EF076
:101C26006750D8A419EF0EF01BEF0EF020EF0EF060
:101C3600010E676E000EEEEC15F09DAC25EF0EF072
:101C460027EF0EF030EF0EF09EAC2CEF0EF02EEFDD
:101C56000EF030EF0EF064EC16F0F2AA35EF0EF04F
:101C660037EF0EF040EF0EF0F2A43CEF0EF03EEF31
:101C76000EF040EF0EF046EC16F09DA045EF0EF08C
:101C860047EF0EF050EF0EF09EA04CEF0EF04EEF29
:101C96000EF050EF0EF040EC16F09DA255EF0EF050
:101CA60057EF0EF060EF0EF09EA25CEF0EF05EEFC7
:101CB6000EF060EF0EF051EC16F0A0A265EF0EF0FC
:101CC60067EF0EF070EF0EF0A1A26CEF0EF06EEF64
:101CD6000EF070EF0EF03AEC16F09DA475EF0EF0D4
:101CE60077EF0EF080EF0EF09EA47CEF0EF07EEF05
:101CF6000EF080EF0EF062EC16F0A0A085EF0EF06D
:101D060087EF0EF090EF0EF0A1A08CEF0EF08EEFA5
:101D16000EF090EF0EF060EC16F09DA895EF0EF029
:101D260097EF0EF0A0EF0EF09EA89CEF0EF09EEF40
:101D36000EF0A0EF0EF05EEC16F09DAAA5EF0EF0E9
:101D4600A7EF0EF0B0EF0EF09EAAACEF0EF0AEEFDE
:101D56000EF0B0EF0EF0A3EC15F010C0F4FF0FC0BC
:101D6600F3FF0EC0DAFF0DC0D9FF0CC0FBFF0BC09E
:101D7600FAFF6C9211002250800B2F6E2250222403
:101D8600366E21AEC9EF0EF0CBEF0EF0CCEF0EF0B3
:101D960036803650D8B4D2EF0EF0D4EF0EF0E9EF1D
:101DA6000EF03628D8A4DAEF0EF0DCEF0EF0E4EFF2
:101DB6000EF0000E1F6E000E206E000E216E000E3D
:101DC600226E218E000E226EF1EF0EF0000E1F6EB7
:101DD600000E206E000E216E000E226E2650800B25
:101DE6002F1A26502624376E25AEFCEF0EF0FEEF96
:101DF6000EF0FFEF0EF037803750D8B405EF0FF036
:101E060007EF0FF01CEF0FF03728D8A40DEF0FF0F7
:101E16000FEF0FF017EF0FF0000E236E000E246E7B
:101E2600000E256E000E266E258E000E266E24EF01
:101E36000FF0000E236E000E246E000E256E000EAF
:101E4600266E2350241025102610D8A42DEF0FF04F
:101E56002FEF0FF047EF0FF0000E1F6E000E206EF3
:101E6600000E216E000E226E800E21127F0E2212AF
:101E76002F5022121FC01FF020C020F021C021F0D9
:101E860022C022F08AEF10F03650D8A44DEF0FF0A2
:101E96004FEF0FF059EF0FF0000E1F6E000E206E81
:101EA600000E216E000E226E8AEF10F0375036C0FB
:101EB60027F0286A275E000E285A7F0E2724306EE8
:101EC600000E2820316E1FC02BF020C02CF021C040
:101ED6002DF022C02EF0000E1F6E000E206E000E9A
:101EE600216E000E226E000E326E000E336E000E54
:101EF600346E000E356E000E376EBAEF0FF03750A7
:101F0600D8B488EF0FF08AEF0FF0A1EF0FF0D8905A
:101F16002B362C362D362E36D8901F3620362136C7
:101F2600223635AE99EF0FF09BEF0FF09CEF0FF0D6
:101F36001F80D890323633363436353623502B5CF4
:101F460024502C5825502D5826502E58D8A0AEEF88
:101F56000FF0B0EF0FF0B9EF0FF0358C23502B5E7A
:101F660024502C5A25502D5A26502E5A372A190EEF
:101F76003764C0EF0FF0C2EF0FF082EF0FF02B5077
:101F86002C102D102E10D8B4CBEF0FF0CDEF0FF094
:101F9600E5EF0FF03280E5EF0FF0D8901F362036D0
:101FA6002136223635AEDAEF0FF0DCEF0FF0DDEF3B
:101FB6000FF01F80D8903236333634363536300639
:101FC600D8A0310621AEEAEF0FF0ECEF0FF0D0EF1C
:101FD6000FF0000E376E35AEF3EF0FF0F5EF0FF0A2
:101FE60019EF10F0FF0E3214276EFF0E3314286E11
:101FF600FF0E3414296E7F0E35142A6E27502810D2
:1020060029102A10D8B40AEF10F00CEF10F010EFD8
:1020160010F0010E376E19EF10F01FA015EF10F03B
:1020260017EF10F019EF10F00CEF10F03750D8B48E
:102036001FEF10F021EF10F045EF10F0010E1F26F4
:10204600000E20222122222222A02CEF10F02EEFB9
:1020560010F045EF10F01FC027F020C028F021C077
:1020660029F022C02AF02A342A322932283227328D
:1020760027C01FF028C020F029C021F02AC022F076
:10208600304A312A31BE50EF10F0315008E1302885
:10209600D8A050EF10F052EF10F05DEF10F0000EE8
:1020A600316E3068000E1F6E000E206E000E216E1F
:1020B600000E226E31BE6AEF10F0315006E1300498
:1020C600D8B068EF10F06AEF10F078EF10F0000E5D
:1020D600316E000E306E000E1F6E000E206E000E6A
:1020E600216E000E226E000E2F6E30C036F036A026
:1020F6007FEF10F081EF10F084EF10F0218E85EF66
:1021060010F0219ED8903630226E3BEF0FF0120071
:10211600196E1950D8B492EF10F094EF10F0B6EF94
:1021260010F014BE9BEF10F099EF10F0B6EF10F020
:1021360011C015F012C016F013C017F014C018F035
:10214600151E161E171E181E152A000E16221722F9
:10215600182215C01BF016C01CF017C01DF018C0C1
:102166001EF0BEEF10F011C01BF012C01CF013C021
:102176001DF014C01EF01150121013101410D8A424
:10218600C7EF10F0C9EF10F0D3EF10F0000E116E8C
:10219600000E126E000E136E000E146E64EF11F038
:1021A600960E1A6EDDEF10F01A2AD8901E321D32E6
:1021B6001C321B32000E1B14156E000E1C14166EFC
:1021C600000E1D14176EFE0E1E14186E15501610F6
:1021D60017101810D8A4F2EF10F0F4EF10F0D7EFA4
:1021E60010F002EF11F01A2A010E1B26000E1C2217
:1021F6001D221E22D8901E321D321C321B32000EAA
:102206001B14156E000E1C14166E000E1D14176E90
:10221600FF0E1E14186E1550161017101810D8A49D
:1022260017EF11F019EF11F0F6EF10F021EF11F0A2
:102236001A06D8901B361C361D361E361DBE26EFD6
:1022460011F028EF11F030EF11F0020E1A602EEFA8
:1022560011F030EF11F01BEF11F01AB035EF11F05D
:1022660037EF11F038EF11F01D9ED8901A321AC0D0
:1022760015F0166A176A186A15C018F0176A166AF2
:10228600156A15501B1216501C1217501D121850A5
:102296001E121950D8B452EF11F054EF11F05CEF42
:1022A60011F014BE5BEF11F059EF11F05CEF11F075
:1022B6001E8E1BC011F01CC012F01DC013F01EC0F4
:1022C60014F01200010E176E1150D8B46DEF11F014
:1022D6006FEF11F07FEF11F01150D96EDA6ADF302F
:1022E600E832E832070B126E070E12647DEF11F02A
:1022F6007FEF11F0D6EF11F0000E176EECEF11F034
:102306001150D96EDA6ADF30E832E832070B126E06
:10231600010E136E122A92EF11F0D8901336122E78
:1023260090EF11F01350FF0A146E1150D96EDA6A4D
:10233600DF50070B020DF350C80FD96EDA6ADECFF5
:1023460015F0DDCF16F015C0D9FF16C0DAFF145010
:10235600DF16ECEF11F01150D96EDA6ADF30E83291
:10236600E832070B126E010E136E122ABDEF11F042
:10237600D8901336122EBBEF11F01150D96EDA6ACF
:10238600DF50070B020DF350C80FD96EDA6ADECFA5
:1023960014F0DDCF15F014C0D9FF15C0DAFF1350C5
:1023A600DF12ECEF11F01150D96EDA6ADFBCDEEF06
:1023B60011F0E1EF11F0010EE2EF11F0000E000A4C
:1023C600D8B483EF11F0010AD8B4AEEF11F07FEF65
:1023D60011F017501200010E186E1150D8B4F6EF16
:1023E60011F0F8EF11F008EF12F01150D96EDA6A19
:1023F600DF30E832E832070B136E070E136406EF80
:1024060012F008EF12F05FEF12F0000E186E74EF84
:1024160012F01150D96EDA6ADF30E832E832070B73
:10242600136E010E146E132A1BEF12F0D890143699
:10243600132E19EF12F01450FF0A156E1150D96EB3
:10244600DA6ADF50070B020DF350BE0FD96EDA6A57
:10245600DECF16F0DDCF17F016C0D9FF17C0DAFFB2
:102466001550DF1674EF12F01150D96EDA6ADF30AC
:10247600E832E832070B136E010E146E132A46EF8C
:1024860012F0D8901436132E44EF12F01150D96E74
:10249600DA6ADF50070B020DF350BE0FD96EDA6A07
:1024A600DECF15F0DDCF16F015C0D9FF16C0DAFF66
:1024B6001450DF1274EF12F01250136E146A145097
:1024C600000AD8B469EF12F008EF12F01350000AB0
:1024D600D8B40CEF12F0010AD8B437EF12F008EFB7
:1024E60012F018501200133414341A6E1A50D8A46D
:1024F6007FEF12F081EF12F08BEF12F0000E116EEB
:10250600000E126E000E136E000E146EF8EF12F02F
:1025160011C015F012C016F013C017F014C018F051
:10252600200E9BEF12F0D890183217321632153261
:10253600E82E96EF12F01550196E138EFF0E111637
:10254600FF0E1216FF0E1316000E1416960E1A5EC6
:102556001ABEB2EF12F0B0EF12F0C8EF12F01A5036
:10256600800A970FD8B0BAEF12F0BCEF12F0BEEFA8
:1025760012F081EF12F0D890143213321232113267
:102586001A3EBEEF12F0E0EF12F01F0E1A64CEEF05
:1025960012F0D0EF12F0D8EF12F081EF12F0D890CF
:1025A60011361236133614361A061A50D8A4DEEF30
:1025B60012F0E0EF12F0D2EF12F01950D8B4E6EFB5
:1025C60012F0E8EF12F0F0EF12F0141E131E121EB6
:1025D600116C000E12221322142211C011F012C027
:1025E60012F013C013F014C014F012000150D8B446
:1025F600FFEF12F001EF13F011EF13F00150D96E57
:10260600DA6ADF30E832E832070B036E070E03643E
:102616000FEF13F011EF13F066EF13F07BEF13F0EB
:102626000150D96EDA6ADF30E832E832070B036E02
:10263600010E046E032A22EF13F0D8900436032EFF
:1026460020EF13F00450FF0A056E0150D96EDA6AC6
:10265600DF50070B020DF350BE0FD96EDA6ADECFDC
:1026660006F0DDCF07F006C0D9FF07C0DAFF055038
:10267600DF167BEF13F00150D96EDA6ADF30E832ED
:10268600E832070B036E010E046E032A4DEF13F0BA
:10269600D8900436032E4BEF13F00150D96EDA6A48
:1026A600DF50070B020DF350BE0FD96EDA6ADECF8C
:1026B60005F0DDCF06F005C0D9FF06C0DAFF0450ED
:1026C600DF127BEF13F00250036E046A0450000A17
:1026D600D8B470EF13F011EF13F00350000AD8B41A
:1026E60013EF13F0010AD8B43EEF13F011EF13F015
:1026F60012001150D96EDA6A080ED926DFA086EFCD
:1027060013F088EF13F0E1EF13F0AB881150D96E98
:10271600DA6A0C0ED926DECF55F0DDCF56F0115011
:10272600D96EDA6A0E0ED926DECF88F0DDCF89F0B3
:102736001150D96EDA6A100ED926DECF86F0DDCFBB
:1027460087F01150D96EDA6A080ED926DFA2AEEFED
:1027560013F0B0EF13F0B6EF13F09D8A9D8AF28E58
:10276600F28CC3EF13F01150D96EDA6A080ED9262F
:10277600DFB2C0EF13F0C2EF13F0C3EF13F09D9A70
:102786001150D96EDA6A080ED926DFA4CDEF13F000
:10279600CFEF13F0D2EF13F0AB8CE1EF13F0115043
:1027A600D96EDA6A080ED926DFB4DCEF13F0DEEF55
:1027B60013F0E1EF13F0AB9CE1EF13F012001150B0
:1027C600D96EDA6A060ED926DFA0ECEF13F0EEEF2B
:1027D60013F035EF14F0AC8A1150D96EDA6A0A0E8E
:1027E600D926DECF8AF0DDCF8BF01150D96EDA6AAA
:1027F600060ED926DFA202EF14F004EF14F00AEF5A
:1028060014F09D889D88F28EF28C17EF14F011500B
:10281600D96EDA6A060ED926DFB214EF14F016EF77
:1028260014F017EF14F09D981150D96EDA6A060E5F
:10283600D926DFA421EF14F023EF14F026EF14F0CD
:10284600AC8C35EF14F01150D96EDA6A060ED92623
:10285600DFB430EF14F032EF14F035EF14F0AC9C27
:1028660035EF14F01200010E1E6E1C50D8A43EEF78
:1028760014F040EF14F044EF14F0000E1E6E6CEFEF
:1028860014F065C01FF01C50D96EDA6ADF500F0BCA
:102896001D6E1F501D18F80B1D181F6E1C50D96E8B
:1028A600DA6ADF38070B1D6E1D461D461D461F5092
:1028B6001D18C70B1D181F6E1F9C1C50D96EDA6A97
:1028C600DFAE02D01F8E01D01F9E1F0E196E09ECBF
:1028D60015F01E5012000850D8A474EF14F076EFCD
:1028E60014F078EF14F0A2EF14F064C00AF0085068
:1028F600D96EDA6ADF500F0B096E0A500918F80B09
:1029060009180A6E0850D96EDA6ADF38070B096EA5
:102916000946094609460A500918C70B09180A6EDE
:102926000A9C0850D96EDA6ADFAE02D00A8E01D050
:102936000A9E0A0E016E010E026EF9EC12F01200EA
:102946000850D8A4A9EF14F0ABEF14F0ADEF14F0D3
:10295600D7EF14F063C00AF00850D96EDA6ADF5078
:102966000F0B096E0A500918F80B09180A6E085061
:10297600D96EDA6ADF38070B096E09460946094639
:102986000A500918C70B09180A6E0A9C0850D96E16
:10299600DA6ADFAE02D00A8E01D00A9E0A0E016EF6
:1029A600000E026EF9EC12F01200A40EF66E2B0E5B
:1029B600F76E000EF86E00EEB4F010EE1EF0090091
:1029C600F5CFEEFFE550E150FAE1AA0EF66E2C0EB9
:1029D600F76E000EF86E00EE67F010EE05F00900D7
:1029E600F5CFEEFFE550E150FAE100EE80F0340E4F
:1029F600EE6AE806FDE100EE55F0120EEE6AE80614
:102A0600FDE16C906C9200012FEF16F0010E1B6E2B
:102A16001950D8B411EF15F013EF15F023EF15F098
:102A26001950D96EDA6ADF30E832E832070B1A6ECF
:102A3600070E1A6421EF15F023EF15F027EF15F0B6
:102A4600000E1B6E36EF15F019C011F065EC11F093
:102A560019C011F01950D96EDA6A000EDFBE010EE8
:102A6600126EEEEC11F01B501200800E0001D26FB8
:102A7600250ED36F000ED46F000ED56F000ED66FE5
:102A8600D881D895D883DA81DA95DA83000EDC6F9F
:102A9600000EDD6FBC0EDE6F2A0EDF6F000EE06FDC
:102AA600000EE16F000EE26F000EE36FD20E536E62
:102AB60083EC15F01200660E016EBBEC15F0630E8A
:102AC6006618D8A469EF15F06BEF15F072EF15F0E4
:102AD6006B0E086E6EEC14F0620E22EC16F0640EAD
:102AE6006618D8A479EF15F07BEF15F082EF15F094
:102AF6006B0E086EA3EC14F0610E22EC16F01200B9
:102B06005350D8A489EF15F08BEF15F08FEF15F021
:102B1600000E546EA1EF15F0AB9E948E948C53C0AC
:102B260048F00BEC08F053C011F0E2EC13F053C080
:102B360011F07CEC13F0AB8E010E546E5450120063
:102B460055505610D8B4AAEF15F0ACEF15F0BAEF01
:102B560015F002D8B8EF15F00500FA6E5550FD6E67
:102B66005650FE6EFF6AFA501200BAEF15F01200C8
:102B76000150D8A4C1EF15F0C3EF15F0C5EF15F05D
:102B8600D1EF15F09EAACAEF15F0CCEF15F0C3EF02
:102B960015F00150D96EDA6AAECFDFFF1200800F52
:102BA600810F820F830F840F890F8A0F8B0F8C0F73
:102BB6008D0F920F930F940F950F960F116EACA277
:102BC600E7EF15F0E9EF15F0E2EF15F09D8811C07B
:102BD600ADFF010E1200016EF2900104D8A4F6EFCB
:102BE60015F0F8EF15F0FAEF15F0FAEF15F0120000
:102BF600016EF2900104D8A403EF16F005EF16F06B
:102C060007EF16F007EF16F01200016EF2900104BE
:102C1600D8A410EF16F012EF16F014EF16F014EF1A
:102C260016F01200016EF2900104D8A41DEF16F002
:102C36001FEF16F021EF16F021EF16F01200016ECD
:102C4600ACA228EF16F02AEF16F023EF16F09D88B7
:102C560001C0ADFF010E12004CEC16F038EC15F079
:102C6600610EE1EC15F036EF16F007EF00F0A192D9
:102C76005850B36E57C0B2FF12009E905A50CF6E96
:102C860059C0CEFF1200F2945C50D76E5BC0D6FFDF
:102C960012006B0E1C6E36EC14F012009E925DC094
:092CA600CCFF1200010101010242
:102CB000F0921200F0961200F29212009D9812000B
:0C2CC000A19012009E9412009E9C120035
:020000040030CA
:0E000000FF071F1FFF8185FF0FC00FE00F409D
:00000001FF
