:0400000007EF00F016
:0A0008006C82D3ED0CF013EF15F03D
:10100000003738392F3435362A3132332D43303DCD
:051010002B2569000022
:10101600000E4D6E000E4E6E000E4F6E000E506EA0
:1010260029EF0AF0AC98AC94B8964A50D96EDA6AB1
:10103600DECF13F0DECF14F0DECF15F0DECF16F0E4
:10104600000E8BEC10F013C025F014C026F015C06E
:1010560027F016C028F0000E216E240E226EF40E24
:10106600236E4A0E246EBEEC0EF021C051F022C053
:1010760052F023C053F024C054F0000E256E000E2B
:10108600266E800E276E420E286E51C021F052C089
:1010960022F053C023F054C024F0BEEC0EF021C061
:1010A6003AF022C03BF023C03CF024C03DF0000ED5
:1010B6003E6E000E3F6E800E406EBF0E416E73ECAC
:1010C6000AF03AC04DF03BC04EF03CC04FF03DC078
:1010D60050F053EF0AF0AC98AC84B8964A50D96EEB
:1010E600DA6ADECF13F0DECF14F0DECF15F0DECFF6
:1010F60016F0000E8BEC10F013C025F014C026F08D
:1011060015C027F016C028F0000E216E240E226EA0
:10111600F40E236E4A0E246EBEEC0EF021C051F082
:1011260022C052F023C053F024C054F0000E256EA6
:10113600000E266E800E276E410E286E51C021F0DD
:1011460052C022F053C023F054C024F0BEEC0EF07F
:1011560021C03AF022C03BF023C03CF024C03DF051
:10116600000E3E6E000E3F6E800E406EBF0E416E4C
:1011760073EC0AF03AC04DF03BC04EF03CC04FF065
:101186003DC050F053EF0AF0AC98AC94B8864A5084
:10119600D96EDA6ADECF13F0DECF14F0DECF15F0AB
:1011A600DECF16F0000E8BEC10F013C025F014C045
:1011B60026F015C027F016C028F0000E216E240E6A
:1011C600226EF40E236E4A0E246EBEEC0EF021C083
:1011D60051F022C052F023C053F024C054F0000E48
:1011E600256E000E266E800E276E410E286E51C0AB
:1011F60021F052C022F053C023F054C024F0BEECBC
:101206000EF021C03AF022C03BF023C03CF024C0CF
:101216003DF0000E3E6E000E3F6E800E406EBF0E1D
:10122600416E73EC0AF03AC04DF03BC04EF03CC044
:101236004FF03DC050F053EF0AF0AC98AC84B8863E
:101246004A50D96EDA6ADECF13F0DECF14F0DECF65
:1012560015F0DECF16F0000E8BEC10F013C025F063
:1012660014C026F015C027F016C028F0000E216E17
:10127600240E226EF40E236E4A0E246EBEEC0EF081
:1012860021C051F022C052F023C053F024C054F0C4
:10129600000E256E000E266E800E276E400E286EFE
:1012A60051C021F052C022F053C023F054C024F0A4
:1012B600BEEC0EF021C03AF022C03BF023C03CF059
:1012C60024C03DF0000E3E6E000E3F6E800E406E56
:1012D600BF0E416E73EC0AF03AC04DF03BC04EF0C3
:1012E6003CC04FF03DC050F053EF0AF0AC88B896C2
:1012F6004A50D96EDA6ADECF13F0DECF14F0DECFB5
:1013060015F0DECF16F0000E8BEC10F013C025F0B2
:1013160014C026F015C027F016C028F0000E216E66
:10132600240E226EF40E236E4A0E246EBEEC0EF0D0
:1013360021C051F022C052F023C053F024C054F013
:10134600000E256E000E266E800E276E400E286E4D
:1013560051C021F052C022F053C023F054C024F0F3
:10136600BEEC0EF021C03AF022C03BF023C03CF0A8
:1013760024C03DF0000E3E6E000E3F6E800E406EA5
:10138600BF0E416E73EC0AF03AC04DF03BC04EF012
:101396003CC04FF03DC050F053EF0AF0AC88B88621
:1013A6004A50D96EDA6ADECF13F0DECF14F0DECF04
:1013B60015F0DECF16F0000E8BEC10F013C025F002
:1013C60014C026F015C027F016C028F0000E216EB6
:1013D600240E226EF40E236E4A0E246EBEEC0EF020
:1013E60021C051F022C052F023C053F024C054F063
:1013F600000E256E000E266E800E276E400E286E9D
:1014060051C021F052C022F053C023F054C024F042
:10141600BEEC0EF021C03AF022C03BF023C03CF0F7
:1014260024C03DF0000E3E6E000E3F6E800E406EF4
:10143600BF0E416E73EC0AF03AC04DF03BC04EF061
:101446003CC04FF03DC050F053EF0AF04A50D96E01
:10145600DA6A040ED926DF504B6E4C6A4C50000AED
:10146600D8B438EF0AF053EF0AF04B50000AD8B45C
:1014760015EF08F0010AD8B46EEF08F0030AD8B4E5
:10148600C7EF08F0010AD8B420EF09F0070AD8B46C
:1014960079EF09F0010AD8B4D1EF09F053EF0AF059
:1014A6004DC013F04EC014F04FC015F050C016F0EA
:1014B60076EC12F01350AF6E4DC013F04EC014F020
:1014C6004FC015F050C016F076EC12F014C013F0B1
:1014D60015C014F016C015F0166A1350B06E12003F
:1014E6003D50800B466E3D503D24486E3CAE7EEF2F
:1014F6000AF080EF0AF081EF0AF048804850D8B42D
:1015060087EF0AF089EF0AF09EEF0AF04828D8A480
:101516008FEF0AF091EF0AF099EF0AF0000E3A6E9B
:10152600000E3B6E000E3C6E000E3D6E3C8E000EB5
:101536003D6EA6EF0AF0000E3A6E000E3B6E000EF0
:101546003C6E000E3D6E4150800B476E465047186C
:10155600D8B4B0EF0AF0B2EF0AF0B3EF0AF0468C57
:1015660041504124476E40AEBBEF0AF0BDEF0AF092
:10157600BEEF0AF047804750D8B4C4EF0AF0C6EF72
:101586000AF0DBEF0AF04728D8A4CCEF0AF0CEEF3A
:101596000AF0D6EF0AF0000E3E6E000E3F6E000E09
:1015A600406E000E416E408E000E416EE3EF0AF073
:1015B600000E3E6E000E3F6E000E406E000E416E37
:1015C6004850475CD8B0EAEF0AF0ECEF0AF013EFA8
:1015D6000BF046ACF1EF0AF0F3EF0AF0F5EF0AF084
:1015E600800E461A48C049F047C048F049C047F047
:1015F6003AC049F03EC03AF049C03EF03BC049F01F
:101606003FC03BF049C03FF03CC049F040C03CF011
:1016160049C040F03DC049F041C03DF049C041F0ED
:10162600000E496E485047C042F0436A425E000EC3
:10163600435A43BE28EF0BF0435009E11A0E425CB1
:10164600D8A028EF0BF02AEF0BF061EF0BF03A5021
:101656003B103C103D10D8A433EF0BF036EF0BF0E7
:10166600010E37EF0BF0000E496E000E3A6E000EBB
:101676003B6E000E3C6E000E3D6E47C048F06AEFB2
:101686000BF049A049EF0BF04BEF0BF051EF0BF0CD
:10169600D89049300109496E53EF0BF0D890493282
:1016A6003AA058EF0BF05AEF0BF05BEF0BF0498EB8
:1016B6003D343D323C323B323A32482A4750485C50
:1016C600D8A068EF0BF06AEF0BF044EF0BF046BCC6
:1016D6006FEF0BF071EF0BF0B1EF0BF04850D8A4A1
:1016E60077EF0BF079EF0BF083EF0BF0000E3A6E0D
:1016F600000E3B6E000E3C6E000E3D6ED2EF0CF0FF
:101706003E503A263F503B2240503C2241503D221B
:101716003DA090EF0BF092EF0BF03EEF0CF049A0DE
:1017260097EF0BF099EF0BF09FEF0BF0D890493045
:101736000109496EA1EF0BF0D89049323AA0A6EF05
:101746000BF0A8EF0BF0A9EF0BF0498E3D343D32BC
:101756003C323B323A32482A3EEF0CF03E503A5C7D
:101766003F503B5840503C583D50800A426E4150D5
:10177600800A4258D8B0C2EF0BF0C4EF0BF0EFEF7F
:101786000BF03A503E5C426E3B503F58436E3C5025
:101796004058446E3D504158456EFF0E42243A6E05
:1017A600FF0E43203B6EFF0E44203C6EFF0E45208D
:1017B6003D6E800E461A496C4950D8A4E5EF0BF0F1
:1017C600E7EF0BF0F7EF0BF0010E3A26000E3B2287
:1017D6003C223D22F7EF0BF03E503A5E3F503B5A1B
:1017E60040503C5A41503D5A3A503B103C103D1037
:1017F600D8A400EF0CF002EF0CF037EF0CF04950D4
:10180600D8A408EF0CF00AEF0CF037EF0CF0000E3E
:101816003A6E000E3B6E000E3C6E000E3D6ED2EF31
:101826000CF0D8903A363B363C363D3649AE1EEF84
:101836000CF020EF0CF021EF0CF03A8049A026EFD7
:101846000CF028EF0CF02CEF0CF0D88049362EEF78
:101856000CF0D89049364850D8B434EF0CF036EF37
:101866000CF037EF0CF048063CAE3CEF0CF03EEFC8
:101876000CF014EF0CF0000E476E49AE45EF0CF07D
:1018860047EF0CF05FEF0CF049C042F07F0E4216B6
:10189600D8B450EF0CF052EF0CF056EF0CF0010EEE
:1018A600476E5FEF0CF03AA05BEF0CF05DEF0CF0CB
:1018B6005FEF0CF052EF0CF04750D8B465EF0CF028
:1018C60067EF0CF092EF0CF0010E3A26000E3B2269
:1018D6003C223D223DA072EF0CF074EF0CF092EF2B
:1018E6000CF03AC042F03BC043F03CC044F03DC06F
:1018F60045F04534453244324332423242C03AF032
:1019060043C03BF044C03CF045C03DF04828D8B445
:101916008FEF0CF091EF0CF092EF0CF0482A48286C
:10192600D8B498EF0CF09AEF0CF0A2EF0CF04850F8
:10193600D8A4A0EF0CF0A2EF0CF0B4EF0CF0000E60
:101946003A6E000E3B6E000E3C6E000E3D6E485029
:10195600D8A4B0EF0CF0B2EF0CF0B4EF0CF0000E20
:10196600466E48A0B9EF0CF0BBEF0CF0BEEF0CF0E2
:101976003C8EBFEF0CF03C9ED89048303D6E46AE94
:10198600C7EF0CF0C9EF0CF0CAEF0CF03D8E3AC071
:101996003AF03BC03BF03CC03CF03DC03DF012008D
:1019A6000600FACF0DF0FBCF0EF0D9CF0FF0DACF4D
:1019B60010F0F3CF11F0F4CF12F0F2A8E5EF0CF02F
:1019C600E7EF0CF0F0EF0CF0F2A2ECEF0CF0EEEF1C
:1019D6000CF0F0EF0CF063EC16F0F0A6F5EF0CF05F
:1019E600F7EF0CF000EF0DF0F0A0FCEF0CF0FEEFBF
:1019F6000CF000EF0DF061EC16F0F0A805EF0DF01D
:101A060007EF0DF010EF0DF0F0A20CEF0DF00EEF5A
:101A16000DF010EF0DF05FEC16F0F2A615EF0DF0DD
:101A260017EF0DF032EF0DF0F2A01CEF0DF01EEFE8
:101A36000DF032EF0DF081A823EF0DF025EF0DF03C
:101A460032EF0DF06A04D8A42BEF0DF02DEF0DF058
:101A560032EF0DF0000E6A6E010E1FEC16F0F2A6C4
:101A660037EF0DF039EF0DF054EF0DF0F2A03EEF29
:101A76000DF040EF0DF054EF0DF081B845EF0DF08D
:101A860047EF0DF054EF0DF06A50D8A44DEF0DF06E
:101A96004FEF0DF054EF0DF0010E6A6E000E1FECC5
:101AA60016F0F2A659EF0DF05BEF0DF076EF0DF0A4
:101AB600F2A060EF0DF062EF0DF076EF0DF081AA67
:101AC60067EF0DF069EF0DF076EF0DF06904D8A41D
:101AD6006FEF0DF071EF0DF076EF0DF0000E696E01
:101AE600010E12EC16F0F2A67BEF0DF07DEF0DF075
:101AF60098EF0DF0F2A082EF0DF084EF0DF098EF65
:101B06000DF081BA89EF0DF08BEF0DF098EF0DF027
:101B16006950D8A491EF0DF093EF0DF098EF0DF00A
:101B2600010E696E000E12EC16F0F2A69DEF0DF096
:101B36009FEF0DF0BAEF0DF0F2A0A4EF0DF0A6EFB7
:101B46000DF0BAEF0DF081ACABEF0DF0ADEF0DF08F
:101B5600BAEF0DF06804D8A4B3EF0DF0B5EF0DF0B1
:101B6600BAEF0DF0000E686E010E05EC16F0F2A647
:101B7600BFEF0DF0C1EF0DF0DCEF0DF0F2A0C6EFF8
:101B86000DF0C8EF0DF0DCEF0DF081BCCDEF0DF0E0
:101B9600CFEF0DF0DCEF0DF06850D8A4D5EF0DF0C7
:101BA600D7EF0DF0DCEF0DF0010E686E000E05ECC0
:101BB60016F0F2A6E1EF0DF0E3EF0DF0FEEF0DF0FB
:101BC600F2A0E8EF0DF0EAEF0DF0FEEF0DF081AEBA
:101BD600EFEF0DF0F1EF0DF0FEEF0DF06704D8A476
:101BE600F7EF0DF0F9EF0DF0FEEF0DF0000E676E5A
:101BF600010EF8EC15F0F2A603EF0EF005EF0EF06D
:101C060020EF0EF0F2A00AEF0EF00CEF0EF020EF30
:101C16000EF081BE11EF0EF013EF0EF020EF0EF076
:101C26006750D8A419EF0EF01BEF0EF020EF0EF060
:101C3600010E676E000EF8EC15F09DAC25EF0EF068
:101C460027EF0EF030EF0EF09EAC2CEF0EF02EEFDD
:101C56000EF030EF0EF06BEC16F0F2AA35EF0EF048
:101C660037EF0EF040EF0EF0F2A43CEF0EF03EEF31
:101C76000EF040EF0EF04DEC16F09DA045EF0EF085
:101C860047EF0EF050EF0EF09EA04CEF0EF04EEF29
:101C96000EF050EF0EF047EC16F09DA255EF0EF049
:101CA60057EF0EF060EF0EF09EA25CEF0EF05EEFC7
:101CB6000EF060EF0EF058EC16F0A0A265EF0EF0F5
:101CC60067EF0EF070EF0EF0A1A26CEF0EF06EEF64
:101CD6000EF070EF0EF041EC16F09DA475EF0EF0CD
:101CE60077EF0EF080EF0EF09EA47CEF0EF07EEF05
:101CF6000EF080EF0EF069EC16F0A0A085EF0EF066
:101D060087EF0EF090EF0EF0A1A08CEF0EF08EEFA5
:101D16000EF090EF0EF067EC16F09DA895EF0EF022
:101D260097EF0EF0A0EF0EF09EA89CEF0EF09EEF40
:101D36000EF0A0EF0EF065EC16F09DAAA5EF0EF0E2
:101D4600A7EF0EF0B0EF0EF09EAAACEF0EF0AEEFDE
:101D56000EF0B0EF0EF0B9EC15F012C0F4FF11C0A2
:101D6600F3FF10C0DAFF0FC0D9FF0EC0FBFF0DC096
:101D7600FAFF6C9211002450800B316E24502424FB
:101D8600386E23AEC9EF0EF0CBEF0EF0CCEF0EF0AF
:101D960038803850D8B4D2EF0EF0D4EF0EF0E9EF19
:101DA6000EF03828D8A4DAEF0EF0DCEF0EF0E4EFF0
:101DB6000EF0000E216E000E226E000E236E000E37
:101DC600246E238E000E246EF1EF0EF0000E216EAF
:101DD600000E226E000E236E000E246E2850800B1D
:101DE600311A28502824396E27AEFCEF0EF0FEEF8C
:101DF6000EF0FFEF0EF039803950D8B405EF0FF032
:101E060007EF0FF01CEF0FF03928D8A40DEF0FF0F5
:101E16000FEF0FF017EF0FF0000E256E000E266E77
:101E2600000E276E000E286E278E000E286E24EFF9
:101E36000FF0000E256E000E266E000E276E000EA9
:101E4600286E2550261027102810D8A42DEF0FF045
:101E56002FEF0FF047EF0FF0000E216E000E226EEF
:101E6600000E236E000E246E800E23127F0E2412A7
:101E76003150241221C021F022C022F023C023F0C9
:101E860024C024F08AEF10F03850D8A44DEF0FF09C
:101E96004FEF0FF059EF0FF0000E216E000E226E7D
:101EA600000E236E000E246E8AEF10F0395038C0F3
:101EB60029F02A6A295E000E2A5A7F0E2924326EDC
:101EC600000E2A20336E21C02DF022C02EF023C032
:101ED6002FF024C030F0000E216E000E226E000E90
:101EE600236E000E246E000E346E000E356E000E4C
:101EF600366E000E376E000E396EBAEF0FF039509F
:101F0600D8B488EF0FF08AEF0FF0A1EF0FF0D8905A
:101F16002D362E362F363036D890213622362336B9
:101F2600243637AE99EF0FF09BEF0FF09CEF0FF0D2
:101F36002180D890343635363636373625502D5CE6
:101F460026502E5827502F5828503058D8A0AEEF7C
:101F56000FF0B0EF0FF0B9EF0FF0378C25502D5E74
:101F660026502E5A27502F5A2850305A392A190EE1
:101F76003964C0EF0FF0C2EF0FF082EF0FF02D5073
:101F86002E102F103010D8B4CBEF0FF0CDEF0FF08E
:101F9600E5EF0FF03480E5EF0FF0D89021362236CA
:101FA6002336243637AEDAEF0FF0DCEF0FF0DDEF35
:101FB6000FF02180D890343635363636373632062D
:101FC600D8A0330623AEEAEF0FF0ECEF0FF0D0EF18
:101FD6000FF0000E396E37AEF3EF0FF0F5EF0FF09E
:101FE60019EF10F0FF0E3414296EFF0E35142A6E09
:101FF600FF0E36142B6E7F0E37142C6E29502A10C6
:102006002B102C10D8B40AEF10F00CEF10F010EFD4
:1020160010F0010E396E19EF10F021A015EF10F037
:1020260017EF10F019EF10F00CEF10F03950D8B48C
:102036001FEF10F021EF10F045EF10F0010E2126F2
:10204600000E22222322242224A02CEF10F02EEFB1
:1020560010F045EF10F021C029F022C02AF023C06D
:102066002BF024C02CF02C342C322B322A3229327D
:1020760029C021F02AC022F02BC023F02CC024F066
:10208600324A332A33BE50EF10F0335008E132287B
:10209600D8A050EF10F052EF10F05DEF10F0000EE8
:1020A600336E3268000E216E000E226E000E236E15
:1020B600000E246E33BE6AEF10F0335006E1320490
:1020C600D8B068EF10F06AEF10F078EF10F0000E5D
:1020D600336E000E326E000E216E000E226E000E62
:1020E600236E000E246E000E316E32C038F038A01A
:1020F6007FEF10F081EF10F084EF10F0238E85EF64
:1021060010F0239ED8903830246E3BEF0FF012006B
:102116001B6E1B50D8B492EF10F094EF10F0B6EF90
:1021260010F016BE9BEF10F099EF10F0B6EF10F01E
:1021360013C017F014C018F015C019F016C01AF025
:10214600171E181E191E1A1E172A000E18221922EB
:102156001A2217C01DF018C01EF019C01FF01AC0B1
:1021660020F0BEEF10F013C01DF014C01EF015C015
:102176001FF016C020F01350141015101610D8A416
:10218600C7EF10F0C9EF10F0D3EF10F0000E136E8A
:10219600000E146E000E156E000E166E64EF11F032
:1021A600960E1C6EDDEF10F01C2AD89020321F32DE
:1021B6001E321D32000E1D14176E000E1E14186EF0
:1021C600000E1F14196EFE0E20141A6E17501810EA
:1021D60019101A10D8A4F2EF10F0F4EF10F0D7EFA0
:1021E60010F002EF11F01C2A010E1D26000E1E2211
:1021F6001F222022D89020321F321E321D32000E9E
:102206001D14176E000E1E14186E000E1F14196E84
:10221600FF0E20141A6E1750181019101A10D8A491
:1022260017EF11F019EF11F0F6EF10F021EF11F0A2
:102236001C06D8901D361E361F3620361FBE26EFCA
:1022460011F028EF11F030EF11F0020E1C602EEFA6
:1022560011F030EF11F01BEF11F01CB035EF11F05B
:1022660037EF11F038EF11F01F9ED8901C321CC0CA
:1022760017F0186A196A1A6A17C01AF0196A186AE2
:10228600176A17501D1218501E1219501F121A5095
:1022960020121B50D8B452EF11F054EF11F05CEF3E
:1022A60011F016BE5BEF11F059EF11F05CEF11F073
:1022B600208E1DC013F01EC014F01FC015F020C0E4
:1022C60016F01200010E196E1350D8B46DEF11F00E
:1022D6006FEF11F07FEF11F01350D96EDA6ADF302D
:1022E600E832E832070B146E070E14647DEF11F026
:1022F6007FEF11F0D6EF11F0000E196EECEF11F032
:102306001350D96EDA6ADF30E832E832070B146E02
:10231600010E156E142A92EF11F0D8901536142E70
:1023260090EF11F01550FF0A166E1350D96EDA6A47
:10233600DF50070B020DF350CA0FD96EDA6ADECFF3
:1023460017F0DDCF18F017C0D9FF18C0DAFF165006
:10235600DF16ECEF11F01350D96EDA6ADF30E8328F
:10236600E832070B146E010E156E142ABDEF11F03C
:10237600D8901536142EBBEF11F01350D96EDA6AC9
:10238600DF50070B020DF350CA0FD96EDA6ADECFA3
:1023960016F0DDCF17F016C0D9FF17C0DAFF1550BB
:1023A600DF12ECEF11F01350D96EDA6ADFBCDEEF04
:1023B60011F0E1EF11F0010EE2EF11F0000E000A4C
:1023C600D8B483EF11F0010AD8B4AEEF11F07FEF65
:1023D60011F019501200010E1A6E1350D8B4F6EF10
:1023E60011F0F8EF11F008EF12F01350D96EDA6A17
:1023F600DF30E832E832070B156E070E156406EF7C
:1024060012F008EF12F05FEF12F0000E1A6E74EF82
:1024160012F01350D96EDA6ADF30E832E832070B71
:10242600156E010E166E152A1BEF12F0D890163691
:10243600152E19EF12F01650FF0A176E1350D96EAB
:10244600DA6ADF50070B020DF350C00FD96EDA6A55
:10245600DECF18F0DDCF19F018C0D9FF19C0DAFFAA
:102466001750DF1674EF12F01350D96EDA6ADF30A8
:10247600E832E832070B156E010E166E152A46EF86
:1024860012F0D8901636152E44EF12F01350D96E6E
:10249600DA6ADF50070B020DF350C00FD96EDA6A05
:1024A600DECF17F0DDCF18F017C0D9FF18C0DAFF5E
:1024B6001650DF1274EF12F01450156E166A16508D
:1024C600000AD8B469EF12F008EF12F01550000AAE
:1024D600D8B40CEF12F0010AD8B437EF12F008EFB7
:1024E60012F01A501200153416341C6E1C50D8A463
:1024F6007FEF12F081EF12F08BEF12F0000E136EE9
:10250600000E146E000E156E000E166EF8EF12F029
:1025160013C017F014C018F015C019F016C01AF041
:10252600200E9BEF12F0D8901A3219321832173259
:10253600E82E96EF12F017501B6E158EFF0E13162F
:10254600FF0E1416FF0E1516000E1616960E1C5EBE
:102556001CBEB2EF12F0B0EF12F0C8EF12F01C5032
:10256600800A970FD8B0BAEF12F0BCEF12F0BEEFA8
:1025760012F081EF12F0D89016321532143213325F
:102586001C3EBEEF12F0E0EF12F01F0E1C64CEEF01
:1025960012F0D0EF12F0D8EF12F081EF12F0D890CF
:1025A60013361436153616361C061C50D8A4DEEF24
:1025B60012F0E0EF12F0D2EF12F01B50D8B4E6EFB3
:1025C60012F0E8EF12F0F0EF12F0161E151E141EB0
:1025D600136C000E14221522162213C013F014C019
:1025E60014F015C015F016C016F012000150D8B43C
:1025F600FFEF12F001EF13F011EF13F00150D96E57
:10260600DA6ADF30E832E832070B036E070E03643E
:102616000FEF13F011EF13F066EF13F07BEF13F0EB
:102626000150D96EDA6ADF30E832E832070B036E02
:10263600010E046E032A22EF13F0D8900436032EFF
:1026460020EF13F00450FF0A056E0150D96EDA6AC6
:10265600DF50070B020DF350C00FD96EDA6ADECFDA
:1026660006F0DDCF07F006C0D9FF07C0DAFF055038
:10267600DF167BEF13F00150D96EDA6ADF30E832ED
:10268600E832070B036E010E046E032A4DEF13F0BA
:10269600D8900436032E4BEF13F00150D96EDA6A48
:1026A600DF50070B020DF350C00FD96EDA6ADECF8A
:1026B60005F0DDCF06F005C0D9FF06C0DAFF0450ED
:1026C600DF127BEF13F00250036E046A0450000A17
:1026D600D8B470EF13F011EF13F00350000AD8B41A
:1026E60013EF13F0010AD8B43EEF13F011EF13F015
:1026F60012001350D96EDA6A080ED926DFA086EFCB
:1027060013F088EF13F0E1EF13F0AB881350D96E96
:10271600DA6A0C0ED926DECF8AF0DDCF8BF01350A5
:10272600D96EDA6A0E0ED926DECF88F0DDCF89F0B3
:102736001350D96EDA6A100ED926DECF86F0DDCFB9
:1027460087F01350D96EDA6A080ED926DFA2AEEFEB
:1027560013F0B0EF13F0B6EF13F09D8A9D8AF28E58
:10276600F28CC3EF13F01350D96EDA6A080ED9262D
:10277600DFB2C0EF13F0C2EF13F0C3EF13F09D9A70
:102786001350D96EDA6A080ED926DFA4CDEF13F0FE
:10279600CFEF13F0D2EF13F0AB8CE1EF13F0135041
:1027A600D96EDA6A080ED926DFB4DCEF13F0DEEF55
:1027B60013F0E1EF13F0AB9CE1EF13F012001350AE
:1027C600D96EDA6A060ED926DFA0ECEF13F0EEEF2B
:1027D60013F035EF14F0AC8A1350D96EDA6A0A0E8C
:1027E600D926DECF8CF0DDCF8DF01350D96EDA6AA4
:1027F600060ED926DFA202EF14F004EF14F00AEF5A
:1028060014F09D889D88F28EF28C17EF14F0135009
:10281600D96EDA6A060ED926DFB214EF14F016EF77
:1028260014F017EF14F09D981350D96EDA6A060E5D
:10283600D926DFA421EF14F023EF14F026EF14F0CD
:10284600AC8C35EF14F01350D96EDA6A060ED92621
:10285600DFB430EF14F032EF14F035EF14F0AC9C27
:1028660035EF14F01200660E016ED2EC15F0610E13
:102876006618D8A441EF14F043EF14F055EF14F0A6
:102886006B0E086EA9EC14F0630E2CEC16F0060E17
:102896000C6E130E0B6EAE0EE82EFED70B2EFCD76B
:1028A6000C2EFAD7620E6618D8A45CEF14F05EEF11
:1028B60014F070EF14F06B0E086EDEEC14F0640E7C
:1028C6002CEC16F0060E0C6E130E0B6EAE0EE82EEA
:1028D600FED70B2EFCD70C2EFAD71200010E206E57
:1028E6001E50D8A479EF14F07BEF14F07FEF14F0AC
:1028F600000E206EA7EF14F065C021F01E50D96EB1
:10290600DA6ADF500F0B1F6E21501F18F80B1F18C5
:10291600216E1E50D96EDA6ADF38070B1F6E1F460E
:102926001F461F4621501F18C70B1F18216E219CDA
:102936001E50D96EDA6ADFAE02D0218E01D0219EFA
:10294600210E1B6E44EC15F0205012000850D8A43E
:10295600AFEF14F0B1EF14F0B3EF14F0DDEF14F0B5
:1029660064C00AF00850D96EDA6ADF500F0B096EA0
:102976000A500918F80B09180A6E0850D96EDA6A57
:10298600DF38070B096E0946094609460A50091839
:10299600C70B09180A6E0A9C0850D96EDA6ADFAEB0
:1029A60002D00A8E01D00A9E0A0E016E010E026E38
:1029B600F9EC12F012000850D8A4E4EF14F0E6EF98
:1029C60014F0E8EF14F012EF15F063C00AF00850A7
:1029D600D96EDA6ADF500F0B096E0A500918F80B28
:1029E60009180A6E0850D96EDA6ADF38070B096EC5
:1029F6000946094609460A500918C70B09180A6EFE
:102A06000A9C0850D96EDA6ADFAE02D00A8E01D06F
:102A16000A9E0A0E016E000E026EF9EC12F012000A
:102A2600D20EF66E2B0EF76E000EF86E00EEB6F0B6
:102A360010EE1EF00900F5CFEEFFE550E150FAE189
:102A4600B80EF66E2C0EF76E000EF86E00EE67F0FE
:102A560010EE05F00900F5CFEEFFE550E150FAE182
:102A660000EE80F0360EEE6AE806FDE100EE57F065
:102A7600100EEE6AE806FDE16C906C92000139EFEB
:102A860016F0010E1D6E1B50D8B44CEF15F04EEF2C
:102A960015F05EEF15F01B50D96EDA6ADF30E832BA
:102AA600E832070B1C6E070E1C645CEF15F05EEF38
:102AB60015F062EF15F0000E1D6E71EF15F01BC0DC
:102AC60013F065EC11F01BC013F01B50D96EDA6AD7
:102AD600000EDFBE010E146EEEEC11F01D5012005A
:102AE600800E0001D46F250ED56F000ED66F000E36
:102AF600D76F000ED86FDA81DA95DA83DC81DC9540
:102B0600DC83000EDE6F000EDF6F6C0EE06F280EAA
:102B1600E16F000EE26F000EE36F000EE46F000E31
:102B2600E56FD40E556E99EC15F012005550D8A4E9
:102B36009FEF15F0A1EF15F0A5EF15F0000E566EFC
:102B4600B7EF15F0AB9E948E948C55C04AF00BEC03
:102B560008F055C013F0E2EC13F055C013F07CEC0E
:102B660013F0AB8E010E566E5650120000018A51BC
:102B76008B11D8B4C1EF15F0C3EF15F0D1EF15F0F6
:102B860002D8CFEF15F00500FA6E8A51FD6E8B5113
:102B9600FE6EFF6AFA501200D1EF15F012000150D6
:102BA600D8A4D8EF15F0DAEF15F0DCEF15F0E8EF62
:102BB60015F09EAAE1EF15F0E3EF15F0DAEF15F048
:102BC6000150D96EDA6AAECFDFFF1200800F810F97
:102BD600820F830F840F890F8A0F8B0F8C0F8D0F37
:102BE600920F930F940F950F960F016EF2900104BA
:102BF600D8A400EF16F002EF16F004EF16F004EF7B
:102C060016F01200016EF2900104D8A40DEF16F032
:102C16000FEF16F011EF16F011EF16F01200016E1D
:102C2600F2900104D8A41AEF16F01CEF16F01EEF6E
:102C360016F01EEF16F01200016EF2900104D8A4F1
:102C460027EF16F029EF16F02BEF16F02BEF16F004
:102C56001200016EACA232EF16F034EF16F02DEF33
:102C660016F09D8801C0ADFF010E120053EC16F060
:102C760073EC15F03DEF16F007EF00F0A1925850F7
:102C8600B36E57C0B2FF12009E905A50CF6E59C015
:102C9600CEFF1200F2945C50D76E5BC0D6FF1200D6
:102CA6006B0E1E6E71EC14F012009E925DC0CCFF8E
:072CB60012000101010102FF
:102CBE00F0921200F0961200F29212009D981200FD
:0C2CCE00A19012009E9412009E9C120027
:020000040030CA
:0E000000FF071F1FFF8185FF0FC00FE00F409D
:00000001FF
