:0400000007EF00F016
:0A0008007E82A8ED0EF071EF14F0F7
:10100000003738392F3435362A3132332D43303DCD
:101010002B4C4544204F46460D004C4544204F4E36
:101020000D0025690000000E3C6E000E3D6E000EA6
:101030003E6E000E3F6E31EF0AF0AC98AC94B8965D
:101040003950D96EDA6ADECF02F0DECF03F0DECFA0
:1010500004F0DECF05F0000E5BEC10F002C014F0DF
:1010600003C015F004C016F005C017F0000E106E96
:10107000240E116EF40E126E4A0E136EDBEC0CF0A1
:1010800010C040F011C041F012C042F013C043F054
:10109000000E146E000E156E800E166E420E176E48
:1010A00040C010F041C011F042C012F043C013F034
:1010B000DBEC0CF010C029F011C02AF012C02BF0AC
:1010C00013C02CF0000E2D6E000E2E6E800E2F6EB3
:1010D000BF0E306E7BEC0AF029C03CF02AC03DF018
:1010E0002BC03EF02CC03FF05BEF0AF0AC98AC8414
:1010F000B8963950D96EDA6ADECF02F0DECF03F04F
:10110000DECF04F0DECF05F0000E5BEC10F002C085
:1011100014F003C015F004C016F005C017F0000E5F
:10112000106E240E116EF40E126E4A0E136EDBEC6E
:101130000CF010C040F011C041F012C042F013C0DA
:1011400043F0000E146E000E156E800E166E410EEA
:10115000176E40C010F041C011F042C012F043C001
:1011600013F0DBEC0CF010C029F011C02AF012C013
:101170002BF013C02CF0000E2D6E000E2E6E800E84
:101180002F6EBF0E306E7BEC0AF029C03CF02AC0F7
:101190003DF02BC03EF02CC03FF05BEF0AF0AC9866
:1011A000AC94B8863950D96EDA6ADECF02F0DECF61
:1011B00003F0DECF04F0DECF05F0000E5BEC10F0A4
:1011C00002C014F003C015F004C016F005C017F0FB
:1011D000000E106E240E116EF40E126E4A0E136E77
:1011E000DBEC0CF010C040F011C041F012C042F036
:1011F00013C043F0000E146E000E156E800E166EB6
:10120000410E176E40C010F041C011F042C012F004
:1012100043C013F0DBEC0CF010C029F011C02AF031
:1012200012C02BF013C02CF0000E2D6E000E2E6E8F
:10123000800E2F6EBF0E306E7BEC0AF029C03CF0A2
:101240002AC03DF02BC03EF02CC03FF05BEF0AF00F
:10125000AC98AC84B8863950D96EDA6ADECF02F029
:10126000DECF03F0DECF04F0DECF05F0000E5BEC46
:1012700010F002C014F003C015F004C016F005C051
:1012800017F0000E106E240E116EF40E126E4A0E40
:10129000136EDBEC0CF010C040F011C041F012C036
:1012A00042F013C043F0000E146E000E156E800E57
:1012B000166E400E176E40C010F041C011F042C0D3
:1012C00012F043C013F0DBEC0CF010C029F011C099
:1012D0002AF012C02BF013C02CF0000E2D6E000E61
:1012E0002E6E800E2F6EBF0E306E7BEC0AF029C082
:1012F0003CF02AC03DF02BC03EF02CC03FF05BEF2D
:101300000AF0AC88B8963950D96EDA6ADECF02F0AE
:10131000DECF03F0DECF04F0DECF05F0000E5BEC95
:1013200010F002C014F003C015F004C016F005C0A0
:1013300017F0000E106E240E116EF40E126E4A0E8F
:10134000136EDBEC0CF010C040F011C041F012C085
:1013500042F013C043F0000E146E000E156E800EA6
:10136000166E400E176E40C010F041C011F042C022
:1013700012F043C013F0DBEC0CF010C029F011C0E8
:101380002AF012C02BF013C02CF0000E2D6E000EB0
:101390002E6E800E2F6EBF0E306E7BEC0AF029C0D1
:1013A0003CF02AC03DF02BC03EF02CC03FF05BEF7C
:1013B0000AF0AC88B8863950D96EDA6ADECF02F00E
:1013C000DECF03F0DECF04F0DECF05F0000E5BECE5
:1013D00010F002C014F003C015F004C016F005C0F0
:1013E00017F0000E106E240E116EF40E126E4A0EDF
:1013F000136EDBEC0CF010C040F011C041F012C0D5
:1014000042F013C043F0000E146E000E156E800EF5
:10141000166E400E176E40C010F041C011F042C071
:1014200012F043C013F0DBEC0CF010C029F011C037
:101430002AF012C02BF013C02CF0000E2D6E000EFF
:101440002E6E800E2F6EBF0E306E7BEC0AF029C020
:101450003CF02AC03DF02BC03EF02CC03FF05BEFCB
:101460000AF03950D96EDA6A040ED926DF503A6E86
:101470003B6A3B50000AD8B440EF0AF05BEF0AF039
:101480003A50000AD8B41DEF08F0010AD8B476EF3C
:1014900008F0030AD8B4CFEF08F0010AD8B428EF57
:1014A00009F0070AD8B481EF09F0010AD8B4D9EFDE
:1014B00009F05BEF0AF03CC002F03DC003F03EC013
:1014C00004F03FC005F046EC12F00250AF6E3CC095
:1014D00002F03DC003F03EC004F03FC005F046EC12
:1014E00012F003C002F004C003F005C004F0056A66
:1014F0000250B06E12002C50800B356E2C502C24F4
:10150000376E2BAE86EF0AF088EF0AF089EF0AF00B
:1015100037803750D8B48FEF0AF091EF0AF0A6EF7A
:101520000AF03728D8A497EF0AF099EF0AF0A1EF54
:101530000AF0000E296E000E2A6E000E2B6E000EB1
:101540002C6E2B8E000E2C6EAEEF0AF0000E296E64
:10155000000E2A6E000E2B6E000E2C6E3050800B8B
:10156000366E35503618D8B4B8EF0AF0BAEF0AF034
:10157000BBEF0AF0358C30503024366E2FAEC3EFFF
:101580000AF0C5EF0AF0C6EF0AF036803650D8B43C
:10159000CCEF0AF0CEEF0AF0E3EF0AF03628D8A439
:1015A000D4EF0AF0D6EF0AF0DEEF0AF0000E2D6E4F
:1015B000000E2E6E000E2F6E000E306E2F8E000E5F
:1015C000306EEBEF0AF0000E2D6E000E2E6E000E48
:1015D0002F6E000E306E3750365CD8B0F2EF0AF046
:1015E000F4EF0AF01BEF0BF035ACF9EF0AF0FBEF6C
:1015F0000AF0FDEF0AF0800E351A37C038F036C019
:1016000037F038C036F029C038F02DC029F038C086
:101610002DF02AC038F02EC02AF038C02EF02BC092
:1016200038F02FC02BF038C02FF02CC038F030C06D
:101630002CF038C030F0000E386E375036C031F024
:10164000326A315E000E325A32BE30EF0BF0325049
:1016500009E11A0E315CD8A030EF0BF032EF0BF03D
:1016600069EF0BF029502A102B102C10D8A43BEF57
:101670000BF03EEF0BF0010E3FEF0BF0000E386E5B
:10168000000E296E000E2A6E000E2B6E000E2C6EC0
:1016900036C037F072EF0BF038A051EF0BF053EF7C
:1016A0000BF059EF0BF0D89038300109386E5BEF32
:1016B0000BF0D890383229A060EF0BF062EF0BF0FE
:1016C00063EF0BF0388E2C342C322B322A32293235
:1016D000372A3650375CD8A070EF0BF072EF0BF062
:1016E0004CEF0BF035BC77EF0BF079EF0BF0B9EF67
:1016F0000BF03750D8A47FEF0BF081EF0BF08BEF9E
:101700000BF0000E296E000E2A6E000E2B6E000EDE
:101710002C6EDAEF0CF02D5029262E502A222F5055
:101720002B2230502C222CA098EF0BF09AEF0BF0CC
:1017300046EF0CF038A09FEF0BF0A1EF0BF0A7EFF6
:101740000BF0D89038300109386EA9EF0BF0D89023
:10175000383229A0AEEF0BF0B0EF0BF0B1EF0BF089
:10176000388E2C342C322B322A322932372A46EF4B
:101770000CF02D50295C2E502A582F502B582C50ED
:10178000800A316E3050800A3158D8B0CAEF0BF061
:10179000CCEF0BF0F7EF0BF029502D5C316E2A5097
:1017A0002E58326E2B502F58336E2C503058346ECA
:1017B000FF0E3124296EFF0E32202A6EFF0E3320D9
:1017C0002B6EFF0E34202C6E800E351A386C38507C
:1017D000D8A4EDEF0BF0EFEF0BF0FFEF0BF0010EE5
:1017E0002926000E2A222B222C22FFEF0BF02D504F
:1017F000295E2E502A5A2F502B5A30502C5A2950DD
:101800002A102B102C10D8A408EF0CF00AEF0CF0C3
:101810003FEF0CF03850D8A410EF0CF012EF0CF0A2
:101820003FEF0CF0000E296E000E2A6E000E2B6E9C
:10183000000E2C6EDAEF0CF0D89029362A362B36B3
:101840002C3638AE26EF0CF028EF0CF029EF0CF018
:10185000298038A02EEF0CF030EF0CF034EF0CF0B4
:10186000D880383636EF0CF0D89038363750D8B4A8
:101870003CEF0CF03EEF0CF03FEF0CF037062BAED8
:1018800044EF0CF046EF0CF01CEF0CF0000E366E3F
:1018900038AE4DEF0CF04FEF0CF067EF0CF038C0A6
:1018A00031F07F0E3116D8B458EF0CF05AEF0CF02F
:1018B0005EEF0CF0010E366E67EF0CF029A063EFBF
:1018C0000CF065EF0CF067EF0CF05AEF0CF03650AF
:1018D000D8B46DEF0CF06FEF0CF09AEF0CF0010E36
:1018E0002926000E2A222B222C222CA07AEF0CF083
:1018F0007CEF0CF09AEF0CF029C031F02AC032F0E6
:101900002BC033F02CC034F0343434323332323222
:10191000313231C029F032C02AF033C02BF034C04C
:101920002CF03728D8B497EF0CF099EF0CF09AEF21
:101930000CF0372A3728D8B4A0EF0CF0A2EF0CF047
:10194000AAEF0CF03750D8A4A8EF0CF0AAEF0CF0D7
:10195000BCEF0CF0000E296E000E2A6E000E2B6EEE
:10196000000E2C6E3750D8A4B8EF0CF0BAEF0CF084
:10197000BCEF0CF0000E356E37A0C1EF0CF0C3EFDA
:101980000CF0C6EF0CF02B8EC7EF0CF02B9ED8900E
:1019900037302C6E35AECFEF0CF0D1EF0CF0D2EF2C
:1019A0000CF02C8E29C029F02AC02AF02BC02BF075
:1019B0002CC02CF012001350800B206E13501324F7
:1019C000276E12AEE6EF0CF0E8EF0CF0E9EF0CF04A
:1019D00027802750D8B4EFEF0CF0F1EF0CF006EFB2
:1019E0000DF02728D8A4F7EF0CF0F9EF0CF001EF79
:1019F0000DF0000E106E000E116E000E126E000E35
:101A0000136E128E000E136E0EEF0DF0000E106EA0
:101A1000000E116E000E126E000E136E1750800B2A
:101A2000201A17501724286E16AE19EF0DF01BEF71
:101A30000DF01CEF0DF028802850D8B422EF0DF0E7
:101A400024EF0DF039EF0DF02828D8A42AEF0DF07F
:101A50002CEF0DF034EF0DF0000E146E000E156E2D
:101A6000000E166E000E176E168E000E176E41EFEA
:101A70000DF0000E146E000E156E000E166E000EA8
:101A8000176E1450151016101710D8A44AEF0DF049
:101A90004CEF0DF064EF0DF0000E106E000E116EA5
:101AA000000E126E000E136E800E12127F0E1312B5
:101AB0002050131210C010F011C011F012C012F01B
:101AC00013C013F0A7EF0EF02750D8A46AEF0DF063
:101AD0006CEF0DF076EF0DF0000E106E000E116E33
:101AE000000E126E000E136EA7EF0EF0285027C0E6
:101AF00018F0196A185E000E195A7F0E1824216E0C
:101B0000000E1920226E10C01CF011C01DF012C072
:101B10001EF013C01FF0000E106E000E116E000EAE
:101B2000126E000E136E000E236E000E246E000E59
:101B3000256E000E266E000E286ED7EF0DF0285091
:101B4000D8B4A5EF0DF0A7EF0DF0BEEF0DF0D890D3
:101B50001C361D361E361F36D890103611361236FA
:101B6000133626AEB6EF0DF0B8EF0DF0B9EF0DF06D
:101B70001080D890233624362536263614501C5C27
:101B800015501D5816501E5817501F58D8A0CBEF8F
:101B90000DF0CDEF0DF0D6EF0DF0268C14501C5E3D
:101BA00015501D5A16501E5A17501F5A282A190E22
:101BB0002864DDEF0DF0DFEF0DF09FEF0DF01C500E
:101BC0001D101E101F10D8B4E8EF0DF0EAEF0DF055
:101BD00002EF0EF0238002EF0EF0D890103611368F
:101BE0001236133626AEF7EF0DF0F9EF0DF0FAEFDF
:101BF0000DF01080D890233624362536263621065F
:101C0000D8A0220612AE07EF0EF009EF0EF0EDEFAE
:101C10000DF0000E286E26AE10EF0EF012EF0EF053
:101C200036EF0EF0FF0E2314186EFF0E2414196EFB
:101C3000FF0E25141A6E7F0E26141B6E18501910F5
:101C40001A101B10D8B427EF0EF029EF0EF02DEF6D
:101C50000EF0010E286E36EF0EF010A032EF0EF0EF
:101C600034EF0EF036EF0EF029EF0EF02850D8B416
:101C70003CEF0EF03EEF0EF062EF0EF0010E10267C
:101C8000000E11221222132213A049EF0EF04BEF87
:101C90000EF062EF0EF010C018F011C019F012C073
:101CA0001AF013C01BF01B341B321A3219321832CF
:101CB00018C010F019C011F01AC012F01BC013F0B8
:101CC000214A222A22BE6DEF0EF0225008E121287F
:101CD000D8A06DEF0EF06FEF0EF07AEF0EF0000E61
:101CE000226E2168000E106E000E116E000E126E34
:101CF000000E136E22BE87EF0EF0225006E1210483
:101D0000D8B085EF0EF087EF0EF095EF0EF0000ED5
:101D1000226E000E216E000E106E000E116E000E6F
:101D2000126E000E136E000E206E21C027F027A049
:101D30009CEF0EF09EEF0EF0A1EF0EF0128EA2EFD0
:101D40000EF0129ED8902730136E58EF0DF012004F
:101D50000600F2A8AEEF0EF0B0EF0EF0B9EF0EF005
:101D6000F2A2B5EF0EF0B7EF0EF0B9EF0EF0A5EC62
:101D700015F0F0A6BEEF0EF0C0EF0EF0C9EF0EF0BA
:101D8000F0A0C5EF0EF0C7EF0EF0C9EF0EF0A3EC18
:101D900015F0F0A8CEEF0EF0D0EF0EF0D9EF0EF068
:101DA000F0A2D5EF0EF0D7EF0EF0D9EF0EF0A1ECC8
:101DB00015F0F2A6DEEF0EF0E0EF0EF0FBEF0EF006
:101DC000F2A0E5EF0EF0E7EF0EF0FBEF0EF081A8CA
:101DD000ECEF0EF0EEEF0EF0FBEF0EF07C04D8A46B
:101DE000F4EF0EF0F6EF0EF0FBEF0EF0000E7C6E4F
:101DF000010E6AEC15F0F2A600EF0FF002EF0FF003
:101E00001DEF0FF0F2A007EF0FF009EF0FF01DEF3D
:101E10000FF081B80EEF0FF010EF0FF01DEF0FF085
:101E20007C50D8A416EF0FF018EF0FF01DEF0FF055
:101E3000010E7C6E000E6AEC15F0F2A622EF0FF098
:101E400024EF0FF03FEF0FF0F2A029EF0FF02BEF90
:101E50000FF03FEF0FF081AA30EF0FF032EF0FF0ED
:101E60003FEF0FF07B04D8A438EF0FF03AEF0FF0FC
:101E70003FEF0FF0000E7B6E010E5DEC15F0F2A649
:101E800044EF0FF046EF0FF061EF0FF0F2A04BEFD1
:101E90000FF04DEF0FF061EF0FF081BA52EF0FF03E
:101EA00054EF0FF061EF0FF07B50D8A45AEF0FF012
:101EB0005CEF0FF061EF0FF0010E7B6E000E5DEC3A
:101EC00015F0F2A666EF0FF068EF0FF083EF0FF05A
:101ED000F2A06DEF0FF06FEF0FF083EF0FF081AC1A
:101EE00074EF0FF076EF0FF083EF0FF07A04D8A4C1
:101EF0007CEF0FF07EEF0FF083EF0FF0000E7A6EA5
:101F0000010E50EC15F0F2A688EF0FF08AEF0FF0FB
:101F1000A5EF0FF0F2A08FEF0FF091EF0FF0A5EF0C
:101F20000FF081BC96EF0FF098EF0FF0A5EF0FF0D8
:101F30007A50D8A49EEF0FF0A0EF0FF0A5EF0FF0AE
:101F4000010E7A6E000E50EC15F0F2A6AAEF0FF01B
:101F5000ACEF0FF0C7EF0FF0F2A0B1EF0FF0B3EF5F
:101F60000FF0C7EF0FF081AEB8EF0FF0BAEF0FF040
:101F7000C7EF0FF07904D8A4C0EF0FF0C2EF0FF055
:101F8000C7EF0FF0000E796E010E43EC15F0F2A6CC
:101F9000CCEF0FF0CEEF0FF0E9EF0FF0F2A0D3EFA0
:101FA0000FF0D5EF0FF0E9EF0FF081BEDAEF0FF091
:101FB000DCEF0FF0E9EF0FF07950D8A4E2EF0FF06B
:101FC000E4EF0FF0E9EF0FF0010E796E000E43EC35
:101FD00015F09DACEEEF0FF0F0EF0FF0F9EF0FF012
:101FE0009EACF5EF0FF0F7EF0FF0F9EF0FF0ABEC61
:101FF00015F0F2AAFEEF0FF000EF10F009EF10F06D
:10200000F2A405EF10F007EF10F009EF10F08FECDD
:1020100015F09DA00EEF10F010EF10F019EF10F07A
:102020009EA015EF10F017EF10F019EF10F089ECEB
:1020300015F09DA21EEF10F020EF10F029EF10F028
:102040009EA225EF10F027EF10F029EF10F09AEC88
:1020500015F0A0A22EEF10F030EF10F039EF10F0D5
:10206000A1A235EF10F037EF10F039EF10F083EC4C
:1020700015F09DA43EEF10F040EF10F049EF10F086
:102080009EA445EF10F047EF10F049EF10F0A9ECD7
:1020900015F0A0A04EEF10F050EF10F059EF10F037
:1020A000A1A055EF10F057EF10F059EF10F0A7EC8A
:1020B00015F07E9211000A6E0A50D8B462EF10F04B
:1020C00064EF10F086EF10F005BE6BEF10F069EFD3
:1020D00010F086EF10F002C006F003C007F004C055
:1020E00008F005C009F0061E071E081E091E062A74
:1020F000000E07220822092206C00CF007C00DF0CE
:1021000008C00EF009C00FF08EEF10F002C00CF006
:1021100003C00DF004C00EF005C00FF00250031014
:1021200004100510D8A497EF10F099EF10F0A3EF6A
:1021300010F0000E026E000E036E000E046E000E14
:10214000056E34EF11F0960E0B6EADEF10F00B2A0A
:10215000D8900F320E320D320C32000E0C14066E77
:10216000000E0D14076E000E0E14086EFE0E0F14F6
:10217000096E0650071008100910D8A4C2EF10F01D
:10218000C4EF10F0A7EF10F0D2EF10F00B2A010E01
:102190000C26000E0D220E220F22D8900F320E3286
:1021A0000D320C32000E0C14066E000E0D14076E6C
:1021B000000E0E14086EFF0E0F14096E0650071065
:1021C00008100910D8A4E7EF10F0E9EF10F0C6EFFF
:1021D00010F0F1EF10F00B06D8900C360D360E36DD
:1021E0000F360EBEF6EF10F0F8EF10F000EF11F022
:1021F000020E0B60FEEF10F000EF11F0EBEF10F0AD
:102200000BB005EF11F007EF11F008EF11F00E9E83
:10221000D8900B320BC006F0076A086A096A06C03C
:1022200009F0086A076A066A06500C1207500D1278
:1022300008500E1209500F120A50D8B422EF11F0B4
:1022400024EF11F02CEF11F005BE2BEF11F029EF68
:1022500011F02CEF11F00F8E0CC002F00DC003F046
:102260000EC004F00FC005F01200010E086E0250FF
:10227000D8B43DEF11F03FEF11F04FEF11F00250E5
:10228000D96EDA6ADF30E832E832070B036E070EE8
:1022900003644DEF11F04FEF11F0A6EF11F0000EB7
:1022A000086EBCEF11F00250D96EDA6ADF30E83206
:1022B000E832070B036E010E046E032A62EF11F081
:1022C000D8900436032E60EF11F00450FF0A056E1B
:1022D0000250D96EDA6ADF50070B020DF350B20FCD
:1022E000D96EDA6ADECF06F0DDCF07F006C0D9FF7F
:1022F00007C0DAFF0550DF16BCEF11F00250D96EAF
:10230000DA6ADF30E832E832070B036E010E046E42
:10231000032A8DEF11F0D8900436032E8BEF11F0C5
:102320000250D96EDA6ADF50070B020DF350B20F7C
:10233000D96EDA6ADECF05F0DDCF06F005C0D9FF31
:1023400006C0DAFF0450DF12BCEF11F00250D96E64
:10235000DA6ADFBCAEEF11F0B1EF11F0010EB2EFAF
:1023600011F0000E000AD8B453EF11F0010AD8B4EE
:102370007EEF11F04FEF11F008501200010E096EC0
:102380000250D8B4C6EF11F0C8EF11F0D8EF11F039
:102390000250D96EDA6ADF30E832E832070B046E99
:1023A000070E0464D6EF11F0D8EF11F02FEF12F002
:1023B000000E096E44EF12F00250D96EDA6ADF3077
:1023C000E832E832070B046E010E056E042AEBEFCB
:1023D00011F0D8900536042EE9EF11F00550FF0AF0
:1023E000066E0250D96EDA6ADF50070B020DF35009
:1023F000A80FD96EDA6ADECF07F0DDCF08F007C08C
:10240000D9FF08C0DAFF0650DF1644EF12F0025081
:10241000D96EDA6ADF30E832E832070B046E010E5B
:10242000056E042A16EF12F0D8900536042E14EF2C
:1024300012F00250D96EDA6ADF50070B020DF3502A
:10244000A80FD96EDA6ADECF06F0DDCF07F006C03E
:10245000D9FF07C0DAFF0550DF1244EF12F0035036
:10246000046E056A0550000AD8B439EF12F0D8EFAF
:1024700011F00450000AD8B4DCEF11F0010AD8B40E
:1024800007EF12F0D8EF11F00950120004340534B0
:102490000B6E0B50D8A44FEF12F051EF12F05BEF20
:1024A00012F0000E026E000E036E000E046E000E9F
:1024B000056EC8EF12F002C006F003C007F004C0BA
:1024C00008F005C009F0200E6BEF12F0D890093229
:1024D000083207320632E82E66EF12F006500A6E16
:1024E000048EFF0E0216FF0E0316FF0E0416000EDA
:1024F0000516960E0B5E0BBE82EF12F080EF12F007
:1025000098EF12F00B50800A970FD8B08AEF12F0B4
:102510008CEF12F08EEF12F051EF12F0D8900532DE
:102520000432033202320B3E8EEF12F0B0EF12F0A3
:102530001F0E0B649EEF12F0A0EF12F0A8EF12F046
:1025400051EF12F0D89002360336043605360B06EA
:102550000B50D8A4AEEF12F0B0EF12F0A2EF12F0D1
:102560000A50D8B4B6EF12F0B8EF12F0C0EF12F084
:10257000051E041E031E026C000E03220422052207
:1025800002C002F003C003F004C004F005C005F06F
:1025900012000250D96EDA6A060ED926DFA0D3EFF8
:1025A00012F0D5EF12F010EF13F0AC8A0250D96E92
:1025B000DA6A060ED926DFA2E0EF12F0E2EF12F09F
:1025C000E5EF12F09D88F2EF12F00250D96EDA6A50
:1025D000060ED926DFB2EFEF12F0F1EF12F0F2EFB4
:1025E00012F09D980250D96EDA6A060ED926DFA441
:1025F000FCEF12F0FEEF12F001EF13F0AC8C10EFD5
:1026000013F00250D96EDA6A060ED926DFB40BEF4A
:1026100013F00DEF13F010EF13F0AC9C10EF13F06C
:1026200012000250D96EDA6A080ED926DFA01BEF1D
:1026300013F01DEF13F058EF13F0AB880250D96E72
:10264000DA6A080ED926DFA228EF13F02AEF13F07A
:102650002DEF13F09D8A3AEF13F00250D96EDA6A2B
:10266000080ED926DFB237EF13F039EF13F03AEF47
:1026700013F09D9A0250D96EDA6A080ED926DFA4AB
:1026800044EF13F046EF13F049EF13F0AB8C58EF23
:1026900013F00250D96EDA6A080ED926DFB453EF70
:1026A00013F055EF13F058EF13F0AB9C58EF13F005
:1026B000120095EC15F0D1EC14F0780E026E16ECC9
:1026C00015F0586E5804D8A468EF13F06AEF13F0B1
:1026D0005DEF13F0410E7818D8A471EF13F073EF8B
:1026E00013F081EF13F07D0E0A6ED4EC13F01A0E86
:1026F000036E000E056E070E046E3EEC14F05DEFE7
:1027000013F0420E7818D8A488EF13F08AEF13F074
:1027100098EF13F07D0E0A6E09EC14F0110E036EA3
:10272000000E056E080E046E3EEC14F05DEF13F023
:102730005DEF13F007EF00F0010E0F6E0D50D8A4FF
:10274000A4EF13F0A6EF13F0AAEF13F0000E0F6E34
:10275000D2EF13F077C010F00D50D96EDA6ADF5067
:102760000F0B0E6E10500E18F80B0E18106E0D5049
:10277000D96EDA6ADF38070B0E6E0E460E460E462D
:1027800010500E18C70B0E18106E109C0D50D96EFD
:10279000DA6ADFAE02D0108E01D0109E100E0A6EE3
:1027A000A2EC14F00F5012000A50D8A4DAEF13F084
:1027B000DCEF13F0DEEF13F008EF14F076C00CF04E
:1027C0000A50D96EDA6ADF500F0B0B6E0C500B18E3
:1027D000F80B0B180C6E0A50D96EDA6ADF38070B4B
:1027E0000B6E0B460B460B460C500B18C70B0B1809
:1027F0000C6E0C9C0A50D96EDA6ADFAE02D00C8ED9
:1028000001D00C9E0C0E026E010E036EBEEC11F098
:1028100012000A50D8A40FEF14F011EF14F013EFC8
:1028200014F03DEF14F075C00CF00A50D96EDA6A5E
:10283000DF500F0B0B6E0C500B18F80B0B180C6EB7
:102840000A50D96EDA6ADF38070B0B6E0B460B465F
:102850000B460C500B18C70B0B180C6E0C9C0A5037
:10286000D96EDA6ADFAE02D00C8E01D00C9E0C0E4F
:10287000026E000E036EBEEC11F012000350D8A4DD
:1028800044EF14F046EF14F04AEF14F0000E076E18
:102890006FEF14F0000E096E000E086E000E096E48
:1028A000000E086E62EF14F003500824066E06C096
:1028B000F6FF100EF76EF86A0800F55077EC15F089
:1028C000084A092A0450085C05500958D8A06BEF43
:1028D00014F06DEF14F054EF14F0010E076E075072
:1028E0001200680EF66E2A0EF76E000EF86E00EEFD
:1028F0009EF010EE1EF00900F5CFEEFFE550E1501E
:10290000FAE13C0EF66E2B0EF76E000EF86E00EE3E
:1029100079F010EE05F00900F5CFEEFFE550E1503B
:10292000FAE100EE80F01E0EEE6AE806FDE100EE30
:1029300059F0200EEE6AE806FDE17E907E920001DD
:1029400059EF13F0010E0C6E0A50D8B4AAEF14F030
:10295000ACEF14F0BCEF14F00A50D96EDA6ADF3035
:10296000E832E832070B0B6E070E0B64BAEF14F077
:10297000BCEF14F0C0EF14F0000E0C6ECFEF14F0AB
:102980000AC002F035EC11F00AC002F00A50D96E0C
:10299000DA6A000EDFBE010E036EBEEC11F00C50C1
:1029A0001200800E466E250E476E000E486E000E19
:1029B000496E000E4A6E4C804C944C924E804E9460
:1029C0004E92000E546E000E556E000E566E000EA6
:1029D000576E000E526E000E536E000E506E000EBB
:1029E000516E460E446EF6EC14F012004450D8A41A
:1029F000FCEF14F0FEEF14F002EF15F0000E456E40
:102A000014EF15F0AB9E948E948C44C039F013EC07
:102A100008F044C002F0C9EC12F044C002F011EC1E
:102A200013F0AB8E010E456E45501200000E036E82
:102A30000250D8A41EEF15F020EF15F024EF15F08A
:102A4000000E036E32EF15F09EAA29EF15F02BEF62
:102A500015F032EF15F00250D96EDA6AAECFDFFF13
:102A6000010E036E03501200800F810F820F830F3F
:102A7000840F890F8A0F8B0F8C0F8D0F920F930F7E
:102A8000940F950F960F016EF2900104D8A44BEFAE
:102A900015F04DEF15F04FEF15F04FEF15F0120058
:102AA000016EF2900104D8A458EF15F05AEF15F01A
:102AB0005CEF15F05CEF15F01200016EF29001046E
:102AC000D8A465EF15F067EF15F069EF15F069EF21
:102AD00015F01200016EF2900104D8A472EF15F007
:102AE00074EF15F076EF15F076EF15F01200026E28
:102AF000ACA27DEF15F07FEF15F078EF15F002C076
:102B0000ADFF010E1200A1925A50B36E59C0B2FF30
:102B100012009E905C50CF6E5BC0CEFF1200F2940C
:102B20005E50D76E5DC0D6FF12007D0E0D6E9CEC20
:102B300013F012009E926FC0CCFF12000101010140
:012B40000292
:102B4200F0921200F0961200F2921200A19012007E
:082B52009E9412009E9C1200EB
:020000040030CA
:0E000000FF071F1FFF8185FF0FC00FE00F409D
:00000001FF
