:0400000007EF00F016
:0A0008007C8216ED08F022EF0BF0E9
:10100000003738392F3435362A3132332D43303DCD
:101010002B44617465203A200054696D653A2000C4
:0B102000446174653A2000256900005F
:10102C000600FACF6AF0FBCF6BF0F2A820EF08F0C5
:10103C0022EF08F02BEF08F0F2A227EF08F029EFCF
:10104C0008F02BEF08F0A3EC0CF0F0A630EF08F052
:10105C0032EF08F03BEF08F0F0A037EF08F039EF73
:10106C0008F03BEF08F0A1EC0CF0F0A840EF08F012
:10107C0042EF08F04BEF08F0F0A247EF08F049EF11
:10108C0008F04BEF08F09FEC0CF0F2A650EF08F0D4
:10109C0052EF08F06DEF08F0F2A057EF08F059EF9F
:1010AC0008F06DEF08F081A85EEF08F060EF08F033
:1010BC006DEF08F07904D8A466EF08F068EF08F03B
:1010CC006DEF08F0000E796E010E71EC0CF0F2A6CB
:1010DC0072EF08F074EF08F08FEF08F0F2A079EFE0
:1010EC0008F07BEF08F08FEF08F081B880EF08F084
:1010FC0082EF08F08FEF08F07950D8A488EF08F051
:10110C008AEF08F08FEF08F0010E796E000E71EC8B
:10111C000CF0F2A694EF08F096EF08F0B1EF08F09F
:10112C00F2A09BEF08F09DEF08F0B1EF08F081AA58
:10113C00A2EF08F0A4EF08F0B1EF08F07804D8A4FF
:10114C00AAEF08F0ACEF08F0B1EF08F0000E786EE3
:10115C00010E64EC0CF0F2A6B6EF08F0B8EF08F054
:10116C00D3EF08F0F2A0BDEF08F0BFEF08F0D3EF1B
:10117C0008F081BAC4EF08F0C6EF08F0D3EF08F01E
:10118C007850D8A4CCEF08F0CEEF08F0D3EF08F0ED
:10119C00010E786E000E64EC0CF0F2A6D8EF08F09D
:1011AC00DAEF08F0F5EF08F0F2A0DFEF08F0E1EF6E
:1011BC0008F0F5EF08F081ACE6EF08F0E8EF08F086
:1011CC00F5EF08F07704D8A4EEEF08F0F0EF08F094
:1011DC00F5EF08F0000E776E010E57EC0CF0F2A64E
:1011EC00FAEF08F0FCEF08F017EF09F0F2A001EFAE
:1011FC0009F003EF09F017EF09F081BC08EF09F0D3
:10120C000AEF09F017EF09F07750D8A410EF09F0A6
:10121C0012EF09F017EF09F0010E776E000E57EC84
:10122C000CF0F2A61CEF09F01EEF09F039EF09F0F3
:10123C00F2A023EF09F025EF09F039EF09F081AEA8
:10124C002AEF09F02CEF09F039EF09F07604D8A455
:10125C0032EF09F034EF09F039EF09F0000E766E39
:10126C00010E4AEC0CF0F2A63EEF09F040EF09F04B
:10127C005BEF09F0F2A045EF09F047EF09F05BEFE7
:10128C0009F081BE4CEF09F04EEF09F05BEF09F06D
:10129C007650D8A454EF09F056EF09F05BEF09F043
:1012AC00010E766E000E4AEC0CF09DAC60EF09F06E
:1012BC0062EF09F06BEF09F09EAC67EF09F069EF94
:1012CC0009F06BEF09F0ABEC0CF0F2AA70EF09F03F
:1012DC0072EF09F07BEF09F0F2A477EF09F079EFE8
:1012EC0009F07BEF09F090EC0CF09DA080EF09F079
:1012FC0082EF09F08BEF09F09EA087EF09F089EFE0
:10130C0009F08BEF09F08AEC0CF09DA290EF09F03C
:10131C0092EF09F09BEF09F09EA297EF09F099EF7D
:10132C0009F09BEF09F096EC0CF0A0A2A0EF09F0ED
:10133C00A2EF09F0ABEF09F0A1A2A7EF09F0A9EF1A
:10134C0009F0ABEF09F084EC0CF09DA4B0EF09F0C0
:10135C00B2EF09F0BBEF09F09EA4B7EF09F0B9EFBB
:10136C0009F0BBEF09F0A9EC0CF0A0A0C0EF09F05C
:10137C00C2EF09F0CBEF09F0A1A0C7EF09F0C9EF5C
:10138C0009F0CBEF09F0A7EC0CF09DA8D0EF09F019
:10139C00D2EF09F0DBEF09F09EA8D7EF09F0D9EFF7
:1013AC0009F0DBEF09F0A5EC0CF09DAAE0EF09F0D9
:1013BC00E2EF09F0EBEF09F09EAAE7EF09F0E9EF95
:1013CC0009F0EBEF09F0ADEC0CF09DA6F0EF09F095
:1013DC00F2EF09F0FBEF09F09EA6F7EF09F0F9EF39
:1013EC0009F0FBEF09F024EC0CF0A0A600EF0AF0DA
:1013FC0002EF0AF00BEF0AF0A1A607EF0AF009EFD3
:10140C000AF00BEF0AF09DEC0CF06BC0FBFF6AC00E
:10141C00FAFF7C921100010E726E6C50D8B419EF69
:10142C000AF01BEF0AF02BEF0AF06C50D96EDA6A57
:10143C00DF30E832E832070B6D6E070E6D6429EF72
:10144C000AF02BEF0AF082EF0AF0000E726E98EFA2
:10145C000AF06C50D96EDA6ADF30E832E832070BEA
:10146C006D6E010E6E6E6D2A3EEF0AF0D8906E36E0
:10147C006D2E3CEF0AF06E50FF0A6F6E6C50D96EF9
:10148C00DA6ADF50070B020DF350E50FD96EDA6AFA
:10149C00DECF70F0DDCF71F070C0D9FF71C0DAFF14
:1014AC006F50DF1698EF0AF06C50D96EDA6ADF30A5
:1014BC00E832E832070B6D6E010E6E6E6D2A69EF25
:1014CC000AF0D8906E366D2E67EF0AF06C50D96E1C
:1014DC00DA6ADF50070B020DF350E50FD96EDA6AAA
:1014EC00DECF6FF0DDCF70F06FC0D9FF70C0DAFFC8
:1014FC006E50DF1298EF0AF06C50D96EDA6ADFBCCE
:10150C008AEF0AF08DEF0AF0010E8EEF0AF0000E52
:10151C00000AD8B42FEF0AF0010AD8B45AEF0AF037
:10152C002BEF0AF072501200010E736E6C50D8B48F
:10153C00A2EF0AF0A4EF0AF0B4EF0AF06C50D96EE7
:10154C00DA6ADF30E832E832070B6E6E070E6E6433
:10155C00B2EF0AF0B4EF0AF00BEF0BF0000E736E63
:10156C0020EF0BF06C50D96EDA6ADF30E832E832DB
:10157C00070B6E6E010E6F6E6E2AC7EF0AF0D890D5
:10158C006F366E2EC5EF0AF06F50FF0A706E6C50FE
:10159C00D96EDA6ADF50070B020DF350DB0FD96EF0
:1015AC00DA6ADECF71F0DDCF72F071C0D9FF72C094
:1015BC00DAFF7050DF1620EF0BF06C50D96EDA6A40
:1015CC00DF30E832E832070B6E6E010E6F6E6E2A5A
:1015DC00F2EF0AF0D8906F366E2EF0EF0AF06C50E6
:1015EC00D96EDA6ADF50070B020DF350DB0FD96EA0
:1015FC00DA6ADECF70F0DDCF71F070C0D9FF71C048
:10160C00DAFF6F50DF1220EF0BF06D506E6E6F6AC9
:10161C006F50000AD8B415EF0BF0B4EF0AF06E500F
:10162C00000AD8B4B8EF0AF0010AD8B4E3EF0AF014
:10163C00B4EF0AF073501200760EF66E180EF76EB9
:10164C00000EF86E00EED1F010EE1EF00900F5CF92
:10165C00EEFFE550E150FAE1340EF66E190EF76E1E
:10166C00000EF86E00EE76F010EE06F00900F5CFE5
:10167C00EEFFE550E150FAE100EE80F0510EEE6A1B
:10168C00E806FDE100EE01F0680EEE6AE806FDE109
:10169C007C907C92000184EF0BF0010E0001EF6F47
:1016AC007450D8B45CEF0BF05EEF0BF06EEF0BF0F8
:1016BC007450D96EDA6ADF30E832E832070B756E97
:1016CC00070E75646CEF0BF06EEF0BF072EF0BF016
:1016DC00000EEF6F81EF0BF074C06CF011EC0AF0A0
:1016EC0074C06CF07450D96EDA6A000EDFBE010E55
:1016FC006D6E9AEC0AF00001EF5112000001869118
:10170C00700E856F060E846F868586938697620EA3
:10171C00896F170E8A6F000E8D6F000E8E6F000E84
:10172C008B6F000E8C6F7EEC0CF0230E4964A1EFD6
:10173C000BF0A3EF0BF0A9EF0BF07A0E746EEDEC3F
:10174C000BF09BEF0BF07A0E746ED1EC0BF09BEF61
:10175C000BF007EF00F0C698C7B4B7EF0BF0B9EF7A
:10176C000BF0CEEF0BF0C7BABEEF0BF0C0EF0BF0E7
:10177C00CEEF0BF0C950C5EF0BF0C9CF49F0C7A0A5
:10178C00CAEF0BF0CCEF0BF0C3EF0BF0CFEF0BF07D
:10179C00C750C6881200010E756E7450D8A4D9EFCC
:1017AC000BF0DBEF0BF0DFEF0BF0000E756EEBEFD9
:1017BC000BF074C06CF0000E6D6E9AEC0AF074288D
:1017CC006C6E000E6D6E9AEC0AF075501200010EE4
:1017DC00756E7450D8A4F5EF0BF0F7EF0BF0FBEF30
:1017EC000BF0000E756E07EF0CF074C06CF0010E70
:1017FC006D6E9AEC0AF074286C6E000E6D6E9AEC9D
:10180C000AF075501200010E0001F16FF051D8A4CE
:10181C0012EF0CF014EF0CF018EF0CF0000EF16F4F
:10182C0021EF0CF0F0C074F053EC0BF00001F02938
:10183C00746E53EC0BF00001F15112009E963D506A
:10184C003E10D8B42CEF0CF02EEF0CF03AEF0CF05D
:10185C0002D83AEF0CF00500FA6E3D50FD6E3E508A
:10186C00FE6EFF6AFA5012001200800F810F820F79
:10187C00830F840F890F8A0F8B0F8C0F8D0F920F94
:10188C00930F940F950F960F696EF2906904D8A47C
:10189C0052EF0CF054EF0CF056EF0CF056EF0CF03E
:1018AC001200696EF2906904D8A45FEF0CF061EF3E
:1018BC000CF063EF0CF063EF0CF01200696EF29019
:1018CC006904D8A46CEF0CF06EEF0CF070EF0CF018
:1018DC0070EF0CF01200696EF2906904D8A479EFE5
:1018EC000CF07BEF0CF07DEF0CF07DEF0CF01200A8
:1018FC007A0E0001F06F09EC0CF01200A192165058
:10190C00B36E15C0B2FF12009E901C50CF6E1BC060
:10191C00CEFF1200F2942250D76E21C0D6FF1200D7
:10192C009E924BC0CCFF120001010101333BA196EA
:10193C001200F0921200F0961200F29212009D9892
:10194C001200A19012009E9412009E9C1200120094
:020000040030CA
:0E000000FF071F1FFF8185FF0FC00FE00F409D
:00000001FF
