:0400000007EF00F016
:0A0008006B826CED0AF047EF13F075
:10100000003738392F3435362A3132332D43303DCD
:051010002B2569000022
:101016003F50800B0001E56F3F503F24E76F3EAE27
:1010260017EF08F019EF08F01AEF08F0E781E7511B
:10103600D8B420EF08F022EF08F037EF08F0E729E0
:10104600D8A428EF08F02AEF08F032EF08F0000ED7
:101056003C6E000E3D6E000E3E6E000E3F6E3E8EE6
:10106600000E3F6E3FEF08F0000E3C6E000E3D6E28
:10107600000E3E6E000E3F6E4350800BE66FE5514C
:10108600E619D8B449EF08F04BEF08F04CEF08F03A
:10109600E58D43504324E66F42AE54EF08F056EF19
:1010A60008F057EF08F0E681E651D8B45DEF08F096
:1010B6005FEF08F074EF08F0E629D8A465EF08F0B2
:1010C60067EF08F06FEF08F0000E406E000E416EFD
:1010D600000E426E000E436E428E000E436E7CEF93
:1010E60008F0000E406E000E416E000E426E000EBD
:1010F600436EE751E65DD8B083EF08F085EF08F060
:10110600ACEF08F0E5AD8AEF08F08CEF08F08EEF53
:1011160008F0800EE51BE7C0E8F0E6C0E7F0E8C09F
:10112600E6F03CC0E8F040C03CF0E8C040F03DC00E
:10113600E8F041C03DF0E8C041F03EC0E8F042C0F2
:101146003EF0E8C042F03FC0E8F043C03FF0E8C0E0
:1011560043F0000EE86FE751E6C0E1F0E26BE15FB5
:10116600000EE25BE2BFC1EF08F0E25109E11A0EA0
:10117600E15DD8A0C1EF08F0C3EF08F0FAEF08F080
:101186003C503D103E103F10D8A4CCEF08F0CFEFF6
:1011960008F0010ED0EF08F0000EE86F000E3C6E6E
:1011A600000E3D6E000E3E6E000E3F6EE6C0E7F08E
:1011B60003EF09F0E8A1E2EF08F0E4EF08F0EAEF48
:1011C60008F0D890E8310109E86FECEF08F0D89004
:1011D600E8333CA0F1EF08F0F3EF08F0F4EF08F085
:1011E600E88F3F343F323E323D323C32E72BE65108
:1011F600E75DD8A001EF09F003EF09F0DDEF08F095
:10120600E5BD08EF09F00AEF09F04AEF09F0E751EA
:10121600D8A410EF09F012EF09F01CEF09F0000E48
:101226003C6E000E3D6E000E3E6E000E3F6E6BEF86
:101236000AF040503C2641503D2242503E22435047
:101246003F223FA029EF09F02BEF09F0D7EF09F075
:10125600E8A130EF09F032EF09F038EF09F0D89045
:10126600E8310109E86F3AEF09F0D890E8333CA07D
:101276003FEF09F041EF09F042EF09F0E88F3F3404
:101286003F323E323D323C32E72BD7EF09F0405039
:101296003C5C41503D5842503E583F50800AE16FF9
:1012A6004350800AE159D8B05BEF09F05DEF09F0D1
:1012B60088EF09F03C50405CE16F3D504158E26FC9
:1012C6003E504258E36F3F504358E46FFF0EE1250E
:1012D6003C6EFF0EE2213D6EFF0EE3213E6EFF0ED9
:1012E600E4213F6E800EE51BE86DE851D8A47EEF41
:1012F60009F080EF09F090EF09F0010E3C26000E90
:101306003D223E223F2290EF09F040503C5E415084
:101316003D5A42503E5A43503F5A3C503D103E10B3
:101326003F10D8A499EF09F09BEF09F0D0EF09F030
:10133600E851D8A4A1EF09F0A3EF09F0D0EF09F026
:10134600000E3C6E000E3D6E000E3E6E000E3F6EB1
:101356006BEF0AF0D8903C363D363E363F36E8AF66
:10136600B7EF09F0B9EF09F0BAEF09F03C80E8A150
:10137600BFEF09F0C1EF09F0C5EF09F0D880E837F3
:10138600C7EF09F0D890E837E751D8B4CDEF09F0A8
:10139600CFEF09F0D0EF09F0E7073EAED5EF09F041
:1013A600D7EF09F0ADEF09F0000EE66FE8AFDEEF1C
:1013B60009F0E0EF09F0F8EF09F0E8C0E1F07F0E80
:1013C600E117D8B4E9EF09F0EBEF09F0EFEF09F018
:1013D600010EE66FF8EF09F03CA0F4EF09F0F6EF26
:1013E60009F0F8EF09F0EBEF09F0E651D8B4FEEF9B
:1013F60009F000EF0AF02BEF0AF0010E3C26000E72
:101406003D223E223F223FA00BEF0AF00DEF0AF0ED
:101416002BEF0AF03CC0E1F03DC0E2F03EC0E3F045
:101426003FC0E4F0E435E433E333E233E133E1C0D3
:101436003CF0E2C03DF0E3C03EF0E4C03FF0E729F7
:10144600D8B428EF0AF02AEF0AF02BEF0AF0E72BC0
:10145600E729D8B431EF0AF033EF0AF03BEF0AF090
:10146600E751D8A439EF0AF03BEF0AF04DEF0AF046
:10147600000E3C6E000E3D6E000E3E6E000E3F6E80
:10148600E751D8A449EF0AF04BEF0AF04DEF0AF006
:10149600000EE56FE7A152EF0AF054EF0AF057EF9E
:1014A6000AF03E8E58EF0AF03E9ED890E7313F6E26
:1014B600E5AF60EF0AF062EF0AF063EF0AF03F8EE5
:1014C6003CC03CF03DC03DF03EC03EF03FC03FF06A
:1014D60012000600FACF0FF0FBCF10F0D9CF11F0B3
:1014E600DACF12F0F3CF13F0F4CF14F0F2A87EEFB8
:1014F6000AF080EF0AF089EF0AF0F2A285EF0AF00F
:1015060087EF0AF089EF0AF0C1EC15F0F0A68EEF2E
:101516000AF090EF0AF099EF0AF0F0A095EF0AF0C2
:1015260097EF0AF099EF0AF0BFEC15F0F0A89EEFDE
:101536000AF0A0EF0AF0A9EF0AF0F0A2A5EF0AF070
:10154600A7EF0AF0A9EF0AF0BDEC15F0F2A6AEEF90
:101556000AF0B0EF0AF0CBEF0AF0F2A0B5EF0AF00E
:10156600B7EF0AF0CBEF0AF081A8BCEF0AF0BEEFA6
:101576000AF0CBEF0AF06804D8A4C4EF0AF0C6EF6D
:101586000AF0CBEF0AF0000E686E010E89EC15F03A
:10159600F2A6D0EF0AF0D2EF0AF0EDEF0AF0F2A0D1
:1015A600D7EF0AF0D9EF0AF0EDEF0AF081B8DEEFD7
:1015B6000AF0E0EF0AF0EDEF0AF06850D8A4E6EF83
:1015C6000AF0E8EF0AF0EDEF0AF0010E686E000E81
:1015D60089EC15F0F2A6F2EF0AF0F4EF0AF00FEF3D
:1015E6000BF0F2A0F9EF0AF0FBEF0AF00FEF0BF0A9
:1015F60081AA00EF0BF002EF0BF00FEF0BF0670480
:10160600D8A408EF0BF00AEF0BF00FEF0BF0000E6B
:10161600676E010E7CEC15F0F2A614EF0BF016EFD8
:101626000BF031EF0BF0F2A01BEF0BF01DEF0BF000
:1016360031EF0BF081BA22EF0BF024EF0BF031EF14
:101646000BF06750D8A42AEF0BF02CEF0BF031EF1C
:101656000BF0010E676E000E7CEC15F0F2A636EF6D
:101666000BF038EF0BF053EF0BF0F2A03DEF0BF061
:101676003FEF0BF053EF0BF081AC44EF0BF046EF6E
:101686000BF053EF0BF06604D8A44CEF0BF04EEFC3
:101696000BF053EF0BF0000E666E010E6FEC15F0BB
:1016A600F2A658EF0BF05AEF0BF075EF0BF0F2A025
:1016B6005FEF0BF061EF0BF075EF0BF081BC66EF9F
:1016C6000BF068EF0BF075EF0BF06650D8A46EEFD9
:1016D6000BF070EF0BF075EF0BF0010E666E000E5F
:1016E6006FEC15F0F2A67AEF0BF07CEF0BF097EFAC
:1016F6000BF0F2A081EF0BF083EF0BF097EF0BF0FE
:1017060081AE88EF0BF08AEF0BF097EF0BF06504D4
:10171600D8A490EF0BF092EF0BF097EF0BF0000EC2
:10172600656E010E62EC15F0F2A69CEF0BF09EEFD3
:101736000BF0B9EF0BF0F2A0A3EF0BF0A5EF0BF057
:10174600B9EF0BF081BEAAEF0BF0ACEF0BF0B9EFDF
:101756000BF06550D8A4B2EF0BF0B4EF0BF0B9EF75
:101766000BF0010E656E000E62EC15F09DACBEEF3F
:101776000BF0C0EF0BF0C9EF0BF09EACC5EF0BF012
:10178600C7EF0BF0C9EF0BF0C9EC15F0F2AACEEFDC
:101796000BF0D0EF0BF0D9EF0BF0F2A4D5EF0BF076
:1017A600D7EF0BF0D9EF0BF0ABEC15F09DA0DEEF09
:1017B6000BF0E0EF0BF0E9EF0BF09EA0E5EF0BF07E
:1017C600E7EF0BF0E9EF0BF0A5EC15F09DA2EEEFBD
:1017D6000BF0F0EF0BF0F9EF0BF09EA2F5EF0BF02C
:1017E600F7EF0BF0F9EF0BF0B1EC15F0A0A2FEEF5E
:1017F6000BF000EF0CF009EF0CF0A1A205EF0CF0D6
:1018060007EF0CF009EF0CF09FEC15F09DA40EEF1E
:101816000CF010EF0CF019EF0CF09EA415EF0CF085
:1018260017EF0CF019EF0CF0C7EC15F0A0A01EEFA7
:101836000CF020EF0CF029EF0CF0A1A025EF0CF036
:1018460027EF0CF029EF0CF0C5EC15F09DA82EEF54
:101856000CF030EF0CF039EF0CF09EA835EF0CF0E1
:1018660037EF0CF039EF0CF0C3EC15F09DAA3EEF04
:101876000CF040EF0CF049EF0CF09EAA45EF0CF08F
:1018860047EF0CF049EF0CF0CBEC15F09DA64EEFB0
:101896000CF050EF0CF059EF0CF09EA655EF0CF043
:1018A60057EF0CF059EF0CF010EC15F0A0A65EEF18
:1018B6000CF060EF0CF069EF0CF0A1A665EF0CF0F0
:1018C60067EF0CF069EF0CF0BBEC15F014C0F4FFF9
:1018D60013C0F3FF12C0DAFF11C0D9FF10C0FBFF1F
:1018E6000FC0FAFF6B9211002650800B336E265004
:1018F60026243A6E25AE82EF0CF084EF0CF085EFCD
:101906000CF03A803A50D8B48BEF0CF08DEF0CF017
:10191600A2EF0CF03A28D8A493EF0CF095EF0CF058
:101926009DEF0CF0000E236E000E246E000E256E49
:10193600000E266E258E000E266EAAEF0CF0000E07
:10194600236E000E246E000E256E000E266E2A50A3
:10195600800B331A2A502A243B6E29AEB5EF0CF0C1
:10196600B7EF0CF0B8EF0CF03B803B50D8B4BEEFAD
:101976000CF0C0EF0CF0D5EF0CF03B28D8A4C6EF66
:101986000CF0C8EF0CF0D0EF0CF0000E276E000E36
:10199600286E000E296E000E2A6E298E000E2A6E03
:1019A600DDEF0CF0000E276E000E286E000E296E7D
:1019B600000E2A6E2750281029102A10D8A4E6EF08
:1019C6000CF0E8EF0CF000EF0DF0000E236E000EA9
:1019D600246E000E256E000E266E800E25127F0EDA
:1019E60026123350261223C023F024C024F025C02B
:1019F60025F026C026F043EF0EF03A50D8A406EFA5
:101A06000DF008EF0DF012EF0DF0000E236E000E34
:101A1600246E000E256E000E266E43EF0EF03B5030
:101A26003AC02BF02C6A2B5E000E2C5A7F0E2B240C
:101A3600346E000E2C20356E23C02FF024C030F0FB
:101A460025C031F026C032F0000E236E000E246E43
:101A5600000E256E000E266E000E366E000E376ED8
:101A6600000E386E000E396E000E3B6E73EF0DF0F1
:101A76003B50D8B441EF0DF043EF0DF05AEF0DF0A7
:101A8600D8902F36303631363236D8902336243633
:101A96002536263639AE52EF0DF054EF0DF055EFE0
:101AA6000DF02380D89036363736383639362750FB
:101AB6002F5C28503058295031582A503258D8A017
:101AC60067EF0DF069EF0DF072EF0DF0398C2750CE
:101AD6002F5E2850305A2950315A2A50325A3B2A02
:101AE600190E3B6479EF0DF07BEF0DF03BEF0DF037
:101AF6002F50301031103210D8B484EF0DF086EF2D
:101B06000DF09EEF0DF036809EEF0DF0D890233647
:101B160024362536263639AE93EF0DF095EF0DF0C7
:101B260096EF0DF02380D89036363736383639366C
:101B36003406D8A0350625AEA3EF0DF0A5EF0DF0BF
:101B460089EF0DF0000E3B6E39AEACEF0DF0AEEF47
:101B56000DF0D2EF0DF0FF0E36142B6EFF0E37147C
:101B66002C6EFF0E38142D6E7F0E39142E6E2B50F0
:101B76002C102D102E10D8B4C3EF0DF0C5EF0DF0BC
:101B8600C9EF0DF0010E3B6ED2EF0DF023A0CEEFA4
:101B96000DF0D0EF0DF0D2EF0DF0C5EF0DF03B508C
:101BA600D8B4D8EF0DF0DAEF0DF0FEEF0DF0010E20
:101BB6002326000E24222522262226A0E5EF0DF05C
:101BC600E7EF0DF0FEEF0DF023C02BF024C02CF054
:101BD60025C02DF026C02EF02E342E322D322C327A
:101BE6002B322BC023F02CC024F02DC025F02EC0A4
:101BF60026F0344A352A35BE09EF0EF0355008E195
:101C06003428D8A009EF0EF00BEF0EF016EF0EF009
:101C1600000E356E3468000E236E000E246E000E24
:101C2600256E000E266E35BE23EF0EF0355006E10A
:101C36003404D8B021EF0EF023EF0EF031EF0EF0A2
:101C4600000E356E000E346E000E236E000E246EEE
:101C5600000E256E000E266E000E336E34C03AF06E
:101C66003AA038EF0EF03AEF0EF03DEF0EF0258E6B
:101C76003EEF0EF0259ED8903A30266EF4EF0CF02B
:101C860012001D6E1D50D8B44BEF0EF04DEF0EF046
:101C96006FEF0EF018BE54EF0EF052EF0EF06FEF2E
:101CA6000EF015C019F016C01AF017C01BF018C0B8
:101CB6001CF0191E1A1E1B1E1C1E192A000E1A22A3
:101CC6001B221C2219C01FF01AC020F01BC021F0D5
:101CD6001CC022F077EF0EF015C01FF016C020F0E2
:101CE60017C021F018C022F0155016101710181042
:101CF600D8A480EF0EF082EF0EF08CEF0EF0000EFF
:101D0600156E000E166E000E176E000E186E1DEF85
:101D16000FF0960E1E6E96EF0EF01E2AD890223207
:101D2600213220321F32000E1F14196E000E2014AD
:101D36001A6E000E21141B6EFE0E22141C6E195014
:101D46001A101B101C10D8A4ABEF0EF0ADEF0EF05E
:101D560090EF0EF0BBEF0EF01E2A010E1F26000EAE
:101D6600202221222222D8902232213220321F32F2
:101D7600000E1F14196E000E20141A6E000E211488
:101D86001B6EFF0E22141C6E19501A101B101C100D
:101D9600D8A4D0EF0EF0D2EF0EF0AFEF0EF0DAEFE0
:101DA6000EF01E06D8901F3620362136223621BE6A
:101DB600DFEF0EF0E1EF0EF0E9EF0EF0020E1E601F
:101DC600E7EF0EF0E9EF0EF0D4EF0EF01EB0EEEFF7
:101DD6000EF0F0EF0EF0F1EF0EF0219ED8901E32CD
:101DE6001EC019F01A6A1B6A1C6A19C01CF01B6A0D
:101DF6001A6A196A19501F121A5020121B50211202
:101E06001C5022121D50D8B40BEF0FF00DEF0FF03F
:101E160015EF0FF018BE14EF0FF012EF0FF015EFDD
:101E26000FF0228E1FC015F020C016F021C017F04B
:101E360022C018F01200010E1B6E1550D8B426EF02
:101E46000FF028EF0FF038EF0FF01550D96EDA6A61
:101E5600DF30E832E832070B166E070E166436EFEF
:101E66000FF038EF0FF08FEF0FF0000E1B6EA5EF9F
:101E76000FF01550D96EDA6ADF30E832E832070B18
:101E8600166E010E176E162A4BEF0FF0D890173606
:101E9600162E49EF0FF01750FF0A186E1550D96E1F
:101EA600DA6ADF50070B020DF350D10FD96EDA6AEA
:101EB600DECF19F0DDCF1AF019C0D9FF1AC0DAFF4C
:101EC6001850DF16A5EF0FF01550D96EDA6ADF301D
:101ED600E832E832070B166E010E176E162A76EFF9
:101EE6000FF0D8901736162E74EF0FF01550D96EE6
:101EF600DA6ADF50070B020DF350D10FD96EDA6A9A
:101F0600DECF18F0DDCF19F018C0D9FF19C0DAFFFF
:101F16001750DF12A5EF0FF01550D96EDA6ADFBC45
:101F260097EF0FF09AEF0FF0010E9BEF0FF0000EF8
:101F3600000AD8B43CEF0FF0010AD8B467EF0FF0EF
:101F460038EF0FF01B501200010E1C6E1550D8B45E
:101F5600AFEF0FF0B1EF0FF0C1EF0FF01550D96EE4
:101F6600DA6ADF30E832E832070B176E070E1764BD
:101F7600BFEF0FF0C1EF0FF018EF10F0000E1C6E60
:101F86002DEF10F01550D96EDA6ADF30E832E832FC
:101F9600070B176E010E186E172AD4EF0FF0D890A4
:101FA6001836172ED2EF0FF01850FF0A196E15507B
:101FB600D96EDA6ADF50070B020DF350C70FD96EE0
:101FC600DA6ADECF1AF0DDCF1BF01AC0D9FF1BC0CC
:101FD600DAFF1950DF162DEF10F01550D96EDA6AB8
:101FE600DF30E832E832070B176E010E186E172A3B
:101FF600FFEF0FF0D8901836172EFDEF0FF01550A3
:10200600D96EDA6ADF50070B020DF350C70FD96E8F
:10201600DA6ADECF19F0DDCF1AF019C0D9FF1AC07F
:10202600DAFF1850DF122DEF10F01650176E186AEF
:102036001850000AD8B422EF10F0C1EF0FF0175075
:10204600000AD8B4C5EF0FF0010AD8B4F0EF0FF0CC
:10205600C1EF0FF01C501200010E086E0150D8B4EB
:1020660037EF10F039EF10F049EF10F00150D96E4C
:10207600DA6ADF30E832E832070B036E070E0364D4
:1020860047EF10F049EF10F0A0EF10F0000E086EC9
:10209600B5EF10F00150D96EDA6ADF30E832E83277
:1020A600070B036E010E046E032A5CEF10F0D89046
:1020B6000436032E5AEF10F00450FF0A056E015045
:1020C600D96EDA6ADF50070B020DF350C70FD96ECF
:1020D600DA6ADECF06F0DDCF07F006C0D9FF07C00B
:1020E600DAFF0550DF16B5EF10F00150D96EDA6A47
:1020F600DF30E832E832070B036E010E046E032A66
:1021060087EF10F0D8900436032E85EF10F00150BB
:10211600D96EDA6ADF50070B020DF350C70FD96E7E
:10212600DA6ADECF05F0DDCF06F005C0D9FF06C0BE
:10213600DAFF0450DF12B5EF10F00250036E046AA6
:102146000450000AD8B4AAEF10F049EF10F003507B
:10215600000AD8B44DEF10F0010AD8B478EF10F0A9
:1021660049EF10F0085012000001EB35EC35456ED2
:102176004550D8A4C1EF10F0C3EF10F0CDEF10F02A
:10218600000EE96F000EEA6F000EEB6F000EEC6FAB
:102196003AEF11F0E9C0EDF0EAC0EEF0EBC0EFF077
:1021A600ECC0F0F0200EDDEF10F0D890F033EF33F6
:1021B600EE33ED33E82ED8EF10F0ED51446EEB8F91
:1021C600FF0EE917FF0EEA17FF0EEB17000EEC17CE
:1021D600960E455E45BEF4EF10F0F2EF10F00AEFF2
:1021E60011F04550800A970FD8B0FCEF10F0FEEFC3
:1021F60010F000EF11F0C3EF10F0D890EC33EB3392
:10220600EA33E933453E00EF11F022EF11F01F0EDD
:10221600456410EF11F012EF11F01AEF11F0C3EF51
:1022260010F0D890E937EA37EB37EC3745064550DA
:10223600D8A420EF11F022EF11F014EF11F0445062
:10224600D8B428EF11F02AEF11F032EF11F0EC1F9D
:10225600EB1FEA1FE96D000EEA23EB23EC23E9C02E
:10226600E9F0EAC0EAF0EBC0EBF0ECC0ECF01200EB
:10227600000E256E2350D8A443EF11F045EF11F060
:1022860049EF11F0000E266EB3EF11F023C01DF0DA
:1022960078EC13F0266E23281D6E78EC13F0266E6C
:1022A600000E256E23502524020F1D6E78EC13F0C8
:1022B600252A030E256462EF11F064EF11F055EF45
:1022C60011F01A0E246EF80EE82EFED7242EFCD737
:1022D60000D023C020F0380E216EA7EC13F0070EB5
:1022E600246E7D0EE82EFED7242EFCD7000023C0D8
:1022F60020F0380E216EA7EC13F0C30E246ECD0E1F
:10230600E82EFED7242EFCD7000023C020F0380E7E
:10231600216EA7EC13F023C020F0010E216EA7EC6E
:1023260013F023C020F0020E216EA7EC13F023C099
:1023360020F0060E216EA7EC13F023C020F00C0E41
:10234600216EA7EC13F023C020F0280E216EA7EC17
:1023560013F023C020F0800E216EA7EC13F0266E3A
:10236600265012000001F351D8A4BCEF11F0BEEFC5
:1023760011F0C2EF11F0000EF46F13EF12F0C69ACF
:10238600F351D96EDA6A060ED926DFA0CDEF11F029
:10239600CFEF11F0D5EF11F0F3C0F1F015EC12F01C
:1023A600F4EF11F0F351D96EDA6A060ED926DFB0D2
:1023B600DFEF11F0E1EF11F0F4EF11F0F3C015F0DB
:1023C600A3EC14F0C69EC69CC6880001F351D96ED4
:1023D600DA6A050ED926DF50C86EF3C015F055EC43
:1023E60015F0B8EC15F0F3C015F069EC14F0F3C075
:1023F60015F086EC14F0F3C015F039EC15F0F3C0C7
:1024060015F047EC15F00001F351D96EDA6A0D0E9E
:10241600D926DECFACF0DDCFADF0C68A010EF46F63
:10242600F45112000001F151D96EDA6A040ED92670
:10243600DF50F26FC650F219F00BF219C66E000E9D
:10244600406E000E416E800E426EBF0E436EF1511D
:10245600D96EDA6ADECF15F0DECF16F0DECF17F0D2
:10246600DECF18F0000E44EC0EF015C027F016C0B3
:1024760028F017C029F018C02AF0000E236E240E8B
:10248600246EF40E256E490E266E77EC0CF023C0F2
:102496003CF024C03DF025C03EF026C03FF00BECDA
:1024A60008F03CC0E9F03DC0EAF03EC0EBF03FC0AA
:1024B600ECF0B7EC10F00001E951C86E1200000113
:1024C600B491620EB36F060EB26FB485B493B4972F
:1024D600060EB76F280EB86F000EBB6F000EBC6FEE
:1024E600000EB96F000EBA6FAE0EF36FB5EC11F0B9
:1024F60096EC15F0620E6418D8A484EF12F086EFFD
:1025060012F08CEF12F0690E1D6EDCEC14F07DEF0C
:1025160012F0640E6418D8A493EF12F095EF12F03F
:102526009BEF12F0690E1D6EC0EC14F07DEF12F0F9
:102536007DEF12F007EF00F00150D8B4A5EF12F0CE
:10254600A7EF12F0AFEF12F00350D8A4ADEF12F0E0
:10255600AFEF12F0B3EF12F0000E046ED7EF12F0E9
:10256600C586C7A0B9EF12F0BBEF12F0B4EF12F0B8
:102576000350D96EDA6AC9CFDFFF0250D8A4C6EF7E
:1025860012F0C8EF12F0CBEF12F0C59AD4EF12F0AA
:102596000204D8A4D1EF12F0D3EF12F0D4EF12F068
:1025A600C58AC588010E046E045012001D50D8A4B9
:1025B600DFEF12F0E1EF12F0E5EF12F0000E1F6E02
:1025C6000EEF13F01D50020F156E1E50010B166E06
:1025D600A7EC0FF01F6E1D50030F156ED8901E301E
:1025E600010B166EA7EC0FF01F6E1D50040F156E33
:1025F6001E40E8423F0B010B166EA7EC0FF01F6E54
:102606001D50050F156E1E38E8461F0B010B166E82
:10261600A7EC0FF01F6E1F5012000950D8A416EF3A
:1026260013F018EF13F01CEF13F0000E0B6E45EFCE
:1026360013F00950020F016E0A50010B026E2FECC7
:1026460010F00B6E0950030F016ED8900A30010B83
:10265600026E2FEC10F00B6E0950040F016E0A404B
:10266600E8423F0B010B026E2FEC10F00B6E095087
:10267600050F016E0A38E8461F0B010B026E2FECA0
:1026860010F00B6E0B5012004E0EF66E2A0EF76E01
:10269600000EF86E00EEBDF010EE24F00900F5CF46
:1026A600EEFFE550E150FAE16A0EF66E2B0EF76E7C
:1026B600000EF86E00EE65F010EE06F00900F5CF9C
:1026C600EEFFE550E150FAE100EE80F03D0EEE6AD5
:1026D600E806FDE100EE46F01F0EEE6AE806FDE1B3
:1026E6006B906B92000162EF12F0010E1F6E1D508F
:1026F600D8B480EF13F082EF13F092EF13F01D5071
:10270600D96EDA6ADF30E832E832070B1E6E070E42
:102716001E6490EF13F092EF13F096EF13F0000E95
:102726001F6EA5EF13F01DC015F01EEC0FF01DC0B7
:1027360015F01D50D96EDA6A000EDFBE010E166E58
:10274600A7EC0FF01F5012002050D8A4ADEF13F0E5
:10275600AFEF13F0B3EF13F0000E226ED3EF13F0CA
:1027660020C015F0000E166EA7EC0FF0226E20C0EA
:102776001DF021380F0B1E6ED9EC12F0226E20C010
:102786001DF02DEC14F0226E20C01DF021C01EF0AD
:10279600D9EC12F0226E20C01DF02DEC14F0226E42
:1027A600225012000C50D8A4DBEF13F0DDEF13F02B
:1027B600E1EF13F0000E0E6E01EF14F00CC001F005
:1027C600010E026E2FEC10F00E6E0CC009F00D38E3
:1027D6000F0B0A6E10EC13F00E6E0CC009F04BECEA
:1027E60014F00E6E0CC009F00DC00AF010EC13F0D8
:1027F6000E6E0CC009F04BEC14F00E6E0E5012006B
:10280600C698C7B409EF14F00BEF14F023EF14F0D9
:10281600C7BA10EF14F012EF14F023EF14F0C950FA
:10282600AE0E016E5AC002F0640E036E9FEC12F0FB
:10283600DB0E0C6E64C00DF0D5EC13F02BEF14F02C
:10284600C7A428EF14F02AEF14F02BEF14F0C750AA
:10285600C68812001D50D8A433EF14F035EF14F0DB
:1028660039EF14F0000E1E6E49EF14F01D28156E98
:10287600010E166EA7EC0FF000D000D000001D2848
:10288600156E000E166EA7EC0FF01E6E1E5012008F
:102896000950D8A451EF14F053EF14F057EF14F089
:1028A600000E0A6E67EF14F00928016E010E026E23
:1028B6002FEC10F000D000D000000928016E000EA9
:1028C600026E2FEC10F00A6E0A5012001550D96EE7
:1028D600DA6A060ED926DFA273EF14F075EF14F04C
:1028E60078EF14F0C78E85EF14F01550D96EDA6ABA
:1028F600060ED926DFB282EF14F084EF14F085EFCE
:1029060014F0C79E12001550D96EDA6A060ED92643
:10291600DFA490EF14F092EF14F095EF14F0C78C4B
:10292600A2EF14F01550D96EDA6A060ED926DFB476
:102936009FEF14F0A1EF14F0A2EF14F0C79C120061
:102946001550D96EDA6A060ED926DFA6ADEF14F059
:10295600AFEF14F0B2EF14F0C58EBFEF14F01550C0
:10296600D96EDA6A060ED926DFB6BCEF14F0BEEFD2
:1029760014F0BFEF14F0C59E1200010E1E6E1D501E
:10298600D8A4C8EF14F0CAEF14F0CEEF14F0000E7E
:102996001E6EDAEF14F01DC015F0000E166EA7ECD1
:1029A6000FF01D28156E000E166EA7EC0FF01E50C8
:1029B6001200010E1E6E1D50D8A4E4EF14F0E6EFCF
:1029C60014F0EAEF14F0000E1E6EF6EF14F01DC0C0
:1029D60015F0010E166EA7EC0FF01D28156E000EF1
:1029E600166EA7EC0FF01E501200010E216E20503D
:1029F600D8A400EF15F002EF15F006EF15F0000E63
:102A0600216E0EEF15F020C01DF078EC13F0202893
:102A16001D6E78EC13F0215012009E964E504F100A
:102A2600D8B418EF15F01AEF15F026EF15F002D806
:102A360026EF15F00500FA6E4E50FD6E4F50FE6EF5
:102A4600FF6AFA5012001200800F810F820F830F67
:102A5600840F890F8A0F8B0F8C0F8D0F920F930F98
:102A6600940F950F960F030B131B232B9D869E9693
:102A76001550D96EDA6A090ED926DECF4EF0DDCFB3
:102A86004FF0F28EF28C1200A086A1961550D96EE8
:102A9600DA6A0B0ED926DECF4CF0DDCF4DF0F28E82
:102AA600F28C12001550D96EDA6A040ED926DF5060
:102AB600166EC6501618F00B1618C66E1200016E6A
:102AC600F2900104D8A46AEF15F06CEF15F06EEFE2
:102AD60015F06EEF15F01200016EF2900104D8A405
:102AE60077EF15F079EF15F07BEF15F07BEF15F02A
:102AF6001200016EF2900104D8A484EF15F086EF5F
:102B060015F088EF15F088EF15F01200016EF290BF
:102B16000104D8A491EF15F093EF15F095EF15F099
:102B260095EF15F01200DB0E236E3BEC11F0690EEB
:102B3600206EF8EC14F01200A1924750B36E46C016
:102B4600B2FF12009E904950CF6E48C0CEFF1200D1
:102B5600F2944B50D76E4AC0D6FF12009E925BC0CD
:102B6600CCFF120001010101333B948694881200C8
:102B7600A1961200F0921200F0961200F292120044
:102B86009D981200A19012009E9412009E9C120025
:022B960012002B
:020000040030CA
:0E000000FF071F1FFF8185FF0FC00FE00F409D
:00000001FF
