:0400000007EF00F016
:0A0008007E82DEED0CF001EF18F02F
:10100000003738392F3435362A3132332D43303DCD
:101010002B44617465203A200054696D653A2000C4
:0B102000446174653A2000256900005F
:10102C00000E466E000E476E000E486E000E496EA6
:10103C0034EF0AF0AC98AC94B8964350D96EDA6A97
:10104C00DECF02F0DECF03F0DECF04F0DECF05F012
:10105C00000E9EEC10F002C014F003C015F004C09A
:10106C0016F005C017F0000E106E240E116EF40E63
:10107C00126E4A0E136ED1EC0EF010C04AF011C075
:10108C004BF012C04CF013C04DF0000E146E000E5D
:10109C00156E800E166E420E176E4AC010F04BC0C5
:1010AC0011F04CC012F04DC013F0D1EC0EF010C08A
:1010BC0029F011C02AF012C02BF013C02CF0000E36
:1010CC002D6E000E2E6E800E2F6EBF0E306E7EECCF
:1010DC000AF029C046F02AC047F02BC048F02CC0BB
:1010EC0049F05EEF0AF0AC98AC84B8964350D96ED8
:1010FC00DA6ADECF02F0DECF03F0DECF04F0DECF13
:10110C0005F0000E9EEC10F002C014F003C015F0B8
:10111C0004C016F005C017F0000E106E240E116EF0
:10112C00F40E126E4A0E136ED1EC0EF010C04AF093
:10113C0011C04BF012C04CF013C04DF0000E146EE9
:10114C00000E156E800E166E410E176E4AC010F012
:10115C004BC011F04CC012F04DC013F0D1EC0EF09E
:10116C0010C029F011C02AF012C02BF013C02CF0C3
:10117C00000E2D6E000E2E6E800E2F6EBF0E306E7A
:10118C007EEC0AF029C046F02AC047F02BC048F08C
:10119C002CC049F05EEF0AF0AC98AC94B886435082
:1011AC00D96EDA6ADECF02F0DECF03F0DECF04F0C8
:1011BC00DECF05F0000E9EEC10F002C014F003C060
:1011CC0015F004C016F005C017F0000E106E240EBA
:1011DC00116EF40E126E4A0E136ED1EC0EF010C09E
:1011EC004AF011C04BF012C04CF013C04DF0000E81
:1011FC00146E000E156E800E166E410E176E4AC0E0
:10120C0010F04BC011F04CC012F04DC013F0D1ECEB
:10121C000EF010C029F011C02AF012C02BF013C030
:10122C002CF0000E2D6E000E2E6E800E2F6EBF0E4B
:10123C00306E7EEC0AF029C046F02AC047F02BC075
:10124C0048F02CC049F05EEF0AF0AC98AC84B8863C
:10125C004350D96EDA6ADECF02F0DECF03F0DECF78
:10126C0004F0DECF05F0000E9EEC10F002C014F07E
:10127C0003C015F004C016F005C017F0000E106E78
:10128C00240E116EF40E126E4A0E136ED1EC0EF08B
:10129C0010C04AF011C04BF012C04CF013C04DF00E
:1012AC00000E146E000E156E800E166E400E176E2C
:1012BC004AC010F04BC011F04CC012F04DC013F0EE
:1012CC00D1EC0EF010C029F011C02AF012C02BF096
:1012DC0013C02CF0000E2D6E000E2E6E800E2F6E95
:1012EC00BF0E306E7EEC0AF029C046F02AC047F0E3
:1012FC002BC048F02CC049F05EEF0AF0AC88B896D1
:10130C004350D96EDA6ADECF02F0DECF03F0DECFC7
:10131C0004F0DECF05F0000E9EEC10F002C014F0CD
:10132C0003C015F004C016F005C017F0000E106EC7
:10133C00240E116EF40E126E4A0E136ED1EC0EF0DA
:10134C0010C04AF011C04BF012C04CF013C04DF05D
:10135C00000E146E000E156E800E166E400E176E7B
:10136C004AC010F04BC011F04CC012F04DC013F03D
:10137C00D1EC0EF010C029F011C02AF012C02BF0E5
:10138C0013C02CF0000E2D6E000E2E6E800E2F6EE4
:10139C00BF0E306E7EEC0AF029C046F02AC047F032
:1013AC002BC048F02CC049F05EEF0AF0AC88B88630
:1013BC004350D96EDA6ADECF02F0DECF03F0DECF17
:1013CC0004F0DECF05F0000E9EEC10F002C014F01D
:1013DC0003C015F004C016F005C017F0000E106E17
:1013EC00240E116EF40E126E4A0E136ED1EC0EF02A
:1013FC0010C04AF011C04BF012C04CF013C04DF0AD
:10140C00000E146E000E156E800E166E400E176ECA
:10141C004AC010F04BC011F04CC012F04DC013F08C
:10142C00D1EC0EF010C029F011C02AF012C02BF034
:10143C0013C02CF0000E2D6E000E2E6E800E2F6E33
:10144C00BF0E306E7EEC0AF029C046F02AC047F081
:10145C002BC048F02CC049F05EEF0AF04350D96E17
:10146C00DA6A040ED926DF50446E456A4550000AEC
:10147C00D8B443EF0AF05EEF0AF04450000AD8B437
:10148C0020EF08F0010AD8B479EF08F0030AD8B4B9
:10149C00D2EF08F0010AD8B42BEF09F0070AD8B440
:1014AC0084EF09F0010AD8B4DCEF09F05EEF0AF022
:1014BC0046C039F047C03AF048C03BF049C03CF058
:1014CC0021EC13F03950AF6E46C039F047C03AF0FA
:1014DC0048C03BF049C03CF021EC13F03AC039F065
:1014EC003BC03AF03CC03BF03C6A3950B06E120045
:1014FC002C50800B356E2C502C24376E2BAE89EF74
:10150C000AF08BEF0AF08CEF0AF037803750D8B422
:10151C0092EF0AF094EF0AF0A9EF0AF03728D8A45A
:10152C009AEF0AF09CEF0AF0A4EF0AF0000E296E75
:10153C00000E2A6E000E2B6E000E2C6E2B8E000EE3
:10154C002C6EB1EF0AF0000E296E000E2A6E000E02
:10155C002B6E000E2C6E3050800B366E35503618BC
:10156C00D8B4BBEF0AF0BDEF0AF0BEEF0AF0358C31
:10157C0030503024366E2FAEC6EF0AF0C8EF0AF0AA
:10158C00C9EF0AF036803650D8B4CFEF0AF0D1EF5D
:10159C000AF0E6EF0AF03628D8A4D7EF0AF0D9EF14
:1015AC000AF0E1EF0AF0000E2D6E000E2E6E000E0A
:1015BC002F6E000E306E2F8E000E306EEEEF0AF096
:1015CC00000E2D6E000E2E6E000E2F6E000E306E65
:1015DC003750365CD8B0F5EF0AF0F7EF0AF01EEF93
:1015EC000BF035ACFCEF0AF0FEEF0AF000EF0BF05D
:1015FC00800E351A37C038F036C037F038C036F0A8
:10160C0029C038F02DC029F038C02DF02AC038F090
:10161C002EC02AF038C02EF02BC038F02FC02BF083
:10162C0038C02FF02CC038F030C02CF038C030F05F
:10163C00000E386E375036C031F0326A315E000E13
:10164C00325A32BE33EF0BF0325009E11A0E315CD4
:10165C00D8A033EF0BF035EF0BF06CEF0BF02950FB
:10166C002A102B102C10D8A43EEF0BF041EF0BF0EE
:10167C00010E42EF0BF0000E386E000E296E000EBC
:10168C002A6E000E2B6E000E2C6E36C037F075EFE6
:10169C000BF038A054EF0BF056EF0BF05CEF0BF0A7
:1016AC00D89038300109386E5EEF0BF0D890383294
:1016BC0029A063EF0BF065EF0BF066EF0BF0388EA3
:1016CC002C342C322B322A322932372A3650375CC2
:1016DC00D8A073EF0BF075EF0BF04FEF0BF035BCA0
:1016EC007AEF0BF07CEF0BF0BCEF0BF03750D8A47B
:1016FC0082EF0BF084EF0BF08EEF0BF0000E296EE7
:10170C00000E2A6E000E2B6E000E2C6EDDEF0CF010
:10171C002D5029262E502A222F502B2230502C228D
:10172C002CA09BEF0BF09DEF0BF049EF0CF038A0C9
:10173C00A2EF0BF0A4EF0BF0AAEF0BF0D89038301F
:10174C000109386EACEF0BF0D890383229A0B1EF0C
:10175C000BF0B3EF0BF0B4EF0BF0388E2C342C32C3
:10176C002B322A322932372A49EF0CF02D50295CC2
:10177C002E502A582F502B582C50800A316E305036
:10178C00800A3158D8B0CDEF0BF0CFEF0BF0FAEF59
:10179C000BF029502D5C316E2A502E58326E2B5086
:1017AC002F58336E2C503058346EFF0E3124296E66
:1017BC00FF0E32202A6EFF0E33202B6EFF0E3420CC
:1017CC002C6E800E351A386C3850D8A4F0EF0BF014
:1017DC00F2EF0BF002EF0CF0010E2926000E2A227C
:1017EC002B222C2202EF0CF02D50295E2E502A5A5F
:1017FC002F502B5A30502C5A29502A102B102C10A9
:10180C00D8A40BEF0CF00DEF0CF042EF0CF03850AD
:10181C00D8A413EF0CF015EF0CF042EF0CF0000E07
:10182C00296E000E2A6E000E2B6E000E2C6EDDEF54
:10183C000CF0D89029362A362B362C3638AE29EFB8
:10184C000CF02BEF0CF02CEF0CF0298038A031EFC2
:10185C000CF033EF0CF037EF0CF0D880383639EF52
:10186C000CF0D89038363750D8B43FEF0CF041EF2D
:10187C000CF042EF0CF037062BAE47EF0CF049EFB3
:10188C000CF01FEF0CF0000E366E38AE50EF0CF073
:10189C0052EF0CF06AEF0CF038C031F07F0E3116BD
:1018AC00D8B45BEF0CF05DEF0CF061EF0CF0010EB7
:1018BC00366E6AEF0CF029A066EF0CF068EF0CF0B6
:1018CC006AEF0CF05DEF0CF03650D8B470EF0CF002
:1018DC0072EF0CF09DEF0CF0010E2926000E2A225F
:1018EC002B222C222CA07DEF0CF07FEF0CF09DEF27
:1018FC000CF029C031F02AC032F02BC033F02CC0D0
:10190C0034F03434343233323232313231C029F0A3
:10191C0032C02AF033C02BF034C02CF03728D8B4A6
:10192C009AEF0CF09CEF0CF09DEF0CF0372A372857
:10193C00D8B4A3EF0CF0A5EF0CF0ADEF0CF03750D2
:10194C00D8A4ABEF0CF0ADEF0CF0BFEF0CF0000E29
:10195C00296E000E2A6E000E2B6E000E2C6E375068
:10196C00D8A4BBEF0CF0BDEF0CF0BFEF0CF0000EE9
:10197C00356E37A0C4EF0CF0C6EF0CF0C9EF0CF0CD
:10198C002B8ECAEF0CF02B9ED89037302C6E35AEC8
:10199C00D2EF0CF0D4EF0CF0D5EF0CF02C8E29C05C
:1019AC0029F02AC02AF02BC02BF02CC02CF01200EE
:1019BC000600F2A8E4EF0CF0E6EF0CF0EFEF0CF001
:1019CC00F2A2EBEF0CF0EDEF0CF0EFEF0CF090EC73
:1019DC001AF0F0A6F4EF0CF0F6EF0CF0FFEF0CF0B1
:1019EC00F0A0FBEF0CF0FDEF0CF0FFEF0CF08EEC29
:1019FC001AF0F0A804EF0DF006EF0DF00FEF0DF05C
:101A0C00F0A20BEF0DF00DEF0DF00FEF0DF08CECD5
:101A1C001AF0F2A614EF0DF016EF0DF031EF0DF0F9
:101A2C00F2A01BEF0DF01DEF0DF031EF0DF081A8C2
:101A3C0022EF0DF024EF0DF031EF0DF07D04D8A462
:101A4C002AEF0DF02CEF0DF031EF0DF0000E7D6E46
:101A5C00010E64EC1AF0F2A636EF0DF038EF0DF033
:101A6C0053EF0DF0F2A03DEF0DF03FEF0DF053EF03
:101A7C000DF081B844EF0DF046EF0DF053EF0DF083
:101A8C007D50D8A44CEF0DF04EEF0DF053EF0DF050
:101A9C00010E7D6E000E64EC1AF0F2A658EF0DF0FC
:101AAC005AEF0DF075EF0DF0F2A05FEF0DF061EF56
:101ABC000DF075EF0DF081AA66EF0DF068EF0DF0EB
:101ACC0075EF0DF07C04D8A46EEF0DF070EF0DF0F7
:101ADC0075EF0DF0000E7C6E010E57EC1AF0F2A6AD
:101AEC007AEF0DF07CEF0DF097EF0DF0F2A081EF97
:101AFC000DF083EF0DF097EF0DF081BA88EF0DF03C
:101B0C008AEF0DF097EF0DF07C50D8A490EF0DF00C
:101B1C0092EF0DF097EF0DF0010E7C6E000E57EC6E
:101B2C001AF0F2A69CEF0DF09EEF0DF0B9EF0DF050
:101B3C00F2A0A3EF0DF0A5EF0DF0B9EF0DF081AC15
:101B4C00AAEF0DF0ACEF0DF0B9EF0DF07B04D8A4BB
:101B5C00B2EF0DF0B4EF0DF0B9EF0DF0000E7B6E9F
:101B6C00010E4AEC1AF0F2A6BEEF0DF0C0EF0DF02C
:101B7C00DBEF0DF0F2A0C5EF0DF0C7EF0DF0DBEFD2
:101B8C000DF081BCCCEF0DF0CEEF0DF0DBEF0DF0D6
:101B9C007B50D8A4D4EF0DF0D6EF0DF0DBEF0DF0A9
:101BAC00010E7B6E000E4AEC1AF0F2A6E0EF0DF07F
:101BBC00E2EF0DF0FDEF0DF0F2A0E7EF0DF0E9EF25
:101BCC000DF0FDEF0DF081AEEEEF0DF0F0EF0DF03E
:101BDC00FDEF0DF07A04D8A4F6EF0DF0F8EF0DF050
:101BEC00FDEF0DF0000E7A6E010E3DEC1AF0F2A630
:101BFC0002EF0EF004EF0EF01FEF0EF0F2A009EF63
:101C0C000EF00BEF0EF01FEF0EF081BE10EF0EF08A
:101C1C0012EF0EF01FEF0EF07A50D8A418EF0EF062
:101C2C001AEF0EF01FEF0EF0010E7A6E000E3DEC67
:101C3C001AF09DAC24EF0EF026EF0EF02FEF0EF005
:101C4C009EAC2BEF0EF02DEF0EF02FEF0EF098EC6C
:101C5C001AF0F2AA34EF0EF036EF0EF03FEF0EF062
:101C6C00F2A43BEF0EF03DEF0EF03FEF0EF07DECEB
:101C7C001AF09DA044EF0EF046EF0EF04FEF0EF071
:101C8C009EA04BEF0EF04DEF0EF04FEF0EF077ECF9
:101C9C001AF09DA254EF0EF056EF0EF05FEF0EF01F
:101CAC009EA25BEF0EF05DEF0EF05FEF0EF083EC9B
:101CBC001AF0A0A264EF0EF066EF0EF06FEF0EF0CC
:101CCC00A1A26BEF0EF06DEF0EF06FEF0EF071EC5A
:101CDC001AF09DA474EF0EF076EF0EF07FEF0EF07D
:101CEC009EA47BEF0EF07DEF0EF07FEF0EF096ECE6
:101CFC001AF0A0A084EF0EF086EF0EF08FEF0EF02E
:101D0C00A1A08BEF0EF08DEF0EF08FEF0EF094EC98
:101D1C001AF09DA894EF0EF096EF0EF09FEF0EF0D8
:101D2C009EA89BEF0EF09DEF0EF09FEF0EF092EC45
:101D3C001AF09DAAA4EF0EF0A6EF0EF0AFEF0EF086
:101D4C009EAAABEF0EF0ADEF0EF0AFEF0EF09DECE8
:101D5C001AF09DA6B4EF0EF0B6EF0EF0BFEF0EF03A
:101D6C009EA6BBEF0EF0BDEF0EF0BFEF0EF09BEC9E
:101D7C001AF0A0A6C4EF0EF0C6EF0EF0CFEF0EF0E7
:101D8C00A1A6CBEF0EF0CDEF0EF0CFEF0EF09CEC4A
:101D9C001AF07E9211001350800B206E13501324F6
:101DAC00276E12AEDCEF0EF0DEEF0EF0DFEF0EF072
:101DBC0027802750D8B4E5EF0EF0E7EF0EF0FCEFDC
:101DCC000EF02728D8A4EDEF0EF0EFEF0EF0F7EFA2
:101DDC000EF0000E106E000E116E000E126E000E44
:101DEC00136E128E000E136E04EF0FF0000E106EB9
:101DFC00000E116E000E126E000E136E1750800B3B
:101E0C00201A17501724286E16AE0FEF0FF011EF93
:101E1C000FF012EF0FF028802850D8B418EF0FF005
:101E2C001AEF0FF02FEF0FF02828D8A420EF0FF0A7
:101E3C0022EF0FF02AEF0FF0000E146E000E156E4D
:101E4C00000E166E000E176E168E000E176E37EF04
:101E5C000FF0000E146E000E156E000E166E000EB6
:101E6C00176E1450151016101710D8A440EF0FF061
:101E7C0042EF0FF05AEF0FF0000E106E000E116EC5
:101E8C00000E126E000E136E800E12127F0E1312C5
:101E9C002050131210C010F011C011F012C012F02B
:101EAC0013C013F09DEF10F02750D8A460EF0FF083
:101EBC0062EF0FF06CEF0FF0000E106E000E116E53
:101ECC00000E126E000E136E9DEF10F0285027C0FE
:101EDC0018F0196A185E000E195A7F0E1824216E1C
:101EEC00000E1920226E10C01CF011C01DF012C083
:101EFC001EF013C01FF0000E106E000E116E000EBF
:101F0C00126E000E136E000E236E000E246E000E69
:101F1C00256E000E266E000E286ECDEF0FF02850A9
:101F2C00D8B49BEF0FF09DEF0FF0B4EF0FF0D890FB
:101F3C001C361D361E361F36D8901036113612360A
:101F4C00133626AEACEF0FF0AEEF0FF0AFEF0FF095
:101F5C001080D890233624362536263614501C5C37
:101F6C0015501D5816501E5817501F58D8A0C1EFA9
:101F7C000FF0C3EF0FF0CCEF0FF0268C14501C5E5B
:101F8C0015501D5A16501E5A17501F5A282A190E32
:101F9C002864D3EF0FF0D5EF0FF095EF0FF01C5036
:101FAC001D101E101F10D8B4DEEF0FF0E0EF0FF075
:101FBC00F8EF0FF02380F8EF0FF0D89010361136B1
:101FCC001236133626AEEDEF0FF0EFEF0FF0F0EF09
:101FDC000FF01080D890233624362536263621066D
:101FEC00D8A0220612AEFDEF0FF0FFEF0FF0E3EFDB
:101FFC000FF0000E286E26AE06EF10F008EF10F072
:10200C002CEF10F0FF0E2314186EFF0E2414196E13
:10201C00FF0E25141A6E7F0E26141B6E1850191005
:10202C001A101B10D8B41DEF10F01FEF10F023EF97
:10203C0010F0010E286E2CEF10F010A028EF10F00D
:10204C002AEF10F02CEF10F01FEF10F02850D8B43E
:10205C0032EF10F034EF10F058EF10F0010E1026A4
:10206C00000E11221222132213A03FEF10F041EFA9
:10207C0010F058EF10F010C018F011C019F012C089
:10208C001AF013C01BF01B341B321A3219321832DF
:10209C0018C010F019C011F01AC012F01BC013F0C8
:1020AC00214A222A22BE63EF10F0225008E1212897
:1020BC00D8A063EF10F065EF10F070EF10F0000E89
:1020CC00226E2168000E106E000E116E000E126E44
:1020DC00000E136E22BE7DEF10F0225006E121049B
:1020EC00D8B07BEF10F07DEF10F08BEF10F0000EFE
:1020FC00226E000E216E000E106E000E116E000E80
:10210C00126E000E136E000E206E21C027F027A059
:10211C0092EF10F094EF10F097EF10F0128E98EF02
:10212C0010F0129ED8902730136E4EEF0FF0120065
:10213C000A6E0A50D8B4A5EF10F0A7EF10F0C9EF53
:10214C0010F005BEAEEF10F0ACEF10F0C9EF10F0D0
:10215C0002C006F003C007F004C008F005C009F087
:10216C00061E071E081E091E062A000E072208223C
:10217C00092206C00CF007C00DF008C00EF009C013
:10218C000FF0D1EF10F002C00CF003C00DF004C042
:10219C000EF005C00FF00250031004100510D8A467
:1021AC00DAEF10F0DCEF10F0E6EF10F0000E026E3C
:1021BC00000E036E000E046E000E056E77EF11F02C
:1021CC00960E0B6EF0EF10F00B2AD8900F320E32E9
:1021DC000D320C32000E0C14066E000E0D14076E30
:1021EC00000E0E14086EFE0E0F14096E065007102A
:1021FC0008100910D8A405EF11F007EF11F0EAEF61
:10220C0010F015EF11F00B2A010E0C26000E0D220A
:10221C000E220F22D8900F320E320D320C32000EDD
:10222C000C14066E000E0D14076E000E0E14086EC4
:10223C00FF0E0F14096E0650071008100910D8A4D1
:10224C002AEF11F02CEF11F009EF11F034EF11F02F
:10225C000B06D8900C360D360E360F360EBE39EFF7
:10226C0011F03BEF11F043EF11F0020E0B6041EF58
:10227C0011F043EF11F02EEF11F00BB048EF11F00D
:10228C004AEF11F04BEF11F00E9ED8900B320BC0B1
:10229C0006F0076A086A096A06C009F0086A076A44
:1022AC00066A06500C1207500D1208500E120950F7
:1022BC000F120A50D8B465EF11F067EF11F06FEF01
:1022CC0011F005BE6EEF11F06CEF11F06FEF11F025
:1022DC000F8E0CC002F00DC003F00EC004F00FC046
:1022EC0005F01200486E02EC1AF06D0E026E2BEC2B
:1022FC0019F04B6E4B04D8B486EF11F088EF11F047
:10230C008BEF11F04B500FEF12F06D0E026E48C0B8
:10231C0003F04A0E046E55EC17F04B6E4B04D8A428
:10232C009AEF11F09CEF11F088EF11F04A50D8B4ED
:10233C00A2EF11F0A4EF11F0A6EF11F088EF11F05D
:10234C006D0E026E47C003F04A0E046E55EC17F08A
:10235C004B6E4B04D8A4B5EF11F0B7EF11F088EF2A
:10236C0011F04A50D8B4BDEF11F0BFEF11F0C1EF2E
:10237C0011F088EF11F06D0E026EC0EC19F04B6E7F
:10238C004B04D8B4CCEF11F0CEEF11F0D0EF11F02C
:10239C0088EF11F06D0E026ED10E036E4A0E046EB4
:1023AC0055EC17F04B6E4B04D8A4DFEF11F0E1EFB6
:1023BC0011F088EF11F04A50D8B4E7EF11F0E9EFC3
:1023CC0011F0EBEF11F088EF11F06D0E026E010EB3
:1023DC00036E490E046E90EC17F04B6E4B04D8B4A0
:1023EC00FAEF11F0FCEF11F0FEEF11F088EF11F0A5
:1023FC00499E6D0E026E0BEC19F04B6E4B04D8B46B
:10240C000AEF12F00CEF12F00EEF12F088EF11F051
:10241C0049501200010E086E0250D8B418EF12F099
:10242C001AEF12F02AEF12F00250D96EDA6ADF308E
:10243C00E832E832070B036E070E036428EF12F044
:10244C002AEF12F081EF12F0000E086E97EF12F0E7
:10245C000250D96EDA6ADF30E832E832070B036ECD
:10246C00010E046E032A3DEF12F0D8900436032EB1
:10247C003BEF12F00450FF0A056E0250D96EDA6A77
:10248C00DF50070B020DF350EE0FD96EDA6ADECF78
:10249C0006F0DDCF07F006C0D9FF07C0DAFF055004
:1024AC00DF1697EF12F00250D96EDA6ADF30E8329D
:1024BC00E832070B036E010E046E032A68EF12F06C
:1024CC00D8900436032E66EF12F00250D96EDA6AF9
:1024DC00DF50070B020DF350EE0FD96EDA6ADECF28
:1024EC0005F0DDCF06F005C0D9FF06C0DAFF0450B9
:1024FC00DF1297EF12F00250D96EDA6ADFBC89EF67
:10250C0012F08CEF12F0010E8DEF12F0000E000A9B
:10251C00D8B42EEF12F0010AD8B459EF12F02AEF0A
:10252C0012F008501200010E096E0250D8B4A1EF3F
:10253C0012F0A3EF12F0B3EF12F00250D96EDA6A78
:10254C00DF30E832E832070B046E070E0464B1EF9B
:10255C0012F0B3EF12F00AEF13F0000E096E1FEF3A
:10256C0013F00250D96EDA6ADF30E832E832070B2A
:10257C00046E010E056E042AC6EF12F0D8900536D3
:10258C00042EC4EF12F00550FF0A066E0250D96EED
:10259C00DA6ADF50070B020DF350E40FD96EDA6ADA
:1025AC00DECF07F0DDCF08F007C0D9FF08C0DAFF97
:1025BC000650DF161FEF13F00250D96EDA6ADF30C7
:1025CC00E832E832070B046E010E056E042AF1EFB7
:1025DC0012F0D8900536042EEFEF12F00250D96E9F
:1025EC00DA6ADF50070B020DF350E40FD96EDA6A8A
:1025FC00DECF06F0DDCF07F006C0D9FF07C0DAFF4B
:10260C000550DF121FEF13F00350046E056A0550DE
:10261C00000AD8B414EF13F0B3EF12F00450000A10
:10262C00D8B4B7EF12F0010AD8B4E2EF12F0B3EF5E
:10263C0012F0095012003B343C34426E4250D8A484
:10264C002AEF13F02CEF13F036EF13F0000E396E67
:10265C00000E3A6E000E3B6E000E3C6EA3EF13F0B4
:10266C0039C03DF03AC03EF03BC03FF03CC040F0BA
:10267C00200E46EF13F0D89040323F323E323D32BE
:10268C00E82E41EF13F03D50416E3B8EFF0E391694
:10269C00FF0E3A16FF0E3B16000E3C16960E425ECF
:1026AC0042BE5DEF13F05BEF13F073EF13F042508B
:1026BC00800A970FD8B065EF13F067EF13F069EF4E
:1026CC0013F02CEF13F0D8903C323B323A323932C3
:1026DC00423E69EF13F08BEF13F01F0E426479EF5B
:1026EC0013F07BEF13F083EF13F02CEF13F0D89073
:1026FC0039363A363B363C3642064250D8A489EF3E
:10270C0013F08BEF13F07DEF13F04150D8B491EF31
:10271C0013F093EF13F09BEF13F03C1E3B1E3A1E8D
:10272C00396C000E3A223B223C2239C039F03AC0B7
:10273C003AF03BC03BF03CC03CF01200000E126E75
:10274C001050D8A4ACEF13F0AEEF13F0B2EF13F0BF
:10275C00000E136E1CEF14F010C00AF032EC18F0DF
:10276C00136E10280A6E32EC18F0136E000E126EF7
:10277C0010501224020F0A6E32EC18F0122A030EBB
:10278C001264CBEF13F0CDEF13F0BEEF13F01A0E73
:10279C00116EF80EE82EFED7112EFCD700D010C00B
:1027AC000DF0380E0E6E8FEC18F0070E116E7D0EBC
:1027BC00E82EFED7112EFCD7000010C00DF0380EFD
:1027CC000E6E8FEC18F0C30E116ECD0EE82EFED7E8
:1027DC00112EFCD7000010C00DF0380E0E6E8FECD1
:1027EC0018F010C00DF0010E0E6E8FEC18F010C02A
:1027FC000DF0020E0E6E8FEC18F010C00DF0060EE0
:10280C000E6E8FEC18F010C00DF00C0E0E6E8FECDF
:10281C0018F010C00DF0280E0E6E8FEC18F010C0D2
:10282C000DF0800E0E6E8FEC18F0136E135012001C
:10283C0016EC17F0740E146E010E156E010E166E5A
:10284C00200E176E1750D8A4100E186E9EEC15F0B3
:10285C0055380F0B300F1A6E55500F0B300F1B6E77
:10286C002D0E1C6E56380F0B300F1D6E56500F0B65
:10287C00300F1E6E2D0E1F6E57380F0B300F206E43
:10288C0057500F0B300F216E000E226E740E146E0B
:10289C00010E156E070E166E1A0E176E186A9EEC48
:1028AC0015F0740E146E030E156E010E166E190EC5
:1028BC00176E1750D8A4100E186E9EEC15F05438E5
:1028CC000F0B300F1A6E54500F0B300F1B6E3A0E4D
:1028DC001C6E53380F0B300F1D6E53500F0B300FF7
:1028EC001E6E3A0E1F6E52380F0B300F206E525068
:1028FC000F0B300F216E000E226E740E146E030E31
:10290C00156E070E166E1A0E176E186A9EEC15F0E1
:10291C0012000250D96EDA6A080ED926DFA099EFA0
:10292C0014F09BEF14F0F4EF14F0AB880250D96E56
:10293C00DA6A0C0ED926DECF90F0DDCF91F0025082
:10294C00D96EDA6A0E0ED926DECF8EF0DDCF8FF07F
:10295C000250D96EDA6A100ED926DECF8CF0DDCF9C
:10296C008DF00250D96EDA6A080ED926DFA2C1EFBB
:10297C0014F0C3EF14F0C9EF14F09D8A9D8AF28E07
:10298C00F28CD6EF14F00250D96EDA6A080ED92602
:10299C00DFB2D3EF14F0D5EF14F0D6EF14F09D9A0C
:1029AC000250D96EDA6A080ED926DFA4E0EF14F0D3
:1029BC00E2EF14F0E5EF14F0AB8CF4EF14F00250EE
:1029CC00D96EDA6A080ED926DFB4EFEF14F0F1EF06
:1029DC0014F0F4EF14F0AB9CF4EF14F01200D9ECFB
:1029EC0019F055380F0B300F0001B66F55500F0B07
:1029FC00300FB76F2D0EB86F56380F0B300FB96FF5
:102A0C0056500F0B300FBA6F2D0EBB6F57380F0B84
:102A1C00300FBC6F57500F0B300FBD6F2F0EBE6FAA
:102A2C0054380F0B300FBF6F54500F0B300FC06F5B
:102A3C002D0EC16F53380F0B300FC26F53500F0B4D
:102A4C00300FC36F2D0EC46F52380F0B300FC56F84
:102A5C0052500F0B300FC66F0D0EC76F110E036E59
:102A6C000350D8A4100E046E000E066E080E056EF0
:102A7C00D5EC16F0B60E036E046A000E066E120E3E
:102A8C00056ED5EC16F012000250D96EDA6A060EFD
:102A9C00D926DFA054EF15F056EF15F09DEF15F089
:102AAC00AC8A0250D96EDA6A0A0ED926DECF92F0C1
:102ABC00DDCF93F00250D96EDA6A060ED926DFA26A
:102ACC006AEF15F06CEF15F072EF15F09D889D888C
:102ADC00F28EF28C7FEF15F00250D96EDA6A060E88
:102AEC00D926DFB27CEF15F07EEF15F07FEF15F0F5
:102AFC009D980250D96EDA6A060ED926DFA489EFAA
:102B0C0015F08BEF15F08EEF15F0AC8C9DEF15F0EA
:102B1C000250D96EDA6A060ED926DFB498EF15F09A
:102B2C009AEF15F09DEF15F0AC9C9DEF15F012008F
:102B3C001450D8B4A4EF15F0A6EF15F0AFEF15F0C4
:102B4C0017501810D8A4ADEF15F0AFEF15F0B3EF88
:102B5C0015F0000E196EF0EF15F014C010F015C042
:102B6C0011F016C012F0F2EC15F0196ED7EF15F04B
:102B7C0014C00DF017C0F6FF18C0F7FF000EF86E6A
:102B8C000F0EF76403D00800F55005D0F6CFE9FF1F
:102B9C00F7CFEAFFEF500E6E61EC18F0196E174A82
:102BAC00182A17C0F6FF18C0F7FF000EF86E0F0EAC
:102BBC00F76403D00800F55005D0F6CFE9FFF7CF46
:102BCC00EAFFEF500009D8A4EEEF15F0F0EF15F086
:102BDC00BEEF15F019501200010E136E12061050B4
:102BEC00D8A4FBEF15F0FDEF15F029EF16F0000E51
:102BFC00136E3CEF16F010C00DF01250800F0E6EDD
:102C0C008FEC18F0136E3CEF16F010C00DF0125054
:102C1C00C00F0E6E8FEC18F0136E3CEF16F010C058
:102C2C000DF01250940F0E6E8FEC18F0136E3CEFEB
:102C3C0016F010C00DF01250D40F0E6E8FEC18F071
:102C4C00136E3CEF16F01150010AD8B401EF16F0D8
:102C5C00030AD8B40BEF16F0010AD8B415EF16F02E
:102C6C00070AD8B41FEF16F03CEF16F01350120001
:102C7C004550D8A444EF16F046EF16F04AEF16F084
:102C8C00000E466E88EF16F0C69A4550D96EDA6A79
:102C9C00060ED926DFA055EF16F057EF16F05DEFB4
:102CAC0016F045C043F08AEC16F07BEF16F0455059
:102CBC00D96EDA6A060ED926DFB067EF16F069EF27
:102CCC0016F07BEF16F045C002F0A3EC19F0C69E8F
:102CDC00C69CC6884550D96EDA6A050ED926DF50D7
:102CEC00C86E45C002F030EC1AF087EC1AF045C003
:102CFC0002F069EC19F045C002F086EC19F0C68AB6
:102D0C00010E466E465012004350D96EDA6A040E1C
:102D1C00D926DF50446EC6504418F00B4418C66ECA
:102D2C00000E2D6E000E2E6E800E2F6EBF0E306EAE
:102D3C004350D96EDA6ADECF02F0DECF03F0DECF7D
:102D4C0004F0DECF05F0000E9EEC10F002C014F083
:102D5C0003C015F004C016F005C017F0000E106E7D
:102D6C00240E116EF40E126E490E136ED1EC0EF091
:102D7C0010C029F011C02AF012C02BF013C02CF097
:102D8C007EEC0AF029C039F02AC03AF02BC03BF097
:102D9C002CC03CF021EC13F03950C86E12000350DB
:102DAC000410D8A4DCEF16F0DEEF16F0E2EF16F00C
:102DBC00000E096E14EF17F0000E0B6E000E0A6E6B
:102DCC00000E0B6E000E0A6E07EF17F00A5003246C
:102DDC00076E0B500420086E07C0F6FF08C0F7FF03
:102DEC00000EF86E0F0EF76403D00800F55005D0F6
:102DFC00F6CFE9FFF7CFEAFFEF5023EC1AF00A4ABF
:102E0C000B2A05500A5C06500B58D8A010EF17F08F
:102E1C0012EF17F0ECEF16F0010E096E09501200CC
:102E2C007450F80B0309746EC70E7416749E749C60
:102E3C007550F80B0309756E7550C70B0809756E44
:102E4C00759E759C7650F80B0309766E7650C70B01
:102E5C001009766E769E769C7750F80B0309776E88
:102E6C007750C70B1809776E779E779C7850F80BC4
:102E7C000309786E7850C70B2009786E789E789C81
:102E8C007950F80B0309796E7950C70B2809796EC4
:102E9C00799E799C740E106EA4EC13F01200025003
:102EAC00D8B45BEF17F05DEF17F065EF17F0045037
:102EBC00D8A463EF17F065EF17F069EF17F0000E69
:102ECC00056E8EEF17F003C0C9FF9EA670EF17F0CA
:102EDC0072EF17F06BEF17F09E96C5BC78EF17F0FA
:102EEC007AEF17F080EF17F00450D96EDA6ADF6AC8
:102EFC008CEF17F0C5AC85EF17F087EF17F08CEF60
:102F0C0017F00450D96EDA6A010EDF6E010E056EF1
:102F1C00055012000250D8B496EF17F098EF17F046
:102F2C00A0EF17F00450D8A49EEF17F0A0EF17F005
:102F3C00A4EF17F0000E056EC8EF17F0C586C7A0FA
:102F4C00AAEF17F0ACEF17F0A5EF17F00450D96EFD
:102F5C00DA6AC9CFDFFF0350D8A4B7EF17F0B9EF87
:102F6C0017F0BCEF17F0C59AC5EF17F00304D8A4FF
:102F7C00C2EF17F0C4EF17F0C5EF17F0C58AC5887C
:102F8C00010E056E055012000A50D8A4D0EF17F0B0
:102F9C00D2EF17F0D6EF17F0000E0C6EFFEF17F014
:102FAC000A50020F026E0B50010B036E99EC12F0DB
:102FBC000C6E0A50030F026ED8900B30010B036E8F
:102FCC0099EC12F00C6E0A50040F026E0B40E842A2
:102FDC003F0B010B036E99EC12F00C6E0A50050FAF
:102FEC00026E0B38E8461F0B010B036E99EC12F0C6
:102FFC000C6E0C501200280EF66E340EF76E000E8E
:10300C00F86E00EEDAF010EE1EF00900F5CFEEFFD0
:10301C00E550E150FAE1140EF66E350EF76E000E27
:10302C00F86E00EE7AF010EE04F00900F5CFEEFF2A
:10303C00E550E150FAE100EE80F05A0EEE6AE80637
:10304C00FDE100EE52F0280EEE6AE806FDE17E90FE
:10305C007E920001EFEF19F0010E0C6E0A50D8B4FD
:10306C003AEF18F03CEF18F04CEF18F00A50D96E0C
:10307C00DA6ADF30E832E832070B0B6E070E0B64AE
:10308C004AEF18F04CEF18F050EF18F0000E0C6EE1
:10309C005FEF18F00AC002F010EC12F00AC002F058
:1030AC000A50D96EDA6A000EDFBE010E036E99EC7F
:1030BC0012F00C5012000D50D8A467EF18F069EF05
:1030CC0018F06DEF18F0000E0F6E8DEF18F00DC0AC
:1030DC0002F0010E036E99EC12F00F6E0DC00AF0A7
:1030EC000E380F0B0B6ECAEC17F00F6E0DC00AF0FA
:1030FC004BEC19F00F6E0DC00AF00EC00BF0CAECC1
:10310C0017F00F6E0DC00AF04BEC19F00F6E0F504C
:10311C0012000D50D8A495EF18F097EF18F09BEF14
:10312C0018F0000E0F6EBBEF18F00DC002F0000E81
:10313C00036E99EC12F00F6E0DC00AF00E380F0BE7
:10314C000B6ECAEC17F00F6E0DC00AF04BEC19F0B9
:10315C000F6E0DC00AF00EC00BF0CAEC17F00F6E1C
:10316C000DC00AF04BEC19F00F6E0F501200000E50
:10317C00476ED00E78EC11F0526E010E476ED00EE9
:10318C0078EC11F0536E020E476ED00E78EC11F005
:10319C00546E040E476ED00E78EC11F0556E050E81
:1031AC00476ED00E78EC11F0566E060E476ED00EB0
:1031BC0078EC11F0576E20EE52F000EE4CF0050E4C
:1031CC00DBCFEBFFE806FCE212004E50D8A4F1EF87
:1031DC0018F0F3EF18F0F7EF18F0000E4F6E09EF40
:1031EC0019F0AB9E948E948C4EC043F016EC08F004
:1031FC004EC002F04AEC15F04EC002F08FEC14F009
:10320C00AB8E010E4F6E4F5012000250D8A411EF2E
:10321C0019F013EF19F017EF19F0000E036E29EFE8
:10322C0019F0C584C5B41DEF19F01FEF19F018EF94
:10323C0019F09E96C7A825EF19F027EF19F013EF98
:10324C0019F0010E036E035012000250D8A431EF96
:10325C0019F033EF19F037EF19F0000E036E49EF48
:10326C0019F0C580C5B03DEF19F03FEF19F038EFFC
:10327C0019F09E96C7A645EF19F047EF19F033EFFA
:10328C0019F0010E036E035012000A50D8A451EF2E
:10329C0019F053EF19F057EF19F0000E0B6E67EFA2
:1032AC0019F00A28026E010E036E99EC12F000D090
:1032BC0000D000000A28026E000E036E99EC12F08A
:1032CC000B6E0B5012000250D96EDA6A060ED9261C
:1032DC00DFA273EF19F075EF19F078EF19F0C78EC4
:1032EC0085EF19F00250D96EDA6A060ED926DFB2D4
:1032FC0082EF19F084EF19F085EF19F0C79E1200D8
:10330C000250D96EDA6A060ED926DFA490EF19F0B6
:10331C0092EF19F095EF19F0C78CA2EF19F002504B
:10332C00D96EDA6A060ED926DFB49FEF19F0A1EF39
:10333C0019F0A2EF19F0C79C12000250D96EDA6A8C
:10334C00060ED926DFA6ADEF19F0AFEF19F0B2EFEC
:10335C0019F0C58EBFEF19F00250D96EDA6A060E5D
:10336C00D926DFB6BCEF19F0BEEF19F0BFEF19F09C
:10337C00C59E12000250D8A4C6EF19F0C8EF19F080
:10338C00CCEF19F0000E036ED7EF19F0C582C5B261
:10339C00D2EF19F0D4EF19F0CDEF19F09E96010E83
:1033AC00036E03501200800E0001C86F250EC96F0A
:1033BC00000ECA6F000ECB6F000ECC6FCE81CE9577
:1033CC00CE93D081D095D093C80E4E6EEBEC18F006
:1033DC0012009AEC1AF0BDEC18F020EE80F0050EFD
:1033EC00EBCFDBFFE806FCE21EEC14F0F5EC14F07E
:1033FC00F1EF19F007EF00F0A00E6D6E860E6E6EF9
:10340C00010E6F6E000E706E7380080E716E7384F9
:10341C0073926D0E456E3EEC16F01200800F810F0C
:10342C00820F830F840F890F8A0F8B0F8C0F8D0FD8
:10343C00920F930F940F950F960F026EACA229EF7B
:10344C001AF02BEF1AF024EF1AF09D8802C0ADFF92
:10345C00010E12000250D96EDA6A040ED926DF5022
:10346C00036EC6500318F00B0318C66E1200016EE3
:10347C00F2900104D8A445EF1AF047EF1AF049EF87
:10348C001AF049EF1AF01200016EF2900104D8A460
:10349C0052EF1AF054EF1AF056EF1AF056EF1AF0EA
:1034AC001200016EF2900104D8A45FEF1AF061EFE4
:1034BC001AF063EF1AF063EF1AF01200016EF2903B
:1034CC000104D8A46CEF1AF06EEF1AF070EF1AF03A
:1034DC0070EF1AF01200A1925950B36E58C0B2FF9F
:1034EC0012009E905B50CF6E5AC0CEFF1200F29429
:1034FC005D50D76E5CC0D6FF12009E9264C0CCFFAC
:10350C00120094869488120001010101F0921200BD
:10351C00F0961200F29212009D981200A1901200E7
:10352C009E9412009E9C12001200120012001200B7
:020000040030CA
:0E000000FF071F1FFF8185FF0FC00FE00F409D
:00000001FF
