:0400000007EF00F016
:0A0008007E821BED08F0E6EF0FF01A
:10100000003738392F3435362A3132332D43303DCD
:101010002B44697374616E63653A200044617465A2
:10102000203A200054696D653A2000446174653AA5
:101030002000256900000600F2A821EF08F023EF48
:1010400008F02CEF08F0F2A228EF08F02AEF08F0E1
:101050002CEF08F0D7EC12F0F0A631EF08F033EFE8
:1010600008F03CEF08F0F0A038EF08F03AEF08F095
:101070003CEF08F0D5EC12F0F0A841EF08F043EF98
:1010800008F04CEF08F0F0A248EF08F04AEF08F043
:101090004CEF08F0D3EC12F0F2A651EF08F053EF4A
:1010A00008F06EEF08F0F2A058EF08F05AEF08F0E1
:1010B0006EEF08F081A85FEF08F061EF08F06EEFC7
:1010C00008F07D04D8A467EF08F069EF08F06EEF30
:1010D00008F0000E7D6E010E90EC12F0F2A673EF98
:1010E00008F075EF08F090EF08F0F2A07AEF08F042
:1010F0007CEF08F090EF08F081B881EF08F083EF03
:1011000008F090EF08F07D50D8A489EF08F08BEF3D
:1011100008F090EF08F0010E7D6E000E90EC12F0DA
:10112000F2A695EF08F097EF08F0B2EF08F0F2A002
:101130009CEF08F09EEF08F0B2EF08F081AAA3EF51
:1011400008F0A5EF08F0B2EF08F07C04D8A4ABEFEC
:1011500008F0ADEF08F0B2EF08F0000E7C6E010E63
:1011600083EC12F0F2A6B7EF08F0B9EF08F0D4EF75
:1011700008F0F2A0BEEF08F0C0EF08F0D4EF08F0DE
:1011800081BAC5EF08F0C7EF08F0D4EF08F07C5043
:10119000D8A4CDEF08F0CFEF08F0D4EF08F0010E9F
:1011A0007C6E000E83EC12F0F2A6D9EF08F0DBEFB4
:1011B00008F0F6EF08F0F2A0E0EF08F0E2EF08F038
:1011C000F6EF08F081ACE7EF08F0E9EF08F0F6EF92
:1011D00008F07B04D8A4EFEF08F0F1EF08F0F6EF89
:1011E00008F0000E7B6E010E76EC12F0F2A6FBEF1B
:1011F00008F0FDEF08F018EF09F0F2A002EF09F097
:1012000004EF09F018EF09F081BC09EF09F00BEFCA
:1012100009F018EF09F07B50D8A411EF09F013EF93
:1012200009F018EF09F0010E7B6E000E76EC12F05B
:10123000F2A61DEF09F01FEF09F03AEF09F0F2A056
:1012400024EF09F026EF09F03AEF09F081AE2BEF19
:1012500009F02DEF09F03AEF09F07A04D8A433EF42
:1012600009F035EF09F03AEF09F0000E7A6E010E41
:1012700069EC12F0F2A63FEF09F041EF09F05CEFE4
:1012800009F0F2A046EF09F048EF09F05CEF09F031
:1012900081BE4DEF09F04FEF09F05CEF09F07A5095
:1012A000D8A455EF09F057EF09F05CEF09F0010EF3
:1012B0007A6E000E69EC12F09DAC61EF09F063EFFD
:1012C00009F06CEF09F09EAC68EF09F06AEF09F0E5
:1012D0006CEF09F0DFEC12F0F2AA71EF09F073EF96
:1012E00009F07CEF09F0F2A478EF09F07AEF09F049
:1012F0007CEF09F0BEEC12F09DA081EF09F083EFC6
:1013000009F08CEF09F09EA088EF09F08AEF09F050
:101310008CEF09F0B8EC12F09DA291EF09F093EF79
:1013200009F09CEF09F09EA298EF09F09AEF09F0FE
:101330009CEF09F0C9EC12F0A0A2A1EF09F0A3EF15
:1013400009F0ACEF09F0A1A2A8EF09F0AAEF09F0AB
:10135000ACEF09F0B2EC12F09DA4B1EF09F0B3EFDD
:1013600009F0BCEF09F09EA4B8EF09F0BAEF09F05C
:10137000BCEF09F0DDEC12F0A0A0C1EF09F0C3EF63
:1013800009F0CCEF09F0A1A0C8EF09F0CAEF09F00D
:10139000CCEF09F0DBEC12F09DA8D1EF09F0D3EF10
:1013A00009F0DCEF09F09EA8D8EF09F0DAEF09F0B8
:1013B000DCEF09F0D9EC12F09DAAE1EF09F0E3EFC0
:1013C00009F0ECEF09F09EAAE8EF09F0EAEF09F066
:1013D000ECEF09F0E2EC12F09DA6F1EF09F0F3EF6B
:1013E00009F0FCEF09F09EA6F8EF09F0FAEF09F01A
:1013F000FCEF09F0CFEC12F0A0A601EF0AF003EF2A
:101400000AF00CEF0AF0A1A608EF0AF00AEF0AF0C2
:101410000CEF0AF0D1EC12F07E9211004D50D96E13
:10142000DA6ADFCFF6FF100EF76EF86A0800F550A3
:10143000250AD8A41EEF0AF020EF0AF0E2EF0AF026
:101440004D50D96EDA6ADF2A000E0001876F000E58
:10145000866F86C02DF0886989694D50D96EDA6A29
:10146000DF50516E51C0F6FF100EF76EF86A08009B
:10147000F550640AD8B43FEF0AF041EF0AF050EF9C
:101480000AF051C0F6FF100EF76EF86A0800F5502A
:10149000690AD8A44EEF0AF050EF0AF0DCEF0AF028
:1014A0004E50D96EDA6A020EDF26DF5CD96EDA6A38
:1014B000DECF52F0DECF53F04D50D96EDA6A5128AC
:1014C000DF6E200E566E53BE68EF0AF06BEF0AF027
:1014D000010E6CEF0AF0000E506E5606000E5624F8
:1014E000D96EDA6A010EDA2252C042F053C043F0DC
:1014F000000E456E0A0E446E58EC0DF042C048F0E6
:1015000043C049F014EC12F04850300FDF6E52C067
:1015100042F053C043F0000E456E0A0E446EF6ECE6
:101520000CF042C052F043C053F052505310D8B4A4
:101530009CEF0AF09EEF0AF0A6EF0AF05650D8A4EE
:10154000A4EF0AF0A6EF0AF06DEF0AF05650D8B4F7
:10155000ACEF0AF0AEEF0AF0D1EF0AF05050D8B479
:10156000B4EF0AF0B6EF0AF0D1EF0AF05606000E1B
:101570005624D96EDA6A010EDA222D0EDF6ED1EF13
:101580000AF0000E5624D96EDA6A010EDA22DF5014
:101590004F6E4F50426E436A4CC044F006EC0EF062
:1015A000562A200E5618D8A4D8EF0AF0DAEF0AF01F
:1015B000C1EF0AF0F4EF0AF04D50D96EDA6ADF2A73
:1015C000F4EF0AF04D50D96EDA6ADFCFF6FF100E55
:1015D000F76EF86A0800F550426E436A4CC044F05A
:1015E00006EC0EF0DCEF0AF01200010E486E4250DD
:1015F000D8B4FDEF0AF0FFEF0AF00FEF0BF0425006
:10160000D96EDA6ADF30E832E832070B436E070E34
:1016100043640DEF0BF00FEF0BF066EF0BF0000ED5
:10162000486E7CEF0BF04250D96EDA6ADF30E83258
:10163000E832070B436E010E446E432A22EF0BF093
:10164000D8904436432E20EF0BF04450FF0A456EED
:101650004250D96EDA6ADF50070B020DF350EF0FDC
:10166000D96EDA6ADECF46F0DDCF47F046C0D9FF4B
:1016700047C0DAFF4550DF167CEF0BF04250D96EC1
:10168000DA6ADF30E832E832070B436E010E446E4F
:10169000432A4DEF0BF0D8904436432E4BEF0BF01E
:1016A0004250D96EDA6ADF50070B020DF350EF0F8C
:1016B000D96EDA6ADECF45F0DDCF46F045C0D9FFFE
:1016C00046C0DAFF4450DF127CEF0BF04250D96E77
:1016D000DA6ADFBC6EEF0BF071EF0BF0010E72EF08
:1016E0000BF0000E000AD8B413EF0BF0010AD8B4C7
:1016F0003EEF0BF00FEF0BF048501200010E496E59
:101700004250D8B486EF0BF088EF0BF098EF0BF057
:101710004250D96EDA6ADF30E832E832070B446EA5
:10172000070E446496EF0BF098EF0BF0EFEF0BF021
:10173000000E496E04EF0CF04250D96EDA6ADF30C9
:10174000E832E832070B446E010E456E442AABEFD7
:101750000BF0D8904536442EA9EF0BF04550FF0A08
:10176000466E4250D96EDA6ADF50070B020DF35015
:10177000E50FD96EDA6ADECF47F0DDCF48F047C01B
:10178000D9FF48C0DAFF4650DF1604EF0CF0425094
:10179000D96EDA6ADF30E832E832070B446E010EA8
:1017A000456E442AD6EF0BF0D8904536442ED4EF40
:1017B0000BF04250D96EDA6ADF50070B020DF3507E
:1017C000E50FD96EDA6ADECF46F0DDCF47F046C0CE
:1017D000D9FF47C0DAFF4550DF1204EF0CF0435049
:1017E000446E456A4550000AD8B4F9EF0BF098EF03
:1017F0000BF04450000AD8B49CEF0BF0010AD8B4A7
:10180000C7EF0BF098EF0BF049501200000E536E2B
:101810005050D8A40EEF0CF010EF0CF014EF0CF0B9
:10182000000E546E80EF0CF050C04AF014EC11F032
:10183000546E50284A6E14EC11F0546E000E536E24
:1018400050505324020F4A6E14EC11F0532A030E29
:1018500053642DEF0CF02FEF0CF020EF0CF0340E52
:10186000516EF20EE82EFED7512EFCD750C04DF02F
:10187000380E4E6E71EC11F00D0E516EFC0EE82E0E
:10188000FED7512EFCD750C04DF0380E4E6E71EC85
:1018900011F0020E526E860E516E990EE82EFED792
:1018A000512EFCD7522EFAD7000050C04DF0380E02
:1018B0004E6E71EC11F050C04DF0010E4E6E71EC99
:1018C00011F050C04DF0020E4E6E71EC11F050C090
:1018D0004DF0060E4E6E71EC11F050C04DF00C0E36
:1018E0004E6E71EC11F050C04DF0280E4E6E71EC42
:1018F00011F050C04DF0800E4E6E71EC11F0546E30
:1019000054501200000E4D6E000E4C6E000E4F6EC5
:101910009DEC12F04A50D8B490EF0CF092EF0CF01E
:101920009AEF0CF04B50D8A498EF0CF09AEF0CF013
:101930009EEF0CF0000E4E6EF4EF0CF0DF0E426ED8
:10194000000E446E000E436E48EC12F04AC042F0A6
:10195000010E436E7EEC0BF0060EE82EFED700D093
:101960004AC042F0000E436E7EEC0BF0BEEF0CF06E
:101970004A28426E4F0E436EB0EC0DF04F50D8B473
:10198000C4EF0CF0C6EF0CF0B8EF0CF0DF0E436EB6
:1019900002EC0FF0D2EF0CF04A28426E4F0E436E6D
:1019A000B0EC0DF04F04D8B4D8EF0CF0DAEF0CF037
:1019B000CCEF0CF0CD90DF0E426E4C0E436EE3EC9C
:1019C00010F04CC042F04DC043F0000E456E390E91
:1019D000446E72EC10F04B50D96EDA6A42C0DEFFF2
:1019E00043C0DDFF010E4E6E4E501200000E476EDA
:1019F00045BEFFEF0CF0FDEF0CF005EF0DF0446C71
:101A0000451ED8B0452A010E476E43BE0CEF0DF0BF
:101A10000AEF0DF012EF0DF0426C431ED8B0432ACE
:101A2000010E471A000E496E000E486E44504510D4
:101A3000D8B41DEF0DF01FEF0DF047EF0DF0010EC4
:101A4000466E27EF0DF0D89044364536462A45AE0F
:101A50002CEF0DF02EEF0DF023EF0DF0D89048365F
:101A600049364450425C45504358D8A03AEF0DF0F7
:101A70003CEF0DF041EF0DF04450425E4550435AAB
:101A80004880D89045324432462E2EEF0DF0475014
:101A9000D8B44DEF0DF04FEF0DF053EF0DF0486C53
:101AA000491ED8B0492A48C042F049C043F012004C
:101AB000000E476E43BE61EF0DF05FEF0DF067EF74
:101AC0000DF0426C431ED8B0432A010E476E45BE4E
:101AD0006EEF0DF06CEF0DF072EF0DF0446C451EE3
:101AE000D8B0452A44504510D8B479EF0DF07BEFBB
:101AF0000DF09FEF0DF0010E466E83EF0DF0D890C4
:101B000044364536462A45AE88EF0DF08AEF0DF093
:101B10007FEF0DF04450425C45504358D8A093EFFE
:101B20000DF095EF0DF099EF0DF04450425E4550E9
:101B3000435AD89045324432462E8AEF0DF0475032
:101B4000D8B4A5EF0DF0A7EF0DF0ABEF0DF0426CA0
:101B5000431ED8B0432A42C042F043C043F01200B3
:101B6000010E496E4250D8B4B8EF0DF0BAEF0DF047
:101B7000D2EF0DF04350D8B4C0EF0DF0C2EF0DF02E
:101B8000D2EF0DF04250D96EDA6ADF30E832E83237
:101B9000070B446E070E4464D0EF0DF0D2EF0DF04A
:101BA000D6EF0DF0000E496E04EF0EF04350D96EE3
:101BB000DA6A4250E16EE26AE730E832E832070B57
:101BC000446E4250E16EE26AE750070B456E4550A5
:101BD000020D3E0EF324E16E010EF420E26EE6CF1C
:101BE00046F0E5CF47F046C0E1FF47C0E2FFE750CF
:101BF000486E442AFEEF0DF0D8904832442EFCEF98
:101C00000DF04850010BDF6E495012004450D8B41B
:101C10000CEF0EF00EEF0EF016EF0EF04450D8A4BD
:101C200014EF0EF016EF0EF01BEF0EF04250E1EC49
:101C300012F05AEF0EF04450D96EDA6A0A0ED92625
:101C4000DE50DE10D8B427EF0EF029EF0EF042EF91
:101C50000EF04450D96EDA6A0A0ED9264450E16E6D
:101C6000E26A030EE126DE50E65CE650800A496E29
:101C7000DE50800A4958D8B040EF0EF042EF0EF027
:101C80005AEF0EF04450D96EDA6A030ED926DF50AF
:101C9000456E4450D96EDA6ADF504524D96EDA6A4F
:101CA00042C0DFFF4450D96EDA6A030ED926DE2A1D
:101CB000000EDD2212005450D8B461EF0EF063EF35
:101CC0000EF06CEF0EF057505810D8A46AEF0EF0DB
:101CD0006CEF0EF070EF0EF0000E596EADEF0EF0DF
:101CE00054C050F055C051F056C052F04FEC0FF0B8
:101CF000596E94EF0EF054C04DF057C0F6FF58C027
:101D0000F7FF000EF86E0F0EF76403D00800F550D1
:101D100005D0F6CFE9FFF7CFEAFFEF504E6E43EC68
:101D200011F0596E574A582A57C0F6FF58C0F7FFAE
:101D3000000EF86E0F0EF76403D00800F55005D0C2
:101D4000F6CFE9FFF7CFEAFFEF500009D8A4ABEFD9
:101D50000EF0ADEF0EF07BEF0EF059501200010EB9
:101D6000786E20EE72F0050EDE6AE806FDE2000EE7
:101D7000796E70507110D8A4C0EF0EF0C2EF0EF063
:101D8000C6EF0EF0000E786E00EF0FF070C042F05C
:101D900071C043F0000E456E200E446E000E476E7B
:101DA000050E466EDEEC11F020EE05F07050D926DF
:101DB0007150DA22DF6A720E5B6E320E5C6E6EC09C
:101DC0005DF06FC05EF0FAEC11F0F4EF0EF07950B8
:101DD000720FD96EDA6A79507024E16E000E7120AC
:101DE000E26EDFCFE7FF792A7950720FD96EDA6A97
:101DF000DF50D8A4FEEF0EF000EF0FF0E7EF0EF08B
:101E0000785012004350D8A408EF0FF00AEF0FF0FB
:101E10000EEF0FF0000E466E4DEF0FF0CD904350D9
:101E2000D96EDA6A050ED926DF50030B446E443AA8
:101E3000CD504418CF0B4418CD6E43C042F02DEC6A
:101E400010F04350D96EDA6A030ED926DECF44F083
:101E5000DDCF45F045C044F0456A4450D76E43504D
:101E6000D96EDA6A030ED926DF50D66E4350D96E8A
:101E7000DA6A030ED926DECF09F0DDCF0AF09D80A5
:101E80009E90F28EF28C4350D96EDA6ADECF96F0D5
:101E9000DDCF97F0CD80010E466E46501200010E48
:101EA000536E52065050D8A458EF0FF05AEF0FF06F
:101EB00086EF0FF0000E536E99EF0FF050C04DF00B
:101EC0005250800F4E6E71EC11F0536E99EF0FF07F
:101ED00050C04DF05250C00F4E6E71EC11F0536E69
:101EE00099EF0FF050C04DF05250940F4E6E71ECC0
:101EF00011F0536E99EF0FF050C04DF05250D40FC7
:101F00004E6E71EC11F0536E99EF0FF05150010AC3
:101F1000D8B45EEF0FF0030AD8B468EF0FF0010AEF
:101F2000D8B472EF0FF0070AD8B47CEF0FF099EF36
:101F30000FF0535012003F50F80B03093F6EC70ECD
:101F40003F163F9C3F9E4050F80B0309406E4050A7
:101F5000C70B0809406E408C409EA9EC12F0F90EA8
:101F6000546E010E556E010E566E110E576E57507F
:101F7000D8A4100E586E5BEC0EF03F0E4A6E3D0E6C
:101F80004B6E82EC0CF03DC06EF03EC06FF0320E36
:101F9000706E010E716EAFEC0EF0F90E546E010E04
:101FA000556E0B0E566E320E576E010E586E5BEC70
:101FB0000EF0820E0001FF6FDD0EE82EFED7FF2F20
:101FC000FCD700D0BDEF0FF007EF00F0880EF66EE3
:101FD000250EF76E000EF86E01EE3EF010EE0AF0E0
:101FE0000900F5CFEEFFE550E150FAE1B80EF66ECC
:101FF000240EF76E000EF86E00EEE5F010EE1AF00B
:102000000900F5CFEEFFE550E150FAE19A0EF66EC9
:10201000250EF76E000EF86E00EE7AF010EE04F06A
:102020000900F5CFEEFFE550E150FAE101EE00F0D6
:102030003E0EEE6AE806FDE100EE80F0650EEE6A07
:10204000E806FDE100EE01F0400EEE6AE806FDE173
:102050007E907E9200019BEF0FF04250D8A433EFA8
:1020600010F035EF10F037EF10F071EF10F0425034
:10207000D96EDA6A050ED926DFB441EF10F043EFCE
:1020800010F046EF10F0CD9271EF10F04250D96E83
:10209000DA6A050ED926DFA450EF10F052EF10F0E7
:1020A00071EF10F0CD824250D96EDA6A050ED92652
:1020B000DFA65DEF10F05FEF10F062EF10F0CD845F
:1020C00071EF10F04250D96EDA6A050ED926DFB6EC
:1020D0006CEF10F06EEF10F071EF10F0CD9471EF27
:1020E00010F01200000E476E000E466E4450451070
:1020F000D8B47DEF10F07FEF10F0A7EF10F0010ED5
:10210000486E87EF10F0D89044364536482A45AEE1
:102110008CEF10F08EEF10F083EF10F0D890463671
:1021200047364450425C45504358D8A09AEF10F0CF
:102130009CEF10F0A1EF10F04450425E4550435A1E
:102140004680D89045324432482E8EEF10F046C07B
:1021500042F047C043F012004A50D8A4B2EF10F04A
:10216000B4EF10F0B8EF10F0000E4C6EE1EF10F08D
:102170004A50020F426E4B50010B436E7EEC0BF047
:102180004C6E4A50030F426ED8904B30010B436E99
:102190007EEC0BF04C6E4A50040F426E4B40E8420E
:1021A0003F0B010B436E7EEC0BF04C6E4A50050F5B
:1021B000426E4B38E8461F0B010B436E7EEC0BF072
:1021C0004C6E4C501200000E466E000E476E425090
:1021D000D8B4EDEF10F0EFEF10F0F7EF10F0435040
:1021E000D8A4F5EF10F0F7EF10F0FBEF10F0000EB1
:1021F000486E12EF11F0CECF46F0CFCF47F04650E9
:1022000047C044F0456A44C045F0446A4426000E85
:1022100045224350D96EDA6A44C0DEFF45C0DDFF77
:10222000010E486E48501200010E4C6E4A50D8B450
:102230001CEF11F01EEF11F02EEF11F04A50D96E85
:10224000DA6ADF30E832E832070B4B6E070E4B6478
:102250002CEF11F02EEF11F032EF11F0000E4C6E5A
:1022600041EF11F04AC042F0F5EC0AF04AC042F0EA
:102270004A50D96EDA6A000EDFBE010E436E7EEC64
:102280000BF04C5012004D50D8A449EF11F04BEF19
:1022900011F04FEF11F0000E4F6E6FEF11F04DC0C7
:1022A00042F0010E436E7EEC0BF04F6E4DC04AF0D3
:1022B0004E380F0B4B6EACEC10F04F6E4DC04AF029
:1022C000BFEC11F04F6E4DC04AF04EC04BF0ACEC7D
:1022D00010F04F6E4DC04AF0BFEC11F04F6E4F50F2
:1022E00012004D50D8A477EF11F079EF11F07DEF87
:1022F00011F0000E4F6E9DEF11F04DC042F0000E38
:10230000436E7EEC0BF04F6E4DC04AF04E380F0B13
:102310004B6EACEC10F04F6E4DC04AF0BFEC11F0BC
:102320004F6E4DC04AF04EC04BF0ACEC10F04F6E0B
:102330004DC04AF0BFEC11F04F6E4F50120058C024
:102340005AF0ABEF11F057C04CF05A0E4D6E59C019
:102350004EF00EEC0AF05AC0F6FF100EF76EF86A57
:102360000800F5500009D8A4B8EF11F0BAEF11F049
:10237000A3EF11F0000E586E000E576E12004A5077
:10238000D8A4C5EF11F0C7EF11F0CBEF11F0000E9C
:102390004B6EDCEF11F04A28426E010E436E7EEC6C
:1023A0000BF0030EE82EFED700004A28426E000E06
:1023B000436E7EEC0BF04B6E4B50120042C048F067
:1023C00043C049F0ECEF11F048C0D9FF49C0DAFF33
:1023D00044C0DFFF484A492A4606D8A04706462897
:1023E00006E14728D8A4F7EF11F0F9EF11F0E4EF78
:1023F00011F012005D0E616E5BC062F0000E666E41
:10240000000E656E000E6D6E000E6C6E620E576EE5
:102410005CC058F0610E596E9FEC11F05B50652462
:10242000D96EDA6ADF6A120049BE19EF12F01BEFAB
:1024300012F021EF12F048C048F049C049F02DEFEA
:1024400012F048C04AF049C04BF04A1E4B1E4A4A9F
:102450004B2A4AC048F04BC049F012004D50D8A456
:1024600034EF12F036EF12F03AEF12F0000E4E6E2B
:1024700046EF12F04DC04AF014EC11F04E6E4D28AC
:102480004A6E14EC11F04E16010E4E6E4E501200B4
:102490004250D8A44EEF12F050EF12F054EF12F069
:1024A000000E456E5AEF12F04450CF6E43C0CEFF7F
:1024B000010E456E45501200890F8A0F8B0F8C0F4D
:1024C0008D0F920F930F940F950F960F020A121A09
:1024D000222A416EF2904104D8A471EF12F073EFFA
:1024E00012F075EF12F075EF12F01200416EF290DB
:1024F0004104D8A47EEF12F080EF12F082EF12F0C8
:1025000082EF12F01200416EF2904104D8A48BEFDA
:1025100012F08DEF12F08FEF12F08FEF12F0120029
:10252000416EF2904104D8A498EF12F09AEF12F0A5
:102530009CEF12F09CEF12F012000001E495FF0EE8
:10254000E36FF80EE26FE451FC0B0109E46FE48BDA
:1025500012003F0E4D6E2EEC12F0F90E506E06EC8E
:102560000CF01200A1920850B36E07C0B2FF120027
:102570009E900A50CF6E09C0CEFF1200F2940C500C
:10258000D76E0BC0D6FF1200800F810F820F830F12
:10259000840F9E922EC0CCFF1200010101019E9675
:1025A0001200A1961200F0921200F0961200F29220
:1025B00012009D981200A19012009E9412009E9C01
:0625C000120012001200DF
:020000040030CA
:0E000000FF071F1FFF8185FF0FC00FE00F409D
:00000001FF
