:0400000007EF00F016
:0A0008007D8276ED0AF0C2EF10F0E1
:10100000003738392F3435362A3132332D43303DCD
:101010002B44617465203A200054696D653A2000C4
:0B102000446174653A2000256900005F
:10102C002C50800B356E2C502C24376E2BAE21EFB0
:10103C0008F023EF08F024EF08F037803750D8B4CD
:10104C002AEF08F02CEF08F041EF08F03728D8A46D
:10105C0032EF08F034EF08F03CEF08F0000E296E88
:10106C00000E2A6E000E2B6E000E2C6E2B8E000EB8
:10107C002C6E49EF08F0000E296E000E2A6E000E41
:10108C002B6E000E2C6E3050800B366E3550361891
:10109C00D8B453EF08F055EF08F056EF08F0358C44
:1010AC0030503024366E2FAE5EEF08F060EF08F053
:1010BC0061EF08F036803650D8B467EF08F069EF6E
:1010CC0008F07EEF08F03628D8A46FEF08F071EF27
:1010DC0008F079EF08F0000E2D6E000E2E6E000E4B
:1010EC002F6E000E306E2F8E000E306E86EF08F0D5
:1010FC00000E2D6E000E2E6E000E2F6E000E306E3A
:10110C003750365CD8B08DEF08F08FEF08F0B6EFA3
:10111C0008F035AC94EF08F096EF08F098EF08F073
:10112C00800E351A37C038F036C037F038C036F07C
:10113C0029C038F02DC029F038C02DF02AC038F065
:10114C002EC02AF038C02EF02BC038F02FC02BF058
:10115C0038C02FF02CC038F030C02CF038C030F034
:10116C00000E386E375036C031F0326A315E000EE8
:10117C00325A32BECBEF08F0325009E11A0E315C14
:10118C00D8A0CBEF08F0CDEF08F004EF09F0295010
:10119C002A102B102C10D8A4D6EF08F0D9EF08F099
:1011AC00010EDAEF08F0000E386E000E296E000EFC
:1011BC002A6E000E2B6E000E2C6E36C037F00DEF23
:1011CC0009F038A0ECEF08F0EEEF08F0F4EF08F0BF
:1011DC00D89038300109386EF6EF08F0D8903832D4
:1011EC0029A0FBEF08F0FDEF08F0FEEF08F0388EB9
:1011FC002C342C322B322A322932372A3650375C97
:10120C00D8A00BEF09F00DEF09F0E7EF08F035BCB3
:10121C0012EF09F014EF09F054EF09F03750D8A48D
:10122C001AEF09F01CEF09F026EF09F0000E296EF9
:10123C00000E2A6E000E2B6E000E2C6E75EF0AF04F
:10124C002D5029262E502A222F502B2230502C2262
:10125C002CA033EF09F035EF09F0E1EF09F038A0DD
:10126C003AEF09F03CEF09F042EF09F0D890383032
:10127C000109386E44EF09F0D890383229A049EFB3
:10128C0009F04BEF09F04CEF09F0388E2C342C326E
:10129C002B322A322932372AE1EF09F02D50295C02
:1012AC002E502A582F502B582C50800A316E30500B
:1012BC00800A3158D8B065EF09F067EF09F092EF6A
:1012CC0009F029502D5C316E2A502E58326E2B505D
:1012DC002F58336E2C503058346EFF0E3124296E3B
:1012EC00FF0E32202A6EFF0E33202B6EFF0E3420A1
:1012FC002C6E800E351A386C3850D8A488EF09F053
:10130C008AEF09F09AEF09F0010E2926000E2A2225
:10131C002B222C229AEF09F02D50295E2E502A5A9E
:10132C002F502B5A30502C5A29502A102B102C107D
:10133C00D8A4A3EF09F0A5EF09F0DAEF09F03850C3
:10134C00D8A4ABEF09F0ADEF09F0DAEF09F0000E1D
:10135C00296E000E2A6E000E2B6E000E2C6E75EF91
:10136C000AF0D89029362A362B362C3638AEC1EFF7
:10137C0009F0C3EF09F0C4EF09F0298038A0C9EFD8
:10138C0009F0CBEF09F0CFEF09F0D8803836D1EF68
:10139C0009F0D89038363750D8B4D7EF09F0D9EFD8
:1013AC0009F0DAEF09F037062BAEDFEF09F0E1EFC9
:1013BC0009F0B7EF09F0000E366E38AEE8EF09F021
:1013CC00EAEF09F002EF0AF038C031F07F0E311667
:1013DC00D8B4F3EF09F0F5EF09F0F9EF09F0010ECD
:1013EC00366E02EF0AF029A0FEEF09F000EF0AF0CA
:1013FC0002EF0AF0F5EF09F03650D8B408EF0AF016
:10140C000AEF0AF035EF0AF0010E2926000E2A2207
:10141C002B222C222CA015EF0AF017EF0AF035EF37
:10142C000AF029C031F02AC032F02BC033F02CC0A6
:10143C0034F03434343233323232313231C029F078
:10144C0032C02AF033C02BF034C02CF03728D8B47B
:10145C0032EF0AF034EF0AF035EF0AF0372A37286A
:10146C00D8B43BEF0AF03DEF0AF045EF0AF03750E5
:10147C00D8A443EF0AF045EF0AF057EF0AF0000E3C
:10148C00296E000E2A6E000E2B6E000E2C6E37503D
:10149C00D8A453EF0AF055EF0AF057EF0AF0000EFC
:1014AC00356E37A05CEF0AF05EEF0AF061EF0AF0E0
:1014BC002B8E62EF0AF02B9ED89037302C6E35AE07
:1014CC006AEF0AF06CEF0AF06DEF0AF02C8E29C06F
:1014DC0029F02AC02AF02BC02BF02CC02CF01200C3
:1014EC000600F2A87CEF0AF07EEF0AF087EF0AF014
:1014FC00F2A283EF0AF085EF0AF087EF0AF0EDEC29
:10150C0012F0F0A68CEF0AF08EEF0AF097EF0AF0CB
:10151C00F0A093EF0AF095EF0AF097EF0AF0EBECDE
:10152C0012F0F0A89CEF0AF09EEF0AF0A7EF0AF079
:10153C00F0A2A3EF0AF0A5EF0AF0A7EF0AF0E9EC8E
:10154C0012F0F2A6ACEF0AF0AEEF0AF0C9EF0AF017
:10155C00F2A0B3EF0AF0B5EF0AF0C9EF0AF081A8D8
:10156C00BAEF0AF0BCEF0AF0C9EF0AF07C04D8A479
:10157C00C2EF0AF0C4EF0AF0C9EF0AF0000E7C6E5D
:10158C00010EA6EC12F0F2A6CEEF0AF0D0EF0AF0A4
:10159C00EBEF0AF0F2A0D5EF0AF0D7EF0AF0EBEF81
:1015AC000AF081B8DCEF0AF0DEEF0AF0EBEF0AF09C
:1015BC007C50D8A4E4EF0AF0E6EF0AF0EBEF0AF067
:1015CC00010E7C6E000EA6EC12F0F2A6F0EF0AF003
:1015DC00F2EF0AF00DEF0BF0F2A0F7EF0AF0F9EFD3
:1015EC000AF00DEF0BF081AAFEEF0AF000EF0BF002
:1015FC000DEF0BF07B04D8A406EF0BF008EF0BF00B
:10160C000DEF0BF0000E7B6E010E99EC12F0F2A6B2
:10161C0012EF0BF014EF0BF02FEF0BF0F2A019EF11
:10162C000BF01BEF0BF02FEF0BF081BA20EF0BF050
:10163C0022EF0BF02FEF0BF07B50D8A428EF0BF020
:10164C002AEF0BF02FEF0BF0010E7B6E000E99ECD6
:10165C0012F0F2A634EF0BF036EF0BF051EF0BF06B
:10166C00F2A03BEF0BF03DEF0BF051EF0BF081AC28
:10167C0042EF0BF044EF0BF051EF0BF07A04D8A4CF
:10168C004AEF0BF04CEF0BF051EF0BF0000E7A6EB3
:10169C00010E8CEC12F0F2A656EF0BF058EF0BF09B
:1016AC0073EF0BF0F2A05DEF0BF05FEF0BF073EF4D
:1016BC000BF081BC64EF0BF066EF0BF073EF0BF0EB
:1016CC007A50D8A46CEF0BF06EEF0BF073EF0BF0BD
:1016DC00010E7A6E000E8CEC12F0F2A678EF0BF085
:1016EC007AEF0BF095EF0BF0F2A07FEF0BF081EFA0
:1016FC000BF095EF0BF081AE86EF0BF088EF0BF053
:10170C0095EF0BF07904D8A48EEF0BF090EF0BF063
:10171C0095EF0BF0000E796E010E7FEC12F0F2A635
:10172C009AEF0BF09CEF0BF0B7EF0BF0F2A0A1EFE0
:10173C000BF0A3EF0BF0B7EF0BF081BEA8EF0BF0A3
:10174C00AAEF0BF0B7EF0BF07950D8A4B0EF0BF079
:10175C00B2EF0BF0B7EF0BF0010E796E000E7FECD1
:10176C0012F09DACBCEF0BF0BEEF0BF0C7EF0BF023
:10177C009EACC3EF0BF0C5EF0BF0C7EF0BF0F5EC25
:10178C0012F0F2AACCEF0BF0CEEF0BF0D7EF0BF080
:10179C00F2A4D3EF0BF0D5EF0BF0D7EF0BF0D5ECA9
:1017AC0012F09DA0DCEF0BF0DEEF0BF0E7EF0BF08F
:1017BC009EA0E3EF0BF0E5EF0BF0E7EF0BF0CFECB7
:1017CC0012F09DA2ECEF0BF0EEEF0BF0F7EF0BF03D
:1017DC009EA2F3EF0BF0F5EF0BF0F7EF0BF0E0EC54
:1017EC0012F0A0A2FCEF0BF0FEEF0BF007EF0CF0E9
:1017FC00A1A203EF0CF005EF0CF007EF0CF0C9EC15
:10180C0012F09DA40CEF0CF00EEF0CF017EF0CF097
:10181C009EA413EF0CF015EF0CF017EF0CF0F3EC9B
:10182C0012F0A0A01CEF0CF01EEF0CF027EF0CF048
:10183C00A1A023EF0CF025EF0CF027EF0CF0F1EC4E
:10184C0012F09DA82CEF0CF02EEF0CF037EF0CF0F3
:10185C009EA833EF0CF035EF0CF037EF0CF0EFECFB
:10186C0012F09DAA3CEF0CF03EEF0CF047EF0CF0A1
:10187C009EAA43EF0CF045EF0CF047EF0CF0FAEC9E
:10188C0012F09DA64CEF0CF04EEF0CF057EF0CF055
:10189C009EA653EF0CF055EF0CF057EF0CF0F8EC54
:1018AC0012F0A0A65CEF0CF05EEF0CF067EF0CF002
:1018BC00A1A663EF0CF065EF0CF067EF0CF0F9EC00
:1018CC0012F07D9211001350800B206E13501324D4
:1018DC00276E12AE74EF0CF076EF0CF077EF0CF085
:1018EC0027802750D8B47DEF0CF07FEF0CF094EFED
:1018FC000CF02728D8A485EF0CF087EF0CF08FEFB5
:10190C000CF0000E106E000E116E000E126E000E1A
:10191C00136E128E000E136E9CEF0CF0000E106EF8
:10192C00000E116E000E126E000E136E1750800B0F
:10193C00201A17501724286E16AEA7EF0CF0A9EF3B
:10194C000CF0AAEF0CF028802850D8B4B0EF0CF0B3
:10195C00B2EF0CF0C7EF0CF02828D8A4B8EF0CF0BD
:10196C00BAEF0CF0C2EF0CF0000E146E000E156EF8
:10197C00000E166E000E176E168E000E176ECFEF41
:10198C000CF0000E146E000E156E000E166E000E8E
:10199C00176E1450151016101710D8A4D8EF0CF0A1
:1019AC00DAEF0CF0F2EF0CF0000E106E000E116E70
:1019BC00000E126E000E136E800E12127F0E13129A
:1019CC002050131210C010F011C011F012C012F000
:1019DC0013C013F035EF0EF02750D8A4F8EF0CF02D
:1019EC00FAEF0CF004EF0DF0000E106E000E116EFD
:1019FC00000E126E000E136E35EF0EF0285027C03D
:101A0C0018F0196A185E000E195A7F0E1824216EF0
:101A1C00000E1920226E10C01CF011C01DF012C057
:101A2C001EF013C01FF0000E106E000E116E000E93
:101A3C00126E000E136E000E236E000E246E000E3E
:101A4C00256E000E266E000E286E65EF0DF02850E8
:101A5C00D8B433EF0DF035EF0DF04CEF0DF0D8900E
:101A6C001C361D361E361F36D890103611361236DF
:101A7C00133626AE44EF0DF046EF0DF047EF0DF0A8
:101A8C001080D890233624362536263614501C5C0C
:101A9C0015501D5816501E5817501F58D8A059EFE6
:101AAC000DF05BEF0DF064EF0DF0268C14501C5E06
:101ABC0015501D5A16501E5A17501F5A282A190E07
:101ACC0028646BEF0DF06DEF0DF02DEF0DF01C5049
:101ADC001D101E101F10D8B476EF0DF078EF0DF01E
:101AEC0090EF0DF0238090EF0DF0D890103611365A
:101AFC001236133626AE85EF0DF087EF0DF088EF1A
:101B0C000DF01080D8902336243625362636210643
:101B1C00D8A0220612AE95EF0DF097EF0DF07BEFEB
:101B2C000DF0000E286E26AE9EEF0DF0A0EF0DF01E
:101B3C00C4EF0DF0FF0E2314186EFF0E2414196E53
:101B4C00FF0E25141A6E7F0E26141B6E18501910DA
:101B5C001A101B10D8B4B5EF0DF0B7EF0DF0BBEFAA
:101B6C000DF0010E286EC4EF0DF010A0C0EF0DF0BB
:101B7C00C2EF0DF0C4EF0DF0B7EF0DF02850D8B454
:101B8C00CAEF0DF0CCEF0DF0F0EF0DF0010E1026BA
:101B9C00000E11221222132213A0D7EF0DF0D9EF51
:101BAC000DF0F0EF0DF010C018F011C019F012C0CC
:101BBC001AF013C01BF01B341B321A3219321832B4
:101BCC0018C010F019C011F01AC012F01BC013F09D
:101BDC00214A222A22BEFBEF0DF0225008E12128D7
:101BEC00D8A0FBEF0DF0FDEF0DF008EF0EF0000E9E
:101BFC00226E2168000E106E000E116E000E126E19
:101C0C00000E136E22BE15EF0EF0225006E12104D9
:101C1C00D8B013EF0EF015EF0EF023EF0EF0000E10
:101C2C00226E000E216E000E106E000E116E000E54
:101C3C00126E000E136E000E206E21C027F027A02E
:101C4C002AEF0EF02CEF0EF02FEF0EF0128E30EF7D
:101C5C000EF0129ED8902730136EE6EF0CF01200A7
:101C6C000A6E0A50D8B43DEF0EF03FEF0EF061EF64
:101C7C000EF005BE46EF0EF044EF0EF061EF0EF0E5
:101C8C0002C006F003C007F004C008F005C009F05C
:101C9C00061E071E081E091E062A000E0722082211
:101CAC00092206C00CF007C00DF008C00EF009C0E8
:101CBC000FF069EF0EF002C00CF003C00DF004C081
:101CCC000EF005C00FF00250031004100510D8A43C
:101CDC0072EF0EF074EF0EF07EEF0EF0000E026E4F
:101CEC00000E036E000E046E000E056E0FEF0FF06B
:101CFC00960E0B6E88EF0EF00B2AD8900F320E3228
:101D0C000D320C32000E0C14066E000E0D14076E04
:101D1C00000E0E14086EFE0E0F14096E06500710FE
:101D2C0008100910D8A49DEF0EF09FEF0EF082EF73
:101D3C000EF0ADEF0EF00B2A010E0C26000E0D224C
:101D4C000E220F22D8900F320E320D320C32000EB2
:101D5C000C14066E000E0D14076E000E0E14086E99
:101D6C00FF0E0F14096E0650071008100910D8A4A6
:101D7C00C2EF0EF0C4EF0EF0A1EF0EF0CCEF0EF0B0
:101D8C000B06D8900C360D360E360F360EBED1EF34
:101D9C000EF0D3EF0EF0DBEF0EF0020E0B60D9EF6E
:101DAC000EF0DBEF0EF0C6EF0EF00BB0E0EF0EF026
:101DBC00E2EF0EF0E3EF0EF00E9ED8900B320BC05C
:101DCC0006F0076A086A096A06C009F0086A076A19
:101DDC00066A06500C1207500D1208500E120950CC
:101DEC000F120A50D8B4FDEF0EF0FFEF0EF007EF14
:101DFC000FF005BE06EF0FF004EF0FF007EF0FF03A
:101E0C000F8E0CC002F00DC003F00EC004F00FC01A
:101E1C0005F01200486E60EC12F0640E026E98EC45
:101E2C0011F04C6E4C04D8B41EEF0FF020EF0FF0F5
:101E3C0023EF0FF04C50A7EF0FF0640E026E48C06A
:101E4C0003F04B0E046E03EC11F04C6E4C04D8A452
:101E5C0032EF0FF034EF0FF020EF0FF04B50D8B4FF
:101E6C003AEF0FF03CEF0FF03EEF0FF020EF0FF0DA
:101E7C00640E026E47C003F04B0E046E03EC11F0BF
:101E8C004C6E4C04D8A44DEF0FF04FEF0FF020EF39
:101E9C000FF04B50D8B455EF0FF057EF0FF059EF40
:101EAC000FF020EF0FF0640E026E47EC12F04C6E48
:101EBC004C04D8B464EF0FF066EF0FF068EF0FF03E
:101ECC0020EF0FF0640E026E48500109036E4B0EAA
:101EDC00046E03EC11F04C6E4C04D8A478EF0FF0A8
:101EEC007AEF0FF020EF0FF04B50D8B480EF0FF0DB
:101EFC0082EF0FF084EF0FF020EF0FF0640E026E04
:101F0C00010E036E490E046E3EEC11F04C6E4C0447
:101F1C00D8B493EF0FF095EF0FF097EF0FF020EF91
:101F2C000FF0640E026E78EC11F04C6E4C04D8B4C9
:101F3C00A2EF0FF0A4EF0FF0A6EF0FF020EF0FF0D1
:101F4C00495012003B343C34426E4250D8A4B1EF9D
:101F5C000FF0B3EF0FF0BDEF0FF0000E396E000E67
:101F6C003A6E000E3B6E000E3C6E2AEF10F039C03C
:101F7C003DF03AC03EF03BC03FF03CC040F0200E7C
:101F8C00CDEF0FF0D89040323F323E323D32E82E4A
:101F9C00C8EF0FF03D50416E3B8EFF0E3916FF0E11
:101FAC003A16FF0E3B16000E3C16960E425E42BED3
:101FBC00E4EF0FF0E2EF0FF0FAEF0FF04250800A6F
:101FCC00970FD8B0ECEF0FF0EEEF0FF0F0EF0FF043
:101FDC00B3EF0FF0D8903C323B323A323932423EBA
:101FEC00F0EF0FF012EF10F01F0E426400EF10F044
:101FFC0002EF10F00AEF10F0B3EF0FF0D890393673
:10200C003A363B363C3642064250D8A410EF10F01C
:10201C0012EF10F004EF10F04150D8B418EF10F09C
:10202C001AEF10F022EF10F03C1E3B1E3A1E396CDA
:10203C00000E3A223B223C2239C039F03AC03AF029
:10204C003BC03BF03CC03CF012004550D8A431EFF3
:10205C0010F033EF10F037EF10F0000E466E75EF06
:10206C0010F0C69A4550D96EDA6A060ED926DFA052
:10207C0042EF10F044EF10F04AEF10F045C043F07F
:10208C0077EC10F068EF10F04550D96EDA6A060E56
:10209C00D926DFB054EF10F056EF10F068EF10F0C7
:1020AC0045C002F010EC12F0C69EC69CC688455086
:1020BC00D96EDA6A050ED926DF50C86E45C002F01B
:1020CC0072EC12F0E4EC12F045C002F0D6EC11F018
:1020DC0045C002F0F3EC11F0C68A010E466E465074
:1020EC0012004350D96EDA6A040ED926DF50446EC2
:1020FC00C6504418F00B4418C66E000E2D6E000E20
:10210C002E6E800E2F6EBF0E306E4350D96EDA6A73
:10211C00DECF02F0DECF03F0DECF04F0DECF05F031
:10212C00000E36EC0EF002C014F003C015F004C023
:10213C0016F005C017F0000E106E240E116EF40E82
:10214C00126E490E136E69EC0CF010C029F011C020
:10215C002AF012C02BF013C02CF016EC08F029C09A
:10216C0039F02AC03AF02BC03BF02CC03CF0A8EC64
:10217C000FF03950C86E1200B60EF66E250EF76EC3
:10218C00000EF86E01EE00F010EE0AF00900F5CF2B
:10219C00EEFFE550E150FAE17E0EF66E250EF76E7D
:1021AC00000EF86E00EEE5F010EE14F00900F5CF1D
:1021BC00EEFFE550E150FAE1CE0EF66E250EF76E0D
:1021CC00000EF86E00EE79F010EE04F00900F5CF79
:1021DC00EEFFE550E150FAE100EE80F0650EEE6A9C
:1021EC00E806FDE100EE4DF02C0EEE6AE806FDE18E
:1021FC007D907D920001B8EF11F00250D8B409EF38
:10220C0011F00BEF11F013EF11F00450D8A411EFF3
:10221C0011F013EF11F017EF11F0000E056E3CEFFB
:10222C0011F003C0C9FF9EA61EEF11F020EF11F0B4
:10223C0019EF11F09E96C5BC26EF11F028EF11F0A6
:10224C002EEF11F00450D96EDA6ADF6A3AEF11F012
:10225C00C5AC33EF11F035EF11F03AEF11F004503B
:10226C00D96EDA6A010EDF6E010E056E0550120092
:10227C000250D8B444EF11F046EF11F04EEF11F0CC
:10228C000450D8A44CEF11F04EEF11F052EF11F0B6
:10229C00000E056E76EF11F0C586C7A058EF11F051
:1022AC005AEF11F053EF11F00450D96EDA6AC9CF1E
:1022BC00DFFF0350D8A465EF11F067EF11F06AEF60
:1022CC0011F0C59A73EF11F00304D8A470EF11F05C
:1022DC0072EF11F073EF11F0C58AC588010E056E0F
:1022EC00055012000250D8A47EEF11F080EF11F0CF
:1022FC0084EF11F0000E036E96EF11F0C584C5B497
:10230C008AEF11F08CEF11F085EF11F09E96C7A8B3
:10231C0092EF11F094EF11F080EF11F0010E036EBB
:10232C00035012000250D8A49EEF11F0A0EF11F050
:10233C00A4EF11F0000E036EB6EF11F0C580C5B01E
:10234C00AAEF11F0ACEF11F0A5EF11F09E96C7A615
:10235C00B2EF11F0B4EF11F0A0EF11F0010E036E1B
:10236C0003501200A00E0001D86F860ED96F010E1B
:10237C00DA6F000EDB6FDE81080EDC6FDE85DE931C
:10238C00F7EC12F09E0EB3EC12F00001FB6FFBC0E9
:10239C0006F0700E2DEC12F0C8EF11F007EF00F004
:1023AC000250D96EDA6A060ED926DFA2E0EF11F0E0
:1023BC00E2EF11F0E5EF11F0C78EF2EF11F00250E1
:1023CC00D96EDA6A060ED926DFB2EFEF11F0F1EF13
:1023DC0011F0F2EF11F0C79E12000250D96EDA6ABA
:1023EC00060ED926DFA4FDEF11F0FFEF11F002EF7E
:1023FC0012F0C78C0FEF12F00250D96EDA6A060E8B
:10240C00D926DFB40CEF12F00EEF12F00FEF12F032
:10241C00C79C12000250D96EDA6A060ED926DFA6C6
:10242C001AEF12F01CEF12F01FEF12F0C58E2CEF0A
:10243C0012F00250D96EDA6A060ED926DFB629EFF1
:10244C0012F02BEF12F02CEF12F0C59E1200076E5B
:10245C00D80E026E98EC11F0D80E026E07C003F085
:10246C00080E046E03EC11F0D80E026E06C003F0D9
:10247C00080E046E03EC11F0D80E026E78EC11F01D
:10248C0012000250D8A44DEF12F04FEF12F053EFA0
:10249C0012F0000E036E5EEF12F0C582C5B259EF5A
:1024AC0012F05BEF12F054EF12F09E96010E036ED9
:1024BC0003501200A00E646E860E656E010E666EE1
:1024CC00000E676E6A80080E686E6A846A92640EEB
:1024DC00456E2BEC10F012000250D96EDA6A040E25
:1024EC00D926DF50036EC6500318F00B0318C66EC6
:1024FC001200016EF2900104D8A487EF12F089EF5C
:10250C0012F08BEF12F08BEF12F01200016EF290C2
:10251C000104D8A494EF12F096EF12F098EF12F099
:10252C0098EF12F01200016EF2900104D8A4A1EF02
:10253C0012F0A3EF12F0A5EF12F0A5EF12F01200BB
:10254C00016EF2900104D8A4AEEF12F0B0EF12F0CD
:10255C00B2EF12F0B2EF12F012000001F96F000EA0
:10256C00476E0001F95110EC0FF00001FA6FFA51AF
:10257C001200890F8A0F8B0F8C0F8D0F920F930FF8
:10258C00940F950F960FA1925450B36E53C0B2FF97
:10259C0012009E905650CF6E55C0CEFF1200F29492
:1025AC005850D76E57C0D6FF1200800F810F820F84
:1025BC00830F840F9E925BC0CCFF1200948694888C
:1025CC00120001010101F0921200F0961200F29239
:1025DC0012009D981200A19012009E9412009E9CD5
:0A25EC00120012001200120012008B
:020000040030CA
:0E000000FF071F1FFF8185FF0FC00FE00F409D
:00000001FF
